{
	"Week 3 Assignments - Solidity/StateVariable.sol": {
		"StateVariables": {
			"abi": [
				{
					"inputs": [],
					"name": "foo",
					"outputs": [
						{
							"internalType": "uint256",
							"name": "",
							"type": "uint256"
						}
					],
					"stateMutability": "nonpayable",
					"type": "function"
				},
				{
					"inputs": [],
					"name": "myUint",
					"outputs": [
						{
							"internalType": "uint256",
							"name": "",
							"type": "uint256"
						}
					],
					"stateMutability": "view",
					"type": "function"
				}
			],
			"devdoc": {
				"kind": "dev",
				"methods": {},
				"version": 1
			},
			"evm": {
				"assembly": "    /* \"Week 3 Assignments - Solidity/StateVariable.sol\":60:246  contract StateVariables {... */\n  mstore(0x40, 0x80)\n    /* \"Week 3 Assignments - Solidity/StateVariable.sol\":112:115  123 */\n  0x7b\n    /* \"Week 3 Assignments - Solidity/StateVariable.sol\":91:115  uint public myUint = 123 */\n  0x00\n  sstore\n    /* \"Week 3 Assignments - Solidity/StateVariable.sol\":60:246  contract StateVariables {... */\n  callvalue\n  dup1\n  iszero\n  tag_1\n  jumpi\n  revert(0x00, 0x00)\ntag_1:\n  pop\n  dataSize(sub_0)\n  dup1\n  dataOffset(sub_0)\n  0x00\n  codecopy\n  0x00\n  return\nstop\n\nsub_0: assembly {\n        /* \"Week 3 Assignments - Solidity/StateVariable.sol\":60:246  contract StateVariables {... */\n      mstore(0x40, 0x80)\n      callvalue\n      dup1\n      iszero\n      tag_1\n      jumpi\n      revert(0x00, 0x00)\n    tag_1:\n      pop\n      jumpi(tag_2, lt(calldatasize, 0x04))\n      shr(0xe0, calldataload(0x00))\n      dup1\n      0x06540f7e\n      eq\n      tag_3\n      jumpi\n      dup1\n      0xc2985578\n      eq\n      tag_4\n      jumpi\n    tag_2:\n      revert(0x00, 0x00)\n        /* \"Week 3 Assignments - Solidity/StateVariable.sol\":91:115  uint public myUint = 123 */\n    tag_3:\n      tag_5\n      tag_6\n      jump\t// in\n    tag_5:\n      mload(0x40)\n      tag_7\n      swap2\n      swap1\n      tag_8\n      jump\t// in\n    tag_7:\n      mload(0x40)\n      dup1\n      swap2\n      sub\n      swap1\n      return\n        /* \"Week 3 Assignments - Solidity/StateVariable.sol\":124:243  function foo() external returns (uint) {... */\n    tag_4:\n      tag_9\n      tag_10\n      jump\t// in\n    tag_9:\n      mload(0x40)\n      tag_11\n      swap2\n      swap1\n      tag_8\n      jump\t// in\n    tag_11:\n      mload(0x40)\n      dup1\n      swap2\n      sub\n      swap1\n      return\n        /* \"Week 3 Assignments - Solidity/StateVariable.sol\":91:115  uint public myUint = 123 */\n    tag_6:\n      sload(0x00)\n      dup2\n      jump\t// out\n        /* \"Week 3 Assignments - Solidity/StateVariable.sol\":124:243  function foo() external returns (uint) {... */\n    tag_10:\n        /* \"Week 3 Assignments - Solidity/StateVariable.sol\":157:161  uint */\n      0x00\n        /* \"Week 3 Assignments - Solidity/StateVariable.sol\":174:195  uint notStateVariable */\n      0x00\n        /* \"Week 3 Assignments - Solidity/StateVariable.sol\":198:201  456 */\n      0x01c8\n        /* \"Week 3 Assignments - Solidity/StateVariable.sol\":174:201  uint notStateVariable = 456 */\n      swap1\n      pop\n        /* \"Week 3 Assignments - Solidity/StateVariable.sol\":219:235  notStateVariable */\n      dup1\n        /* \"Week 3 Assignments - Solidity/StateVariable.sol\":212:235  return notStateVariable */\n      swap2\n      pop\n      pop\n        /* \"Week 3 Assignments - Solidity/StateVariable.sol\":124:243  function foo() external returns (uint) {... */\n      swap1\n      jump\t// out\n        /* \"#utility.yul\":7:84   */\n    tag_13:\n        /* \"#utility.yul\":44:51   */\n      0x00\n        /* \"#utility.yul\":73:78   */\n      dup2\n        /* \"#utility.yul\":62:78   */\n      swap1\n      pop\n        /* \"#utility.yul\":7:84   */\n      swap2\n      swap1\n      pop\n      jump\t// out\n        /* \"#utility.yul\":90:208   */\n    tag_14:\n        /* \"#utility.yul\":177:201   */\n      tag_18\n        /* \"#utility.yul\":195:200   */\n      dup2\n        /* \"#utility.yul\":177:201   */\n      tag_13\n      jump\t// in\n    tag_18:\n        /* \"#utility.yul\":172:175   */\n      dup3\n        /* \"#utility.yul\":165:202   */\n      mstore\n        /* \"#utility.yul\":90:208   */\n      pop\n      pop\n      jump\t// out\n        /* \"#utility.yul\":214:436   */\n    tag_8:\n        /* \"#utility.yul\":307:311   */\n      0x00\n        /* \"#utility.yul\":345:347   */\n      0x20\n        /* \"#utility.yul\":334:343   */\n      dup3\n        /* \"#utility.yul\":330:348   */\n      add\n        /* \"#utility.yul\":322:348   */\n      swap1\n      pop\n        /* \"#utility.yul\":358:429   */\n      tag_20\n        /* \"#utility.yul\":426:427   */\n      0x00\n        /* \"#utility.yul\":415:424   */\n      dup4\n        /* \"#utility.yul\":411:428   */\n      add\n        /* \"#utility.yul\":402:408   */\n      dup5\n        /* \"#utility.yul\":358:429   */\n      tag_14\n      jump\t// in\n    tag_20:\n        /* \"#utility.yul\":214:436   */\n      swap3\n      swap2\n      pop\n      pop\n      jump\t// out\n\n    auxdata: 0xa264697066735822122098daa8781486fcb53aa829e4aef45c790f89f02c2b8ee03ed18881fea0c6a66264736f6c634300081f0033\n}\n",
				"bytecode": {
					"linkReferences": {},
					"object": "6080604052607b5f553480156012575f5ffd5b5060de8061001f5f395ff3fe6080604052348015600e575f5ffd5b50600436106030575f3560e01c806306540f7e146034578063c298557814604e575b5f5ffd5b603a6068565b604051604591906091565b60405180910390f35b6054606d565b604051605f91906091565b60405180910390f35b5f5481565b5f5f6101c890508091505090565b5f819050919050565b608b81607b565b82525050565b5f60208201905060a25f8301846084565b9291505056fea264697066735822122098daa8781486fcb53aa829e4aef45c790f89f02c2b8ee03ed18881fea0c6a66264736f6c634300081f0033",
					"opcodes": "PUSH1 0x80 PUSH1 0x40 MSTORE PUSH1 0x7B PUSH0 SSTORE CALLVALUE DUP1 ISZERO PUSH1 0x12 JUMPI PUSH0 PUSH0 REVERT JUMPDEST POP PUSH1 0xDE DUP1 PUSH2 0x1F PUSH0 CODECOPY PUSH0 RETURN INVALID PUSH1 0x80 PUSH1 0x40 MSTORE CALLVALUE DUP1 ISZERO PUSH1 0xE JUMPI PUSH0 PUSH0 REVERT JUMPDEST POP PUSH1 0x4 CALLDATASIZE LT PUSH1 0x30 JUMPI PUSH0 CALLDATALOAD PUSH1 0xE0 SHR DUP1 PUSH4 0x6540F7E EQ PUSH1 0x34 JUMPI DUP1 PUSH4 0xC2985578 EQ PUSH1 0x4E JUMPI JUMPDEST PUSH0 PUSH0 REVERT JUMPDEST PUSH1 0x3A PUSH1 0x68 JUMP JUMPDEST PUSH1 0x40 MLOAD PUSH1 0x45 SWAP2 SWAP1 PUSH1 0x91 JUMP JUMPDEST PUSH1 0x40 MLOAD DUP1 SWAP2 SUB SWAP1 RETURN JUMPDEST PUSH1 0x54 PUSH1 0x6D JUMP JUMPDEST PUSH1 0x40 MLOAD PUSH1 0x5F SWAP2 SWAP1 PUSH1 0x91 JUMP JUMPDEST PUSH1 0x40 MLOAD DUP1 SWAP2 SUB SWAP1 RETURN JUMPDEST PUSH0 SLOAD DUP2 JUMP JUMPDEST PUSH0 PUSH0 PUSH2 0x1C8 SWAP1 POP DUP1 SWAP2 POP POP SWAP1 JUMP JUMPDEST PUSH0 DUP2 SWAP1 POP SWAP2 SWAP1 POP JUMP JUMPDEST PUSH1 0x8B DUP2 PUSH1 0x7B JUMP JUMPDEST DUP3 MSTORE POP POP JUMP JUMPDEST PUSH0 PUSH1 0x20 DUP3 ADD SWAP1 POP PUSH1 0xA2 PUSH0 DUP4 ADD DUP5 PUSH1 0x84 JUMP JUMPDEST SWAP3 SWAP2 POP POP JUMP INVALID LOG2 PUSH5 0x6970667358 0x22 SLT KECCAK256 SWAP9 0xDA 0xA8 PUSH25 0x1486FCB53AA829E4AEF45C790F89F02C2B8EE03ED18881FEA0 0xC6 0xA6 PUSH3 0x64736F PUSH13 0x634300081F0033000000000000 "
				},
				"gasEstimates": {
					"creation": {
						"codeDepositCost": "44400",
						"executionCost": "22196",
						"totalCost": "66596"
					},
					"external": {
						"foo()": "344",
						"myUint()": "2402"
					}
				},
				"methodIdentifiers": {
					"foo()": "c2985578",
					"myUint()": "06540f7e"
				}
			},
			"storageLayout": {
				"storage": [
					{
						"astId": 4,
						"contract": "Week 3 Assignments - Solidity/StateVariable.sol:StateVariables",
						"label": "myUint",
						"offset": 0,
						"slot": "0",
						"type": "t_uint256"
					}
				],
				"types": {
					"t_uint256": {
						"encoding": "inplace",
						"label": "uint256",
						"numberOfBytes": "32"
					}
				}
			},
			"userdoc": {
				"kind": "user",
				"methods": {},
				"version": 1
			}
		}
	}
}