{
	"FraudRegistry.sol": {
		"FraudRegistry": {
			"abi": [
				{
					"anonymous": false,
					"inputs": [
						{
							"indexed": true,
							"internalType": "bytes32",
							"name": "dataHash",
							"type": "bytes32"
						},
						{
							"indexed": false,
							"internalType": "bool",
							"name": "isFraud",
							"type": "bool"
						},
						{
							"indexed": false,
							"internalType": "uint256",
							"name": "timestamp",
							"type": "uint256"
						}
					],
					"name": "RecordAdded",
					"type": "event"
				},
				{
					"inputs": [
						{
							"internalType": "bytes32",
							"name": "_dataHash",
							"type": "bytes32"
						},
						{
							"internalType": "bool",
							"name": "_isFraud",
							"type": "bool"
						},
						{
							"internalType": "uint256",
							"name": "_riskScore",
							"type": "uint256"
						},
						{
							"internalType": "string",
							"name": "_modelUsed",
							"type": "string"
						}
					],
					"name": "addRecord",
					"outputs": [],
					"stateMutability": "nonpayable",
					"type": "function"
				},
				{
					"inputs": [
						{
							"internalType": "bytes32",
							"name": "_dataHash",
							"type": "bytes32"
						}
					],
					"name": "getRecord",
					"outputs": [
						{
							"internalType": "bool",
							"name": "",
							"type": "bool"
						},
						{
							"internalType": "uint256",
							"name": "",
							"type": "uint256"
						},
						{
							"internalType": "string",
							"name": "",
							"type": "string"
						},
						{
							"internalType": "address",
							"name": "",
							"type": "address"
						}
					],
					"stateMutability": "view",
					"type": "function"
				},
				{
					"inputs": [
						{
							"internalType": "bytes32",
							"name": "",
							"type": "bytes32"
						}
					],
					"name": "registry",
					"outputs": [
						{
							"internalType": "bool",
							"name": "isFraud",
							"type": "bool"
						},
						{
							"internalType": "uint256",
							"name": "riskScore",
							"type": "uint256"
						},
						{
							"internalType": "uint256",
							"name": "timestamp",
							"type": "uint256"
						},
						{
							"internalType": "string",
							"name": "modelUsed",
							"type": "string"
						},
						{
							"internalType": "address",
							"name": "reporter",
							"type": "address"
						},
						{
							"internalType": "bool",
							"name": "exists",
							"type": "bool"
						}
					],
					"stateMutability": "view",
					"type": "function"
				}
			],
			"devdoc": {
				"kind": "dev",
				"methods": {},
				"version": 1
			},
			"evm": {
				"assembly": "    /* \"FraudRegistry.sol\":60:1359  contract FraudRegistry {... */\n  mstore(0x40, 0x80)\n  callvalue\n  dup1\n  iszero\n  tag_1\n  jumpi\n  revert(0x00, 0x00)\ntag_1:\n  pop\n  dataSize(sub_0)\n  dup1\n  dataOffset(sub_0)\n  0x00\n  codecopy\n  0x00\n  return\nstop\n\nsub_0: assembly {\n        /* \"FraudRegistry.sol\":60:1359  contract FraudRegistry {... */\n      mstore(0x40, 0x80)\n      callvalue\n      dup1\n      iszero\n      tag_1\n      jumpi\n      revert(0x00, 0x00)\n    tag_1:\n      pop\n      jumpi(tag_2, lt(calldatasize, 0x04))\n      shr(0xe0, calldataload(0x00))\n      dup1\n      0x213681cd\n      eq\n      tag_3\n      jumpi\n      dup1\n      0x5a71a392\n      eq\n      tag_4\n      jumpi\n      dup1\n      0x7ef50298\n      eq\n      tag_5\n      jumpi\n    tag_2:\n      revert(0x00, 0x00)\n        /* \"FraudRegistry.sol\":1031:1356  function getRecord(bytes32 _dataHash) public view returns (bool, uint256, string memory, address) {... */\n    tag_3:\n      tag_6\n      0x04\n      dup1\n      calldatasize\n      sub\n      dup2\n      add\n      swap1\n      tag_7\n      swap2\n      swap1\n      tag_8\n      jump\t// in\n    tag_7:\n      tag_9\n      jump\t// in\n    tag_6:\n      mload(0x40)\n      tag_10\n      swap5\n      swap4\n      swap3\n      swap2\n      swap1\n      tag_11\n      jump\t// in\n    tag_10:\n      mload(0x40)\n      dup1\n      swap2\n      sub\n      swap1\n      return\n        /* \"FraudRegistry.sol\":467:1017  function addRecord(bytes32 _dataHash, bool _isFraud, uint256 _riskScore, string memory _modelUsed) public {... */\n    tag_4:\n      tag_12\n      0x04\n      dup1\n      calldatasize\n      sub\n      dup2\n      add\n      swap1\n      tag_13\n      swap2\n      swap1\n      tag_14\n      jump\t// in\n    tag_13:\n      tag_15\n      jump\t// in\n    tag_12:\n      stop\n        /* \"FraudRegistry.sol\":318:365  mapping(bytes32 => FraudRecord) public registry */\n    tag_5:\n      tag_16\n      0x04\n      dup1\n      calldatasize\n      sub\n      dup2\n      add\n      swap1\n      tag_17\n      swap2\n      swap1\n      tag_8\n      jump\t// in\n    tag_17:\n      tag_18\n      jump\t// in\n    tag_16:\n      mload(0x40)\n      tag_19\n      swap7\n      swap6\n      swap5\n      swap4\n      swap3\n      swap2\n      swap1\n      tag_20\n      jump\t// in\n    tag_19:\n      mload(0x40)\n      dup1\n      swap2\n      sub\n      swap1\n      return\n        /* \"FraudRegistry.sol\":1031:1356  function getRecord(bytes32 _dataHash) public view returns (bool, uint256, string memory, address) {... */\n    tag_9:\n        /* \"FraudRegistry.sol\":1090:1094  bool */\n      0x00\n        /* \"FraudRegistry.sol\":1096:1103  uint256 */\n      0x00\n        /* \"FraudRegistry.sol\":1105:1118  string memory */\n      0x60\n        /* \"FraudRegistry.sol\":1120:1127  address */\n      0x00\n        /* \"FraudRegistry.sol\":1148:1156  registry */\n      0x00\n        /* \"FraudRegistry.sol\":1148:1167  registry[_dataHash] */\n      0x00\n        /* \"FraudRegistry.sol\":1157:1166  _dataHash */\n      dup7\n        /* \"FraudRegistry.sol\":1148:1167  registry[_dataHash] */\n      dup2\n      mstore\n      0x20\n      add\n      swap1\n      dup2\n      mstore\n      0x20\n      add\n      0x00\n      keccak256\n        /* \"FraudRegistry.sol\":1148:1174  registry[_dataHash].exists */\n      0x04\n      add\n      0x14\n      swap1\n      sload\n      swap1\n      0x0100\n      exp\n      swap1\n      div\n      0xff\n      and\n        /* \"FraudRegistry.sol\":1140:1208  require(registry[_dataHash].exists, \"No record found for this hash\") */\n      tag_22\n      jumpi\n      mload(0x40)\n      0x08c379a000000000000000000000000000000000000000000000000000000000\n      dup2\n      mstore\n      0x04\n      add\n      tag_23\n      swap1\n      tag_24\n      jump\t// in\n    tag_23:\n      mload(0x40)\n      dup1\n      swap2\n      sub\n      swap1\n      revert\n    tag_22:\n        /* \"FraudRegistry.sol\":1229:1251  FraudRecord memory rec */\n      0x00\n        /* \"FraudRegistry.sol\":1254:1262  registry */\n      0x00\n        /* \"FraudRegistry.sol\":1254:1273  registry[_dataHash] */\n      0x00\n        /* \"FraudRegistry.sol\":1263:1272  _dataHash */\n      dup8\n        /* \"FraudRegistry.sol\":1254:1273  registry[_dataHash] */\n      dup2\n      mstore\n      0x20\n      add\n      swap1\n      dup2\n      mstore\n      0x20\n      add\n      0x00\n      keccak256\n        /* \"FraudRegistry.sol\":1229:1273  FraudRecord memory rec = registry[_dataHash] */\n      mload(0x40)\n      dup1\n      0xc0\n      add\n      0x40\n      mstore\n      swap1\n      dup2\n      0x00\n      dup3\n      add\n      0x00\n      swap1\n      sload\n      swap1\n      0x0100\n      exp\n      swap1\n      div\n      0xff\n      and\n      iszero\n      iszero\n      iszero\n      iszero\n      dup2\n      mstore\n      0x20\n      add\n      0x01\n      dup3\n      add\n      sload\n      dup2\n      mstore\n      0x20\n      add\n      0x02\n      dup3\n      add\n      sload\n      dup2\n      mstore\n      0x20\n      add\n      0x03\n      dup3\n      add\n      dup1\n      sload\n      tag_25\n      swap1\n      tag_26\n      jump\t// in\n    tag_25:\n      dup1\n      0x1f\n      add\n      0x20\n      dup1\n      swap2\n      div\n      mul\n      0x20\n      add\n      mload(0x40)\n      swap1\n      dup2\n      add\n      0x40\n      mstore\n      dup1\n      swap3\n      swap2\n      swap1\n      dup2\n      dup2\n      mstore\n      0x20\n      add\n      dup3\n      dup1\n      sload\n      tag_27\n      swap1\n      tag_26\n      jump\t// in\n    tag_27:\n      dup1\n      iszero\n      tag_28\n      jumpi\n      dup1\n      0x1f\n      lt\n      tag_29\n      jumpi\n      0x0100\n      dup1\n      dup4\n      sload\n      div\n      mul\n      dup4\n      mstore\n      swap2\n      0x20\n      add\n      swap2\n      jump(tag_28)\n    tag_29:\n      dup3\n      add\n      swap2\n      swap1\n      0x00\n      mstore\n      keccak256(0x00, 0x20)\n      swap1\n    tag_30:\n      dup2\n      sload\n      dup2\n      mstore\n      swap1\n      0x01\n      add\n      swap1\n      0x20\n      add\n      dup1\n      dup4\n      gt\n      tag_30\n      jumpi\n      dup3\n      swap1\n      sub\n      0x1f\n      and\n      dup3\n      add\n      swap2\n    tag_28:\n      pop\n      pop\n      pop\n      pop\n      pop\n      dup2\n      mstore\n      0x20\n      add\n      0x04\n      dup3\n      add\n      0x00\n      swap1\n      sload\n      swap1\n      0x0100\n      exp\n      swap1\n      div\n      0xffffffffffffffffffffffffffffffffffffffff\n      and\n      0xffffffffffffffffffffffffffffffffffffffff\n      and\n      0xffffffffffffffffffffffffffffffffffffffff\n      and\n      dup2\n      mstore\n      0x20\n      add\n      0x04\n      dup3\n      add\n      0x14\n      swap1\n      sload\n      swap1\n      0x0100\n      exp\n      swap1\n      div\n      0xff\n      and\n      iszero\n      iszero\n      iszero\n      iszero\n      dup2\n      mstore\n      pop\n      pop\n      swap1\n      pop\n        /* \"FraudRegistry.sol\":1292:1295  rec */\n      dup1\n        /* \"FraudRegistry.sol\":1292:1303  rec.isFraud */\n      0x00\n      add\n      mload\n        /* \"FraudRegistry.sol\":1305:1308  rec */\n      dup2\n        /* \"FraudRegistry.sol\":1305:1318  rec.riskScore */\n      0x20\n      add\n      mload\n        /* \"FraudRegistry.sol\":1320:1323  rec */\n      dup3\n        /* \"FraudRegistry.sol\":1320:1333  rec.modelUsed */\n      0x60\n      add\n      mload\n        /* \"FraudRegistry.sol\":1335:1338  rec */\n      dup4\n        /* \"FraudRegistry.sol\":1335:1347  rec.reporter */\n      0x80\n      add\n      mload\n        /* \"FraudRegistry.sol\":1284:1348  return (rec.isFraud, rec.riskScore, rec.modelUsed, rec.reporter) */\n      swap5\n      pop\n      swap5\n      pop\n      swap5\n      pop\n      swap5\n      pop\n      pop\n        /* \"FraudRegistry.sol\":1031:1356  function getRecord(bytes32 _dataHash) public view returns (bool, uint256, string memory, address) {... */\n      swap2\n      swap4\n      pop\n      swap2\n      swap4\n      jump\t// out\n        /* \"FraudRegistry.sol\":467:1017  function addRecord(bytes32 _dataHash, bool _isFraud, uint256 _riskScore, string memory _modelUsed) public {... */\n    tag_15:\n        /* \"FraudRegistry.sol\":603:611  registry */\n      0x00\n        /* \"FraudRegistry.sol\":603:622  registry[_dataHash] */\n      0x00\n        /* \"FraudRegistry.sol\":612:621  _dataHash */\n      dup6\n        /* \"FraudRegistry.sol\":603:622  registry[_dataHash] */\n      dup2\n      mstore\n      0x20\n      add\n      swap1\n      dup2\n      mstore\n      0x20\n      add\n      0x00\n      keccak256\n        /* \"FraudRegistry.sol\":603:629  registry[_dataHash].exists */\n      0x04\n      add\n      0x14\n      swap1\n      sload\n      swap1\n      0x0100\n      exp\n      swap1\n      div\n      0xff\n      and\n        /* \"FraudRegistry.sol\":602:629  !registry[_dataHash].exists */\n      iszero\n        /* \"FraudRegistry.sol\":594:670  require(!registry[_dataHash].exists, \"Record already exists for this hash!\") */\n      tag_32\n      jumpi\n      mload(0x40)\n      0x08c379a000000000000000000000000000000000000000000000000000000000\n      dup2\n      mstore\n      0x04\n      add\n      tag_33\n      swap1\n      tag_34\n      jump\t// in\n    tag_33:\n      mload(0x40)\n      dup1\n      swap2\n      sub\n      swap1\n      revert\n    tag_32:\n        /* \"FraudRegistry.sol\":705:936  FraudRecord({... */\n      mload(0x40)\n      dup1\n      0xc0\n      add\n      0x40\n      mstore\n      dup1\n        /* \"FraudRegistry.sol\":741:749  _isFraud */\n      dup5\n        /* \"FraudRegistry.sol\":705:936  FraudRecord({... */\n      iszero\n      iszero\n      dup2\n      mstore\n      0x20\n      add\n        /* \"FraudRegistry.sol\":775:785  _riskScore */\n      dup4\n        /* \"FraudRegistry.sol\":705:936  FraudRecord({... */\n      dup2\n      mstore\n      0x20\n      add\n        /* \"FraudRegistry.sol\":811:826  block.timestamp */\n      timestamp\n        /* \"FraudRegistry.sol\":705:936  FraudRecord({... */\n      dup2\n      mstore\n      0x20\n      add\n        /* \"FraudRegistry.sol\":852:862  _modelUsed */\n      dup3\n        /* \"FraudRegistry.sol\":705:936  FraudRecord({... */\n      dup2\n      mstore\n      0x20\n      add\n        /* \"FraudRegistry.sol\":887:897  msg.sender */\n      caller\n        /* \"FraudRegistry.sol\":705:936  FraudRecord({... */\n      0xffffffffffffffffffffffffffffffffffffffff\n      and\n      dup2\n      mstore\n      0x20\n      add\n        /* \"FraudRegistry.sol\":920:924  true */\n      0x01\n        /* \"FraudRegistry.sol\":705:936  FraudRecord({... */\n      iszero\n      iszero\n      dup2\n      mstore\n      pop\n        /* \"FraudRegistry.sol\":683:691  registry */\n      0x00\n        /* \"FraudRegistry.sol\":683:702  registry[_dataHash] */\n      0x00\n        /* \"FraudRegistry.sol\":692:701  _dataHash */\n      dup7\n        /* \"FraudRegistry.sol\":683:702  registry[_dataHash] */\n      dup2\n      mstore\n      0x20\n      add\n      swap1\n      dup2\n      mstore\n      0x20\n      add\n      0x00\n      keccak256\n        /* \"FraudRegistry.sol\":683:936  registry[_dataHash] = FraudRecord({... */\n      0x00\n      dup3\n      add\n      mload\n      dup2\n      0x00\n      add\n      exp(0x0100, 0x00)\n      dup2\n      sload\n      dup2\n      0xff\n      mul\n      not\n      and\n      swap1\n      dup4\n      iszero\n      iszero\n      mul\n      or\n      swap1\n      sstore\n      pop\n      0x20\n      dup3\n      add\n      mload\n      dup2\n      0x01\n      add\n      sstore\n      0x40\n      dup3\n      add\n      mload\n      dup2\n      0x02\n      add\n      sstore\n      0x60\n      dup3\n      add\n      mload\n      dup2\n      0x03\n      add\n      swap1\n      dup2\n      tag_35\n      swap2\n      swap1\n      tag_36\n      jump\t// in\n    tag_35:\n      pop\n      0x80\n      dup3\n      add\n      mload\n      dup2\n      0x04\n      add\n      exp(0x0100, 0x00)\n      dup2\n      sload\n      dup2\n      0xffffffffffffffffffffffffffffffffffffffff\n      mul\n      not\n      and\n      swap1\n      dup4\n      0xffffffffffffffffffffffffffffffffffffffff\n      and\n      mul\n      or\n      swap1\n      sstore\n      pop\n      0xa0\n      dup3\n      add\n      mload\n      dup2\n      0x04\n      add\n      exp(0x0100, 0x14)\n      dup2\n      sload\n      dup2\n      0xff\n      mul\n      not\n      and\n      swap1\n      dup4\n      iszero\n      iszero\n      mul\n      or\n      swap1\n      sstore\n      pop\n      swap1\n      pop\n      pop\n        /* \"FraudRegistry.sol\":972:981  _dataHash */\n      dup4\n        /* \"FraudRegistry.sol\":960:1009  RecordAdded(_dataHash, _isFraud, block.timestamp) */\n      0xb63a0529d981171d570239b7e2c1577d533c11cebd2cf501818c6de844750fbc\n        /* \"FraudRegistry.sol\":983:991  _isFraud */\n      dup5\n        /* \"FraudRegistry.sol\":993:1008  block.timestamp */\n      timestamp\n        /* \"FraudRegistry.sol\":960:1009  RecordAdded(_dataHash, _isFraud, block.timestamp) */\n      mload(0x40)\n      tag_37\n      swap3\n      swap2\n      swap1\n      tag_38\n      jump\t// in\n    tag_37:\n      mload(0x40)\n      dup1\n      swap2\n      sub\n      swap1\n      log2\n        /* \"FraudRegistry.sol\":467:1017  function addRecord(bytes32 _dataHash, bool _isFraud, uint256 _riskScore, string memory _modelUsed) public {... */\n      pop\n      pop\n      pop\n      pop\n      jump\t// out\n        /* \"FraudRegistry.sol\":318:365  mapping(bytes32 => FraudRecord) public registry */\n    tag_18:\n      mstore(0x20, 0x00)\n      dup1\n      0x00\n      mstore\n      keccak256(0x00, 0x40)\n      0x00\n      swap2\n      pop\n      swap1\n      pop\n      dup1\n      0x00\n      add\n      0x00\n      swap1\n      sload\n      swap1\n      0x0100\n      exp\n      swap1\n      div\n      0xff\n      and\n      swap1\n      dup1\n      0x01\n      add\n      sload\n      swap1\n      dup1\n      0x02\n      add\n      sload\n      swap1\n      dup1\n      0x03\n      add\n      dup1\n      sload\n      tag_39\n      swap1\n      tag_26\n      jump\t// in\n    tag_39:\n      dup1\n      0x1f\n      add\n      0x20\n      dup1\n      swap2\n      div\n      mul\n      0x20\n      add\n      mload(0x40)\n      swap1\n      dup2\n      add\n      0x40\n      mstore\n      dup1\n      swap3\n      swap2\n      swap1\n      dup2\n      dup2\n      mstore\n      0x20\n      add\n      dup3\n      dup1\n      sload\n      tag_40\n      swap1\n      tag_26\n      jump\t// in\n    tag_40:\n      dup1\n      iszero\n      tag_41\n      jumpi\n      dup1\n      0x1f\n      lt\n      tag_42\n      jumpi\n      0x0100\n      dup1\n      dup4\n      sload\n      div\n      mul\n      dup4\n      mstore\n      swap2\n      0x20\n      add\n      swap2\n      jump(tag_41)\n    tag_42:\n      dup3\n      add\n      swap2\n      swap1\n      0x00\n      mstore\n      keccak256(0x00, 0x20)\n      swap1\n    tag_43:\n      dup2\n      sload\n      dup2\n      mstore\n      swap1\n      0x01\n      add\n      swap1\n      0x20\n      add\n      dup1\n      dup4\n      gt\n      tag_43\n      jumpi\n      dup3\n      swap1\n      sub\n      0x1f\n      and\n      dup3\n      add\n      swap2\n    tag_41:\n      pop\n      pop\n      pop\n      pop\n      pop\n      swap1\n      dup1\n      0x04\n      add\n      0x00\n      swap1\n      sload\n      swap1\n      0x0100\n      exp\n      swap1\n      div\n      0xffffffffffffffffffffffffffffffffffffffff\n      and\n      swap1\n      dup1\n      0x04\n      add\n      0x14\n      swap1\n      sload\n      swap1\n      0x0100\n      exp\n      swap1\n      div\n      0xff\n      and\n      swap1\n      pop\n      dup7\n      jump\t// out\n        /* \"#utility.yul\":7:82   */\n    tag_44:\n        /* \"#utility.yul\":40:46   */\n      0x00\n        /* \"#utility.yul\":73:75   */\n      0x40\n        /* \"#utility.yul\":67:76   */\n      mload\n        /* \"#utility.yul\":57:76   */\n      swap1\n      pop\n        /* \"#utility.yul\":7:82   */\n      swap1\n      jump\t// out\n        /* \"#utility.yul\":88:205   */\n    tag_45:\n        /* \"#utility.yul\":197:198   */\n      0x00\n        /* \"#utility.yul\":194:195   */\n      0x00\n        /* \"#utility.yul\":187:199   */\n      revert\n        /* \"#utility.yul\":211:328   */\n    tag_46:\n        /* \"#utility.yul\":320:321   */\n      0x00\n        /* \"#utility.yul\":317:318   */\n      0x00\n        /* \"#utility.yul\":310:322   */\n      revert\n        /* \"#utility.yul\":334:411   */\n    tag_47:\n        /* \"#utility.yul\":371:378   */\n      0x00\n        /* \"#utility.yul\":400:405   */\n      dup2\n        /* \"#utility.yul\":389:405   */\n      swap1\n      pop\n        /* \"#utility.yul\":334:411   */\n      swap2\n      swap1\n      pop\n      jump\t// out\n        /* \"#utility.yul\":417:539   */\n    tag_48:\n        /* \"#utility.yul\":490:514   */\n      tag_101\n        /* \"#utility.yul\":508:513   */\n      dup2\n        /* \"#utility.yul\":490:514   */\n      tag_47\n      jump\t// in\n    tag_101:\n        /* \"#utility.yul\":483:488   */\n      dup2\n        /* \"#utility.yul\":480:515   */\n      eq\n        /* \"#utility.yul\":470:533   */\n      tag_102\n      jumpi\n        /* \"#utility.yul\":529:530   */\n      0x00\n        /* \"#utility.yul\":526:527   */\n      0x00\n        /* \"#utility.yul\":519:531   */\n      revert\n        /* \"#utility.yul\":470:533   */\n    tag_102:\n        /* \"#utility.yul\":417:539   */\n      pop\n      jump\t// out\n        /* \"#utility.yul\":545:684   */\n    tag_49:\n        /* \"#utility.yul\":591:596   */\n      0x00\n        /* \"#utility.yul\":629:635   */\n      dup2\n        /* \"#utility.yul\":616:636   */\n      calldataload\n        /* \"#utility.yul\":607:636   */\n      swap1\n      pop\n        /* \"#utility.yul\":645:678   */\n      tag_104\n        /* \"#utility.yul\":672:677   */\n      dup2\n        /* \"#utility.yul\":645:678   */\n      tag_48\n      jump\t// in\n    tag_104:\n        /* \"#utility.yul\":545:684   */\n      swap3\n      swap2\n      pop\n      pop\n      jump\t// out\n        /* \"#utility.yul\":690:1019   */\n    tag_8:\n        /* \"#utility.yul\":749:755   */\n      0x00\n        /* \"#utility.yul\":798:800   */\n      0x20\n        /* \"#utility.yul\":786:795   */\n      dup3\n        /* \"#utility.yul\":777:784   */\n      dup5\n        /* \"#utility.yul\":773:796   */\n      sub\n        /* \"#utility.yul\":769:801   */\n      slt\n        /* \"#utility.yul\":766:885   */\n      iszero\n      tag_106\n      jumpi\n        /* \"#utility.yul\":804:883   */\n      tag_107\n      tag_45\n      jump\t// in\n    tag_107:\n        /* \"#utility.yul\":766:885   */\n    tag_106:\n        /* \"#utility.yul\":924:925   */\n      0x00\n        /* \"#utility.yul\":949:1002   */\n      tag_108\n        /* \"#utility.yul\":994:1001   */\n      dup5\n        /* \"#utility.yul\":985:991   */\n      dup3\n        /* \"#utility.yul\":974:983   */\n      dup6\n        /* \"#utility.yul\":970:992   */\n      add\n        /* \"#utility.yul\":949:1002   */\n      tag_49\n      jump\t// in\n    tag_108:\n        /* \"#utility.yul\":939:1002   */\n      swap2\n      pop\n        /* \"#utility.yul\":895:1012   */\n      pop\n        /* \"#utility.yul\":690:1019   */\n      swap3\n      swap2\n      pop\n      pop\n      jump\t// out\n        /* \"#utility.yul\":1025:1115   */\n    tag_50:\n        /* \"#utility.yul\":1059:1066   */\n      0x00\n        /* \"#utility.yul\":1102:1107   */\n      dup2\n        /* \"#utility.yul\":1095:1108   */\n      iszero\n        /* \"#utility.yul\":1088:1109   */\n      iszero\n        /* \"#utility.yul\":1077:1109   */\n      swap1\n      pop\n        /* \"#utility.yul\":1025:1115   */\n      swap2\n      swap1\n      pop\n      jump\t// out\n        /* \"#utility.yul\":1121:1230   */\n    tag_51:\n        /* \"#utility.yul\":1202:1223   */\n      tag_111\n        /* \"#utility.yul\":1217:1222   */\n      dup2\n        /* \"#utility.yul\":1202:1223   */\n      tag_50\n      jump\t// in\n    tag_111:\n        /* \"#utility.yul\":1197:1200   */\n      dup3\n        /* \"#utility.yul\":1190:1224   */\n      mstore\n        /* \"#utility.yul\":1121:1230   */\n      pop\n      pop\n      jump\t// out\n        /* \"#utility.yul\":1236:1313   */\n    tag_52:\n        /* \"#utility.yul\":1273:1280   */\n      0x00\n        /* \"#utility.yul\":1302:1307   */\n      dup2\n        /* \"#utility.yul\":1291:1307   */\n      swap1\n      pop\n        /* \"#utility.yul\":1236:1313   */\n      swap2\n      swap1\n      pop\n      jump\t// out\n        /* \"#utility.yul\":1319:1437   */\n    tag_53:\n        /* \"#utility.yul\":1406:1430   */\n      tag_114\n        /* \"#utility.yul\":1424:1429   */\n      dup2\n        /* \"#utility.yul\":1406:1430   */\n      tag_52\n      jump\t// in\n    tag_114:\n        /* \"#utility.yul\":1401:1404   */\n      dup3\n        /* \"#utility.yul\":1394:1431   */\n      mstore\n        /* \"#utility.yul\":1319:1437   */\n      pop\n      pop\n      jump\t// out\n        /* \"#utility.yul\":1443:1542   */\n    tag_54:\n        /* \"#utility.yul\":1495:1501   */\n      0x00\n        /* \"#utility.yul\":1529:1534   */\n      dup2\n        /* \"#utility.yul\":1523:1535   */\n      mload\n        /* \"#utility.yul\":1513:1535   */\n      swap1\n      pop\n        /* \"#utility.yul\":1443:1542   */\n      swap2\n      swap1\n      pop\n      jump\t// out\n        /* \"#utility.yul\":1548:1717   */\n    tag_55:\n        /* \"#utility.yul\":1632:1643   */\n      0x00\n        /* \"#utility.yul\":1666:1672   */\n      dup3\n        /* \"#utility.yul\":1661:1664   */\n      dup3\n        /* \"#utility.yul\":1654:1673   */\n      mstore\n        /* \"#utility.yul\":1706:1710   */\n      0x20\n        /* \"#utility.yul\":1701:1704   */\n      dup3\n        /* \"#utility.yul\":1697:1711   */\n      add\n        /* \"#utility.yul\":1682:1711   */\n      swap1\n      pop\n        /* \"#utility.yul\":1548:1717   */\n      swap3\n      swap2\n      pop\n      pop\n      jump\t// out\n        /* \"#utility.yul\":1723:1862   */\n    tag_56:\n        /* \"#utility.yul\":1812:1818   */\n      dup3\n        /* \"#utility.yul\":1807:1810   */\n      dup2\n        /* \"#utility.yul\":1802:1805   */\n      dup4\n        /* \"#utility.yul\":1796:1819   */\n      mcopy\n        /* \"#utility.yul\":1853:1854   */\n      0x00\n        /* \"#utility.yul\":1844:1850   */\n      dup4\n        /* \"#utility.yul\":1839:1842   */\n      dup4\n        /* \"#utility.yul\":1835:1851   */\n      add\n        /* \"#utility.yul\":1828:1855   */\n      mstore\n        /* \"#utility.yul\":1723:1862   */\n      pop\n      pop\n      pop\n      jump\t// out\n        /* \"#utility.yul\":1868:1970   */\n    tag_57:\n        /* \"#utility.yul\":1909:1915   */\n      0x00\n        /* \"#utility.yul\":1960:1962   */\n      0x1f\n        /* \"#utility.yul\":1956:1963   */\n      not\n        /* \"#utility.yul\":1951:1953   */\n      0x1f\n        /* \"#utility.yul\":1944:1949   */\n      dup4\n        /* \"#utility.yul\":1940:1954   */\n      add\n        /* \"#utility.yul\":1936:1964   */\n      and\n        /* \"#utility.yul\":1926:1964   */\n      swap1\n      pop\n        /* \"#utility.yul\":1868:1970   */\n      swap2\n      swap1\n      pop\n      jump\t// out\n        /* \"#utility.yul\":1976:2353   */\n    tag_58:\n        /* \"#utility.yul\":2064:2067   */\n      0x00\n        /* \"#utility.yul\":2092:2131   */\n      tag_120\n        /* \"#utility.yul\":2125:2130   */\n      dup3\n        /* \"#utility.yul\":2092:2131   */\n      tag_54\n      jump\t// in\n    tag_120:\n        /* \"#utility.yul\":2147:2218   */\n      tag_121\n        /* \"#utility.yul\":2211:2217   */\n      dup2\n        /* \"#utility.yul\":2206:2209   */\n      dup6\n        /* \"#utility.yul\":2147:2218   */\n      tag_55\n      jump\t// in\n    tag_121:\n        /* \"#utility.yul\":2140:2218   */\n      swap4\n      pop\n        /* \"#utility.yul\":2227:2292   */\n      tag_122\n        /* \"#utility.yul\":2285:2291   */\n      dup2\n        /* \"#utility.yul\":2280:2283   */\n      dup6\n        /* \"#utility.yul\":2273:2277   */\n      0x20\n        /* \"#utility.yul\":2266:2271   */\n      dup7\n        /* \"#utility.yul\":2262:2278   */\n      add\n        /* \"#utility.yul\":2227:2292   */\n      tag_56\n      jump\t// in\n    tag_122:\n        /* \"#utility.yul\":2317:2346   */\n      tag_123\n        /* \"#utility.yul\":2339:2345   */\n      dup2\n        /* \"#utility.yul\":2317:2346   */\n      tag_57\n      jump\t// in\n    tag_123:\n        /* \"#utility.yul\":2312:2315   */\n      dup5\n        /* \"#utility.yul\":2308:2347   */\n      add\n        /* \"#utility.yul\":2301:2347   */\n      swap2\n      pop\n        /* \"#utility.yul\":2068:2353   */\n      pop\n        /* \"#utility.yul\":1976:2353   */\n      swap3\n      swap2\n      pop\n      pop\n      jump\t// out\n        /* \"#utility.yul\":2359:2485   */\n    tag_59:\n        /* \"#utility.yul\":2396:2403   */\n      0x00\n        /* \"#utility.yul\":2436:2478   */\n      0xffffffffffffffffffffffffffffffffffffffff\n        /* \"#utility.yul\":2429:2434   */\n      dup3\n        /* \"#utility.yul\":2425:2479   */\n      and\n        /* \"#utility.yul\":2414:2479   */\n      swap1\n      pop\n        /* \"#utility.yul\":2359:2485   */\n      swap2\n      swap1\n      pop\n      jump\t// out\n        /* \"#utility.yul\":2491:2587   */\n    tag_60:\n        /* \"#utility.yul\":2528:2535   */\n      0x00\n        /* \"#utility.yul\":2557:2581   */\n      tag_126\n        /* \"#utility.yul\":2575:2580   */\n      dup3\n        /* \"#utility.yul\":2557:2581   */\n      tag_59\n      jump\t// in\n    tag_126:\n        /* \"#utility.yul\":2546:2581   */\n      swap1\n      pop\n        /* \"#utility.yul\":2491:2587   */\n      swap2\n      swap1\n      pop\n      jump\t// out\n        /* \"#utility.yul\":2593:2711   */\n    tag_61:\n        /* \"#utility.yul\":2680:2704   */\n      tag_128\n        /* \"#utility.yul\":2698:2703   */\n      dup2\n        /* \"#utility.yul\":2680:2704   */\n      tag_60\n      jump\t// in\n    tag_128:\n        /* \"#utility.yul\":2675:2678   */\n      dup3\n        /* \"#utility.yul\":2668:2705   */\n      mstore\n        /* \"#utility.yul\":2593:2711   */\n      pop\n      pop\n      jump\t// out\n        /* \"#utility.yul\":2717:3349   */\n    tag_11:\n        /* \"#utility.yul\":2908:2912   */\n      0x00\n        /* \"#utility.yul\":2946:2949   */\n      0x80\n        /* \"#utility.yul\":2935:2944   */\n      dup3\n        /* \"#utility.yul\":2931:2950   */\n      add\n        /* \"#utility.yul\":2923:2950   */\n      swap1\n      pop\n        /* \"#utility.yul\":2960:3025   */\n      tag_130\n        /* \"#utility.yul\":3022:3023   */\n      0x00\n        /* \"#utility.yul\":3011:3020   */\n      dup4\n        /* \"#utility.yul\":3007:3024   */\n      add\n        /* \"#utility.yul\":2998:3004   */\n      dup8\n        /* \"#utility.yul\":2960:3025   */\n      tag_51\n      jump\t// in\n    tag_130:\n        /* \"#utility.yul\":3035:3107   */\n      tag_131\n        /* \"#utility.yul\":3103:3105   */\n      0x20\n        /* \"#utility.yul\":3092:3101   */\n      dup4\n        /* \"#utility.yul\":3088:3106   */\n      add\n        /* \"#utility.yul\":3079:3085   */\n      dup7\n        /* \"#utility.yul\":3035:3107   */\n      tag_53\n      jump\t// in\n    tag_131:\n        /* \"#utility.yul\":3154:3163   */\n      dup2\n        /* \"#utility.yul\":3148:3152   */\n      dup2\n        /* \"#utility.yul\":3144:3164   */\n      sub\n        /* \"#utility.yul\":3139:3141   */\n      0x40\n        /* \"#utility.yul\":3128:3137   */\n      dup4\n        /* \"#utility.yul\":3124:3142   */\n      add\n        /* \"#utility.yul\":3117:3165   */\n      mstore\n        /* \"#utility.yul\":3182:3260   */\n      tag_132\n        /* \"#utility.yul\":3255:3259   */\n      dup2\n        /* \"#utility.yul\":3246:3252   */\n      dup6\n        /* \"#utility.yul\":3182:3260   */\n      tag_58\n      jump\t// in\n    tag_132:\n        /* \"#utility.yul\":3174:3260   */\n      swap1\n      pop\n        /* \"#utility.yul\":3270:3342   */\n      tag_133\n        /* \"#utility.yul\":3338:3340   */\n      0x60\n        /* \"#utility.yul\":3327:3336   */\n      dup4\n        /* \"#utility.yul\":3323:3341   */\n      add\n        /* \"#utility.yul\":3314:3320   */\n      dup5\n        /* \"#utility.yul\":3270:3342   */\n      tag_61\n      jump\t// in\n    tag_133:\n        /* \"#utility.yul\":2717:3349   */\n      swap6\n      swap5\n      pop\n      pop\n      pop\n      pop\n      pop\n      jump\t// out\n        /* \"#utility.yul\":3355:3471   */\n    tag_62:\n        /* \"#utility.yul\":3425:3446   */\n      tag_135\n        /* \"#utility.yul\":3440:3445   */\n      dup2\n        /* \"#utility.yul\":3425:3446   */\n      tag_50\n      jump\t// in\n    tag_135:\n        /* \"#utility.yul\":3418:3423   */\n      dup2\n        /* \"#utility.yul\":3415:3447   */\n      eq\n        /* \"#utility.yul\":3405:3465   */\n      tag_136\n      jumpi\n        /* \"#utility.yul\":3461:3462   */\n      0x00\n        /* \"#utility.yul\":3458:3459   */\n      0x00\n        /* \"#utility.yul\":3451:3463   */\n      revert\n        /* \"#utility.yul\":3405:3465   */\n    tag_136:\n        /* \"#utility.yul\":3355:3471   */\n      pop\n      jump\t// out\n        /* \"#utility.yul\":3477:3610   */\n    tag_63:\n        /* \"#utility.yul\":3520:3525   */\n      0x00\n        /* \"#utility.yul\":3558:3564   */\n      dup2\n        /* \"#utility.yul\":3545:3565   */\n      calldataload\n        /* \"#utility.yul\":3536:3565   */\n      swap1\n      pop\n        /* \"#utility.yul\":3574:3604   */\n      tag_138\n        /* \"#utility.yul\":3598:3603   */\n      dup2\n        /* \"#utility.yul\":3574:3604   */\n      tag_62\n      jump\t// in\n    tag_138:\n        /* \"#utility.yul\":3477:3610   */\n      swap3\n      swap2\n      pop\n      pop\n      jump\t// out\n        /* \"#utility.yul\":3616:3738   */\n    tag_64:\n        /* \"#utility.yul\":3689:3713   */\n      tag_140\n        /* \"#utility.yul\":3707:3712   */\n      dup2\n        /* \"#utility.yul\":3689:3713   */\n      tag_52\n      jump\t// in\n    tag_140:\n        /* \"#utility.yul\":3682:3687   */\n      dup2\n        /* \"#utility.yul\":3679:3714   */\n      eq\n        /* \"#utility.yul\":3669:3732   */\n      tag_141\n      jumpi\n        /* \"#utility.yul\":3728:3729   */\n      0x00\n        /* \"#utility.yul\":3725:3726   */\n      0x00\n        /* \"#utility.yul\":3718:3730   */\n      revert\n        /* \"#utility.yul\":3669:3732   */\n    tag_141:\n        /* \"#utility.yul\":3616:3738   */\n      pop\n      jump\t// out\n        /* \"#utility.yul\":3744:3883   */\n    tag_65:\n        /* \"#utility.yul\":3790:3795   */\n      0x00\n        /* \"#utility.yul\":3828:3834   */\n      dup2\n        /* \"#utility.yul\":3815:3835   */\n      calldataload\n        /* \"#utility.yul\":3806:3835   */\n      swap1\n      pop\n        /* \"#utility.yul\":3844:3877   */\n      tag_143\n        /* \"#utility.yul\":3871:3876   */\n      dup2\n        /* \"#utility.yul\":3844:3877   */\n      tag_64\n      jump\t// in\n    tag_143:\n        /* \"#utility.yul\":3744:3883   */\n      swap3\n      swap2\n      pop\n      pop\n      jump\t// out\n        /* \"#utility.yul\":3889:4006   */\n    tag_66:\n        /* \"#utility.yul\":3998:3999   */\n      0x00\n        /* \"#utility.yul\":3995:3996   */\n      0x00\n        /* \"#utility.yul\":3988:4000   */\n      revert\n        /* \"#utility.yul\":4012:4129   */\n    tag_67:\n        /* \"#utility.yul\":4121:4122   */\n      0x00\n        /* \"#utility.yul\":4118:4119   */\n      0x00\n        /* \"#utility.yul\":4111:4123   */\n      revert\n        /* \"#utility.yul\":4135:4315   */\n    tag_68:\n        /* \"#utility.yul\":4183:4260   */\n      0x4e487b7100000000000000000000000000000000000000000000000000000000\n        /* \"#utility.yul\":4180:4181   */\n      0x00\n        /* \"#utility.yul\":4173:4261   */\n      mstore\n        /* \"#utility.yul\":4280:4284   */\n      0x41\n        /* \"#utility.yul\":4277:4278   */\n      0x04\n        /* \"#utility.yul\":4270:4285   */\n      mstore\n        /* \"#utility.yul\":4304:4308   */\n      0x24\n        /* \"#utility.yul\":4301:4302   */\n      0x00\n        /* \"#utility.yul\":4294:4309   */\n      revert\n        /* \"#utility.yul\":4321:4602   */\n    tag_69:\n        /* \"#utility.yul\":4404:4431   */\n      tag_148\n        /* \"#utility.yul\":4426:4430   */\n      dup3\n        /* \"#utility.yul\":4404:4431   */\n      tag_57\n      jump\t// in\n    tag_148:\n        /* \"#utility.yul\":4396:4402   */\n      dup2\n        /* \"#utility.yul\":4392:4432   */\n      add\n        /* \"#utility.yul\":4534:4540   */\n      dup2\n        /* \"#utility.yul\":4522:4532   */\n      dup2\n        /* \"#utility.yul\":4519:4541   */\n      lt\n        /* \"#utility.yul\":4498:4516   */\n      0xffffffffffffffff\n        /* \"#utility.yul\":4486:4496   */\n      dup3\n        /* \"#utility.yul\":4483:4517   */\n      gt\n        /* \"#utility.yul\":4480:4542   */\n      or\n        /* \"#utility.yul\":4477:4565   */\n      iszero\n      tag_149\n      jumpi\n        /* \"#utility.yul\":4545:4563   */\n      tag_150\n      tag_68\n      jump\t// in\n    tag_150:\n        /* \"#utility.yul\":4477:4565   */\n    tag_149:\n        /* \"#utility.yul\":4585:4595   */\n      dup1\n        /* \"#utility.yul\":4581:4583   */\n      0x40\n        /* \"#utility.yul\":4574:4596   */\n      mstore\n        /* \"#utility.yul\":4364:4602   */\n      pop\n        /* \"#utility.yul\":4321:4602   */\n      pop\n      pop\n      jump\t// out\n        /* \"#utility.yul\":4608:4737   */\n    tag_70:\n        /* \"#utility.yul\":4642:4648   */\n      0x00\n        /* \"#utility.yul\":4669:4689   */\n      tag_152\n      tag_44\n      jump\t// in\n    tag_152:\n        /* \"#utility.yul\":4659:4689   */\n      swap1\n      pop\n        /* \"#utility.yul\":4698:4731   */\n      tag_153\n        /* \"#utility.yul\":4726:4730   */\n      dup3\n        /* \"#utility.yul\":4718:4724   */\n      dup3\n        /* \"#utility.yul\":4698:4731   */\n      tag_69\n      jump\t// in\n    tag_153:\n        /* \"#utility.yul\":4608:4737   */\n      swap2\n      swap1\n      pop\n      jump\t// out\n        /* \"#utility.yul\":4743:5051   */\n    tag_71:\n        /* \"#utility.yul\":4805:4809   */\n      0x00\n        /* \"#utility.yul\":4895:4913   */\n      0xffffffffffffffff\n        /* \"#utility.yul\":4887:4893   */\n      dup3\n        /* \"#utility.yul\":4884:4914   */\n      gt\n        /* \"#utility.yul\":4881:4937   */\n      iszero\n      tag_155\n      jumpi\n        /* \"#utility.yul\":4917:4935   */\n      tag_156\n      tag_68\n      jump\t// in\n    tag_156:\n        /* \"#utility.yul\":4881:4937   */\n    tag_155:\n        /* \"#utility.yul\":4955:4984   */\n      tag_157\n        /* \"#utility.yul\":4977:4983   */\n      dup3\n        /* \"#utility.yul\":4955:4984   */\n      tag_57\n      jump\t// in\n    tag_157:\n        /* \"#utility.yul\":4947:4984   */\n      swap1\n      pop\n        /* \"#utility.yul\":5039:5043   */\n      0x20\n        /* \"#utility.yul\":5033:5037   */\n      dup2\n        /* \"#utility.yul\":5029:5044   */\n      add\n        /* \"#utility.yul\":5021:5044   */\n      swap1\n      pop\n        /* \"#utility.yul\":4743:5051   */\n      swap2\n      swap1\n      pop\n      jump\t// out\n        /* \"#utility.yul\":5057:5205   */\n    tag_72:\n        /* \"#utility.yul\":5155:5161   */\n      dup3\n        /* \"#utility.yul\":5150:5153   */\n      dup2\n        /* \"#utility.yul\":5145:5148   */\n      dup4\n        /* \"#utility.yul\":5132:5162   */\n      calldatacopy\n        /* \"#utility.yul\":5196:5197   */\n      0x00\n        /* \"#utility.yul\":5187:5193   */\n      dup4\n        /* \"#utility.yul\":5182:5185   */\n      dup4\n        /* \"#utility.yul\":5178:5194   */\n      add\n        /* \"#utility.yul\":5171:5198   */\n      mstore\n        /* \"#utility.yul\":5057:5205   */\n      pop\n      pop\n      pop\n      jump\t// out\n        /* \"#utility.yul\":5211:5636   */\n    tag_73:\n        /* \"#utility.yul\":5289:5294   */\n      0x00\n        /* \"#utility.yul\":5314:5380   */\n      tag_160\n        /* \"#utility.yul\":5330:5379   */\n      tag_161\n        /* \"#utility.yul\":5372:5378   */\n      dup5\n        /* \"#utility.yul\":5330:5379   */\n      tag_71\n      jump\t// in\n    tag_161:\n        /* \"#utility.yul\":5314:5380   */\n      tag_70\n      jump\t// in\n    tag_160:\n        /* \"#utility.yul\":5305:5380   */\n      swap1\n      pop\n        /* \"#utility.yul\":5403:5409   */\n      dup3\n        /* \"#utility.yul\":5396:5401   */\n      dup2\n        /* \"#utility.yul\":5389:5410   */\n      mstore\n        /* \"#utility.yul\":5441:5445   */\n      0x20\n        /* \"#utility.yul\":5434:5439   */\n      dup2\n        /* \"#utility.yul\":5430:5446   */\n      add\n        /* \"#utility.yul\":5479:5482   */\n      dup5\n        /* \"#utility.yul\":5470:5476   */\n      dup5\n        /* \"#utility.yul\":5465:5468   */\n      dup5\n        /* \"#utility.yul\":5461:5477   */\n      add\n        /* \"#utility.yul\":5458:5483   */\n      gt\n        /* \"#utility.yul\":5455:5567   */\n      iszero\n      tag_162\n      jumpi\n        /* \"#utility.yul\":5486:5565   */\n      tag_163\n      tag_67\n      jump\t// in\n    tag_163:\n        /* \"#utility.yul\":5455:5567   */\n    tag_162:\n        /* \"#utility.yul\":5576:5630   */\n      tag_164\n        /* \"#utility.yul\":5623:5629   */\n      dup5\n        /* \"#utility.yul\":5618:5621   */\n      dup3\n        /* \"#utility.yul\":5613:5616   */\n      dup6\n        /* \"#utility.yul\":5576:5630   */\n      tag_72\n      jump\t// in\n    tag_164:\n        /* \"#utility.yul\":5295:5636   */\n      pop\n        /* \"#utility.yul\":5211:5636   */\n      swap4\n      swap3\n      pop\n      pop\n      pop\n      jump\t// out\n        /* \"#utility.yul\":5656:5996   */\n    tag_74:\n        /* \"#utility.yul\":5712:5717   */\n      0x00\n        /* \"#utility.yul\":5761:5764   */\n      dup3\n        /* \"#utility.yul\":5754:5758   */\n      0x1f\n        /* \"#utility.yul\":5746:5752   */\n      dup4\n        /* \"#utility.yul\":5742:5759   */\n      add\n        /* \"#utility.yul\":5738:5765   */\n      slt\n        /* \"#utility.yul\":5728:5850   */\n      tag_166\n      jumpi\n        /* \"#utility.yul\":5769:5848   */\n      tag_167\n      tag_66\n      jump\t// in\n    tag_167:\n        /* \"#utility.yul\":5728:5850   */\n    tag_166:\n        /* \"#utility.yul\":5886:5892   */\n      dup2\n        /* \"#utility.yul\":5873:5893   */\n      calldataload\n        /* \"#utility.yul\":5911:5990   */\n      tag_168\n        /* \"#utility.yul\":5986:5989   */\n      dup5\n        /* \"#utility.yul\":5978:5984   */\n      dup3\n        /* \"#utility.yul\":5971:5975   */\n      0x20\n        /* \"#utility.yul\":5963:5969   */\n      dup7\n        /* \"#utility.yul\":5959:5976   */\n      add\n        /* \"#utility.yul\":5911:5990   */\n      tag_73\n      jump\t// in\n    tag_168:\n        /* \"#utility.yul\":5902:5990   */\n      swap2\n      pop\n        /* \"#utility.yul\":5718:5996   */\n      pop\n        /* \"#utility.yul\":5656:5996   */\n      swap3\n      swap2\n      pop\n      pop\n      jump\t// out\n        /* \"#utility.yul\":6002:6941   */\n    tag_14:\n        /* \"#utility.yul\":6095:6101   */\n      0x00\n        /* \"#utility.yul\":6103:6109   */\n      0x00\n        /* \"#utility.yul\":6111:6117   */\n      0x00\n        /* \"#utility.yul\":6119:6125   */\n      0x00\n        /* \"#utility.yul\":6168:6171   */\n      0x80\n        /* \"#utility.yul\":6156:6165   */\n      dup6\n        /* \"#utility.yul\":6147:6154   */\n      dup8\n        /* \"#utility.yul\":6143:6166   */\n      sub\n        /* \"#utility.yul\":6139:6172   */\n      slt\n        /* \"#utility.yul\":6136:6256   */\n      iszero\n      tag_170\n      jumpi\n        /* \"#utility.yul\":6175:6254   */\n      tag_171\n      tag_45\n      jump\t// in\n    tag_171:\n        /* \"#utility.yul\":6136:6256   */\n    tag_170:\n        /* \"#utility.yul\":6295:6296   */\n      0x00\n        /* \"#utility.yul\":6320:6373   */\n      tag_172\n        /* \"#utility.yul\":6365:6372   */\n      dup8\n        /* \"#utility.yul\":6356:6362   */\n      dup3\n        /* \"#utility.yul\":6345:6354   */\n      dup9\n        /* \"#utility.yul\":6341:6363   */\n      add\n        /* \"#utility.yul\":6320:6373   */\n      tag_49\n      jump\t// in\n    tag_172:\n        /* \"#utility.yul\":6310:6373   */\n      swap5\n      pop\n        /* \"#utility.yul\":6266:6383   */\n      pop\n        /* \"#utility.yul\":6422:6424   */\n      0x20\n        /* \"#utility.yul\":6448:6498   */\n      tag_173\n        /* \"#utility.yul\":6490:6497   */\n      dup8\n        /* \"#utility.yul\":6481:6487   */\n      dup3\n        /* \"#utility.yul\":6470:6479   */\n      dup9\n        /* \"#utility.yul\":6466:6488   */\n      add\n        /* \"#utility.yul\":6448:6498   */\n      tag_63\n      jump\t// in\n    tag_173:\n        /* \"#utility.yul\":6438:6498   */\n      swap4\n      pop\n        /* \"#utility.yul\":6393:6508   */\n      pop\n        /* \"#utility.yul\":6547:6549   */\n      0x40\n        /* \"#utility.yul\":6573:6626   */\n      tag_174\n        /* \"#utility.yul\":6618:6625   */\n      dup8\n        /* \"#utility.yul\":6609:6615   */\n      dup3\n        /* \"#utility.yul\":6598:6607   */\n      dup9\n        /* \"#utility.yul\":6594:6616   */\n      add\n        /* \"#utility.yul\":6573:6626   */\n      tag_65\n      jump\t// in\n    tag_174:\n        /* \"#utility.yul\":6563:6626   */\n      swap3\n      pop\n        /* \"#utility.yul\":6518:6636   */\n      pop\n        /* \"#utility.yul\":6703:6705   */\n      0x60\n        /* \"#utility.yul\":6692:6701   */\n      dup6\n        /* \"#utility.yul\":6688:6706   */\n      add\n        /* \"#utility.yul\":6675:6707   */\n      calldataload\n        /* \"#utility.yul\":6734:6752   */\n      0xffffffffffffffff\n        /* \"#utility.yul\":6726:6732   */\n      dup2\n        /* \"#utility.yul\":6723:6753   */\n      gt\n        /* \"#utility.yul\":6720:6837   */\n      iszero\n      tag_175\n      jumpi\n        /* \"#utility.yul\":6756:6835   */\n      tag_176\n      tag_46\n      jump\t// in\n    tag_176:\n        /* \"#utility.yul\":6720:6837   */\n    tag_175:\n        /* \"#utility.yul\":6861:6924   */\n      tag_177\n        /* \"#utility.yul\":6916:6923   */\n      dup8\n        /* \"#utility.yul\":6907:6913   */\n      dup3\n        /* \"#utility.yul\":6896:6905   */\n      dup9\n        /* \"#utility.yul\":6892:6914   */\n      add\n        /* \"#utility.yul\":6861:6924   */\n      tag_74\n      jump\t// in\n    tag_177:\n        /* \"#utility.yul\":6851:6924   */\n      swap2\n      pop\n        /* \"#utility.yul\":6646:6934   */\n      pop\n        /* \"#utility.yul\":6002:6941   */\n      swap3\n      swap6\n      swap2\n      swap5\n      pop\n      swap3\n      pop\n      jump\t// out\n        /* \"#utility.yul\":6947:7789   */\n    tag_20:\n        /* \"#utility.yul\":7188:7192   */\n      0x00\n        /* \"#utility.yul\":7226:7229   */\n      0xc0\n        /* \"#utility.yul\":7215:7224   */\n      dup3\n        /* \"#utility.yul\":7211:7230   */\n      add\n        /* \"#utility.yul\":7203:7230   */\n      swap1\n      pop\n        /* \"#utility.yul\":7240:7305   */\n      tag_179\n        /* \"#utility.yul\":7302:7303   */\n      0x00\n        /* \"#utility.yul\":7291:7300   */\n      dup4\n        /* \"#utility.yul\":7287:7304   */\n      add\n        /* \"#utility.yul\":7278:7284   */\n      dup10\n        /* \"#utility.yul\":7240:7305   */\n      tag_51\n      jump\t// in\n    tag_179:\n        /* \"#utility.yul\":7315:7387   */\n      tag_180\n        /* \"#utility.yul\":7383:7385   */\n      0x20\n        /* \"#utility.yul\":7372:7381   */\n      dup4\n        /* \"#utility.yul\":7368:7386   */\n      add\n        /* \"#utility.yul\":7359:7365   */\n      dup9\n        /* \"#utility.yul\":7315:7387   */\n      tag_53\n      jump\t// in\n    tag_180:\n        /* \"#utility.yul\":7397:7469   */\n      tag_181\n        /* \"#utility.yul\":7465:7467   */\n      0x40\n        /* \"#utility.yul\":7454:7463   */\n      dup4\n        /* \"#utility.yul\":7450:7468   */\n      add\n        /* \"#utility.yul\":7441:7447   */\n      dup8\n        /* \"#utility.yul\":7397:7469   */\n      tag_53\n      jump\t// in\n    tag_181:\n        /* \"#utility.yul\":7516:7525   */\n      dup2\n        /* \"#utility.yul\":7510:7514   */\n      dup2\n        /* \"#utility.yul\":7506:7526   */\n      sub\n        /* \"#utility.yul\":7501:7503   */\n      0x60\n        /* \"#utility.yul\":7490:7499   */\n      dup4\n        /* \"#utility.yul\":7486:7504   */\n      add\n        /* \"#utility.yul\":7479:7527   */\n      mstore\n        /* \"#utility.yul\":7544:7622   */\n      tag_182\n        /* \"#utility.yul\":7617:7621   */\n      dup2\n        /* \"#utility.yul\":7608:7614   */\n      dup7\n        /* \"#utility.yul\":7544:7622   */\n      tag_58\n      jump\t// in\n    tag_182:\n        /* \"#utility.yul\":7536:7622   */\n      swap1\n      pop\n        /* \"#utility.yul\":7632:7705   */\n      tag_183\n        /* \"#utility.yul\":7700:7703   */\n      0x80\n        /* \"#utility.yul\":7689:7698   */\n      dup4\n        /* \"#utility.yul\":7685:7704   */\n      add\n        /* \"#utility.yul\":7676:7682   */\n      dup6\n        /* \"#utility.yul\":7632:7705   */\n      tag_61\n      jump\t// in\n    tag_183:\n        /* \"#utility.yul\":7715:7782   */\n      tag_184\n        /* \"#utility.yul\":7777:7780   */\n      0xa0\n        /* \"#utility.yul\":7766:7775   */\n      dup4\n        /* \"#utility.yul\":7762:7781   */\n      add\n        /* \"#utility.yul\":7753:7759   */\n      dup5\n        /* \"#utility.yul\":7715:7782   */\n      tag_51\n      jump\t// in\n    tag_184:\n        /* \"#utility.yul\":6947:7789   */\n      swap8\n      swap7\n      pop\n      pop\n      pop\n      pop\n      pop\n      pop\n      pop\n      jump\t// out\n        /* \"#utility.yul\":7795:7974   */\n    tag_75:\n        /* \"#utility.yul\":7935:7966   */\n      0x4e6f207265636f726420666f756e6420666f7220746869732068617368000000\n        /* \"#utility.yul\":7931:7932   */\n      0x00\n        /* \"#utility.yul\":7923:7929   */\n      dup3\n        /* \"#utility.yul\":7919:7933   */\n      add\n        /* \"#utility.yul\":7912:7967   */\n      mstore\n        /* \"#utility.yul\":7795:7974   */\n      pop\n      jump\t// out\n        /* \"#utility.yul\":7980:8346   */\n    tag_76:\n        /* \"#utility.yul\":8122:8125   */\n      0x00\n        /* \"#utility.yul\":8143:8210   */\n      tag_187\n        /* \"#utility.yul\":8207:8209   */\n      0x1d\n        /* \"#utility.yul\":8202:8205   */\n      dup4\n        /* \"#utility.yul\":8143:8210   */\n      tag_55\n      jump\t// in\n    tag_187:\n        /* \"#utility.yul\":8136:8210   */\n      swap2\n      pop\n        /* \"#utility.yul\":8219:8312   */\n      tag_188\n        /* \"#utility.yul\":8308:8311   */\n      dup3\n        /* \"#utility.yul\":8219:8312   */\n      tag_75\n      jump\t// in\n    tag_188:\n        /* \"#utility.yul\":8337:8339   */\n      0x20\n        /* \"#utility.yul\":8332:8335   */\n      dup3\n        /* \"#utility.yul\":8328:8340   */\n      add\n        /* \"#utility.yul\":8321:8340   */\n      swap1\n      pop\n        /* \"#utility.yul\":7980:8346   */\n      swap2\n      swap1\n      pop\n      jump\t// out\n        /* \"#utility.yul\":8352:8771   */\n    tag_24:\n        /* \"#utility.yul\":8518:8522   */\n      0x00\n        /* \"#utility.yul\":8556:8558   */\n      0x20\n        /* \"#utility.yul\":8545:8554   */\n      dup3\n        /* \"#utility.yul\":8541:8559   */\n      add\n        /* \"#utility.yul\":8533:8559   */\n      swap1\n      pop\n        /* \"#utility.yul\":8605:8614   */\n      dup2\n        /* \"#utility.yul\":8599:8603   */\n      dup2\n        /* \"#utility.yul\":8595:8615   */\n      sub\n        /* \"#utility.yul\":8591:8592   */\n      0x00\n        /* \"#utility.yul\":8580:8589   */\n      dup4\n        /* \"#utility.yul\":8576:8593   */\n      add\n        /* \"#utility.yul\":8569:8616   */\n      mstore\n        /* \"#utility.yul\":8633:8764   */\n      tag_190\n        /* \"#utility.yul\":8759:8763   */\n      dup2\n        /* \"#utility.yul\":8633:8764   */\n      tag_76\n      jump\t// in\n    tag_190:\n        /* \"#utility.yul\":8625:8764   */\n      swap1\n      pop\n        /* \"#utility.yul\":8352:8771   */\n      swap2\n      swap1\n      pop\n      jump\t// out\n        /* \"#utility.yul\":8777:8957   */\n    tag_77:\n        /* \"#utility.yul\":8825:8902   */\n      0x4e487b7100000000000000000000000000000000000000000000000000000000\n        /* \"#utility.yul\":8822:8823   */\n      0x00\n        /* \"#utility.yul\":8815:8903   */\n      mstore\n        /* \"#utility.yul\":8922:8926   */\n      0x22\n        /* \"#utility.yul\":8919:8920   */\n      0x04\n        /* \"#utility.yul\":8912:8927   */\n      mstore\n        /* \"#utility.yul\":8946:8950   */\n      0x24\n        /* \"#utility.yul\":8943:8944   */\n      0x00\n        /* \"#utility.yul\":8936:8951   */\n      revert\n        /* \"#utility.yul\":8963:9283   */\n    tag_26:\n        /* \"#utility.yul\":9007:9013   */\n      0x00\n        /* \"#utility.yul\":9044:9045   */\n      0x02\n        /* \"#utility.yul\":9038:9042   */\n      dup3\n        /* \"#utility.yul\":9034:9046   */\n      div\n        /* \"#utility.yul\":9024:9046   */\n      swap1\n      pop\n        /* \"#utility.yul\":9091:9092   */\n      0x01\n        /* \"#utility.yul\":9085:9089   */\n      dup3\n        /* \"#utility.yul\":9081:9093   */\n      and\n        /* \"#utility.yul\":9112:9130   */\n      dup1\n        /* \"#utility.yul\":9102:9183   */\n      tag_193\n      jumpi\n        /* \"#utility.yul\":9168:9172   */\n      0x7f\n        /* \"#utility.yul\":9160:9166   */\n      dup3\n        /* \"#utility.yul\":9156:9173   */\n      and\n        /* \"#utility.yul\":9146:9173   */\n      swap2\n      pop\n        /* \"#utility.yul\":9102:9183   */\n    tag_193:\n        /* \"#utility.yul\":9230:9232   */\n      0x20\n        /* \"#utility.yul\":9222:9228   */\n      dup3\n        /* \"#utility.yul\":9219:9233   */\n      lt\n        /* \"#utility.yul\":9199:9217   */\n      dup2\n        /* \"#utility.yul\":9196:9234   */\n      sub\n        /* \"#utility.yul\":9193:9277   */\n      tag_194\n      jumpi\n        /* \"#utility.yul\":9249:9267   */\n      tag_195\n      tag_77\n      jump\t// in\n    tag_195:\n        /* \"#utility.yul\":9193:9277   */\n    tag_194:\n        /* \"#utility.yul\":9014:9283   */\n      pop\n        /* \"#utility.yul\":8963:9283   */\n      swap2\n      swap1\n      pop\n      jump\t// out\n        /* \"#utility.yul\":9289:9512   */\n    tag_78:\n        /* \"#utility.yul\":9429:9463   */\n      0x5265636f726420616c72656164792065786973747320666f7220746869732068\n        /* \"#utility.yul\":9425:9426   */\n      0x00\n        /* \"#utility.yul\":9417:9423   */\n      dup3\n        /* \"#utility.yul\":9413:9427   */\n      add\n        /* \"#utility.yul\":9406:9464   */\n      mstore\n        /* \"#utility.yul\":9498:9504   */\n      0x6173682100000000000000000000000000000000000000000000000000000000\n        /* \"#utility.yul\":9493:9495   */\n      0x20\n        /* \"#utility.yul\":9485:9491   */\n      dup3\n        /* \"#utility.yul\":9481:9496   */\n      add\n        /* \"#utility.yul\":9474:9505   */\n      mstore\n        /* \"#utility.yul\":9289:9512   */\n      pop\n      jump\t// out\n        /* \"#utility.yul\":9518:9884   */\n    tag_79:\n        /* \"#utility.yul\":9660:9663   */\n      0x00\n        /* \"#utility.yul\":9681:9748   */\n      tag_198\n        /* \"#utility.yul\":9745:9747   */\n      0x24\n        /* \"#utility.yul\":9740:9743   */\n      dup4\n        /* \"#utility.yul\":9681:9748   */\n      tag_55\n      jump\t// in\n    tag_198:\n        /* \"#utility.yul\":9674:9748   */\n      swap2\n      pop\n        /* \"#utility.yul\":9757:9850   */\n      tag_199\n        /* \"#utility.yul\":9846:9849   */\n      dup3\n        /* \"#utility.yul\":9757:9850   */\n      tag_78\n      jump\t// in\n    tag_199:\n        /* \"#utility.yul\":9875:9877   */\n      0x40\n        /* \"#utility.yul\":9870:9873   */\n      dup3\n        /* \"#utility.yul\":9866:9878   */\n      add\n        /* \"#utility.yul\":9859:9878   */\n      swap1\n      pop\n        /* \"#utility.yul\":9518:9884   */\n      swap2\n      swap1\n      pop\n      jump\t// out\n        /* \"#utility.yul\":9890:10309   */\n    tag_34:\n        /* \"#utility.yul\":10056:10060   */\n      0x00\n        /* \"#utility.yul\":10094:10096   */\n      0x20\n        /* \"#utility.yul\":10083:10092   */\n      dup3\n        /* \"#utility.yul\":10079:10097   */\n      add\n        /* \"#utility.yul\":10071:10097   */\n      swap1\n      pop\n        /* \"#utility.yul\":10143:10152   */\n      dup2\n        /* \"#utility.yul\":10137:10141   */\n      dup2\n        /* \"#utility.yul\":10133:10153   */\n      sub\n        /* \"#utility.yul\":10129:10130   */\n      0x00\n        /* \"#utility.yul\":10118:10127   */\n      dup4\n        /* \"#utility.yul\":10114:10131   */\n      add\n        /* \"#utility.yul\":10107:10154   */\n      mstore\n        /* \"#utility.yul\":10171:10302   */\n      tag_201\n        /* \"#utility.yul\":10297:10301   */\n      dup2\n        /* \"#utility.yul\":10171:10302   */\n      tag_79\n      jump\t// in\n    tag_201:\n        /* \"#utility.yul\":10163:10302   */\n      swap1\n      pop\n        /* \"#utility.yul\":9890:10309   */\n      swap2\n      swap1\n      pop\n      jump\t// out\n        /* \"#utility.yul\":10315:10456   */\n    tag_80:\n        /* \"#utility.yul\":10364:10368   */\n      0x00\n        /* \"#utility.yul\":10387:10390   */\n      dup2\n        /* \"#utility.yul\":10379:10390   */\n      swap1\n      pop\n        /* \"#utility.yul\":10410:10413   */\n      dup2\n        /* \"#utility.yul\":10407:10408   */\n      0x00\n        /* \"#utility.yul\":10400:10414   */\n      mstore\n        /* \"#utility.yul\":10444:10448   */\n      0x20\n        /* \"#utility.yul\":10441:10442   */\n      0x00\n        /* \"#utility.yul\":10431:10449   */\n      keccak256\n        /* \"#utility.yul\":10423:10449   */\n      swap1\n      pop\n        /* \"#utility.yul\":10315:10456   */\n      swap2\n      swap1\n      pop\n      jump\t// out\n        /* \"#utility.yul\":10462:10555   */\n    tag_81:\n        /* \"#utility.yul\":10499:10505   */\n      0x00\n        /* \"#utility.yul\":10546:10548   */\n      0x20\n        /* \"#utility.yul\":10541:10543   */\n      0x1f\n        /* \"#utility.yul\":10534:10539   */\n      dup4\n        /* \"#utility.yul\":10530:10544   */\n      add\n        /* \"#utility.yul\":10526:10549   */\n      div\n        /* \"#utility.yul\":10516:10549   */\n      swap1\n      pop\n        /* \"#utility.yul\":10462:10555   */\n      swap2\n      swap1\n      pop\n      jump\t// out\n        /* \"#utility.yul\":10561:10668   */\n    tag_82:\n        /* \"#utility.yul\":10605:10613   */\n      0x00\n        /* \"#utility.yul\":10655:10660   */\n      dup3\n        /* \"#utility.yul\":10649:10653   */\n      dup3\n        /* \"#utility.yul\":10645:10661   */\n      shl\n        /* \"#utility.yul\":10624:10661   */\n      swap1\n      pop\n        /* \"#utility.yul\":10561:10668   */\n      swap3\n      swap2\n      pop\n      pop\n      jump\t// out\n        /* \"#utility.yul\":10674:11067   */\n    tag_83:\n        /* \"#utility.yul\":10743:10749   */\n      0x00\n        /* \"#utility.yul\":10793:10794   */\n      0x08\n        /* \"#utility.yul\":10781:10791   */\n      dup4\n        /* \"#utility.yul\":10777:10795   */\n      mul\n        /* \"#utility.yul\":10816:10913   */\n      tag_206\n        /* \"#utility.yul\":10846:10912   */\n      0xffffffffffffffffffffffffffffffffffffffffffffffffffffffffffffffff\n        /* \"#utility.yul\":10835:10844   */\n      dup3\n        /* \"#utility.yul\":10816:10913   */\n      tag_82\n      jump\t// in\n    tag_206:\n        /* \"#utility.yul\":10934:10973   */\n      tag_207\n        /* \"#utility.yul\":10964:10972   */\n      dup7\n        /* \"#utility.yul\":10953:10962   */\n      dup4\n        /* \"#utility.yul\":10934:10973   */\n      tag_82\n      jump\t// in\n    tag_207:\n        /* \"#utility.yul\":10922:10973   */\n      swap6\n      pop\n        /* \"#utility.yul\":11006:11010   */\n      dup1\n        /* \"#utility.yul\":11002:11011   */\n      not\n        /* \"#utility.yul\":10995:11000   */\n      dup5\n        /* \"#utility.yul\":10991:11012   */\n      and\n        /* \"#utility.yul\":10982:11012   */\n      swap4\n      pop\n        /* \"#utility.yul\":11055:11059   */\n      dup1\n        /* \"#utility.yul\":11045:11053   */\n      dup7\n        /* \"#utility.yul\":11041:11060   */\n      and\n        /* \"#utility.yul\":11034:11039   */\n      dup5\n        /* \"#utility.yul\":11031:11061   */\n      or\n        /* \"#utility.yul\":11021:11061   */\n      swap3\n      pop\n        /* \"#utility.yul\":10750:11067   */\n      pop\n      pop\n        /* \"#utility.yul\":10674:11067   */\n      swap4\n      swap3\n      pop\n      pop\n      pop\n      jump\t// out\n        /* \"#utility.yul\":11073:11133   */\n    tag_84:\n        /* \"#utility.yul\":11101:11104   */\n      0x00\n        /* \"#utility.yul\":11122:11127   */\n      dup2\n        /* \"#utility.yul\":11115:11127   */\n      swap1\n      pop\n        /* \"#utility.yul\":11073:11133   */\n      swap2\n      swap1\n      pop\n      jump\t// out\n        /* \"#utility.yul\":11139:11281   */\n    tag_85:\n        /* \"#utility.yul\":11189:11198   */\n      0x00\n        /* \"#utility.yul\":11222:11275   */\n      tag_210\n        /* \"#utility.yul\":11240:11274   */\n      tag_211\n        /* \"#utility.yul\":11249:11273   */\n      tag_212\n        /* \"#utility.yul\":11267:11272   */\n      dup5\n        /* \"#utility.yul\":11249:11273   */\n      tag_52\n      jump\t// in\n    tag_212:\n        /* \"#utility.yul\":11240:11274   */\n      tag_84\n      jump\t// in\n    tag_211:\n        /* \"#utility.yul\":11222:11275   */\n      tag_52\n      jump\t// in\n    tag_210:\n        /* \"#utility.yul\":11209:11275   */\n      swap1\n      pop\n        /* \"#utility.yul\":11139:11281   */\n      swap2\n      swap1\n      pop\n      jump\t// out\n        /* \"#utility.yul\":11287:11362   */\n    tag_86:\n        /* \"#utility.yul\":11330:11333   */\n      0x00\n        /* \"#utility.yul\":11351:11356   */\n      dup2\n        /* \"#utility.yul\":11344:11356   */\n      swap1\n      pop\n        /* \"#utility.yul\":11287:11362   */\n      swap2\n      swap1\n      pop\n      jump\t// out\n        /* \"#utility.yul\":11368:11637   */\n    tag_87:\n        /* \"#utility.yul\":11478:11517   */\n      tag_215\n        /* \"#utility.yul\":11509:11516   */\n      dup4\n        /* \"#utility.yul\":11478:11517   */\n      tag_85\n      jump\t// in\n    tag_215:\n        /* \"#utility.yul\":11539:11630   */\n      tag_216\n        /* \"#utility.yul\":11588:11629   */\n      tag_217\n        /* \"#utility.yul\":11612:11628   */\n      dup3\n        /* \"#utility.yul\":11588:11629   */\n      tag_86\n      jump\t// in\n    tag_217:\n        /* \"#utility.yul\":11580:11586   */\n      dup5\n        /* \"#utility.yul\":11573:11577   */\n      dup5\n        /* \"#utility.yul\":11567:11578   */\n      sload\n        /* \"#utility.yul\":11539:11630   */\n      tag_83\n      jump\t// in\n    tag_216:\n        /* \"#utility.yul\":11533:11537   */\n      dup3\n        /* \"#utility.yul\":11526:11631   */\n      sstore\n        /* \"#utility.yul\":11444:11637   */\n      pop\n        /* \"#utility.yul\":11368:11637   */\n      pop\n      pop\n      pop\n      jump\t// out\n        /* \"#utility.yul\":11643:11716   */\n    tag_88:\n        /* \"#utility.yul\":11688:11691   */\n      0x00\n        /* \"#utility.yul\":11709:11710   */\n      0x00\n        /* \"#utility.yul\":11702:11710   */\n      swap1\n      pop\n        /* \"#utility.yul\":11643:11716   */\n      swap1\n      jump\t// out\n        /* \"#utility.yul\":11722:11911   */\n    tag_89:\n        /* \"#utility.yul\":11799:11831   */\n      tag_220\n      tag_88\n      jump\t// in\n    tag_220:\n        /* \"#utility.yul\":11840:11905   */\n      tag_221\n        /* \"#utility.yul\":11898:11904   */\n      dup2\n        /* \"#utility.yul\":11890:11896   */\n      dup5\n        /* \"#utility.yul\":11884:11888   */\n      dup5\n        /* \"#utility.yul\":11840:11905   */\n      tag_87\n      jump\t// in\n    tag_221:\n        /* \"#utility.yul\":11775:11911   */\n      pop\n        /* \"#utility.yul\":11722:11911   */\n      pop\n      pop\n      jump\t// out\n        /* \"#utility.yul\":11917:12103   */\n    tag_90:\n        /* \"#utility.yul\":11977:12097   */\n    tag_223:\n        /* \"#utility.yul\":11994:11997   */\n      dup2\n        /* \"#utility.yul\":11987:11992   */\n      dup2\n        /* \"#utility.yul\":11984:11998   */\n      lt\n        /* \"#utility.yul\":11977:12097   */\n      iszero\n      tag_225\n      jumpi\n        /* \"#utility.yul\":12048:12087   */\n      tag_226\n        /* \"#utility.yul\":12085:12086   */\n      0x00\n        /* \"#utility.yul\":12078:12083   */\n      dup3\n        /* \"#utility.yul\":12048:12087   */\n      tag_89\n      jump\t// in\n    tag_226:\n        /* \"#utility.yul\":12021:12022   */\n      0x01\n        /* \"#utility.yul\":12014:12019   */\n      dup2\n        /* \"#utility.yul\":12010:12023   */\n      add\n        /* \"#utility.yul\":12001:12023   */\n      swap1\n      pop\n        /* \"#utility.yul\":11977:12097   */\n      jump(tag_223)\n    tag_225:\n        /* \"#utility.yul\":11917:12103   */\n      pop\n      pop\n      jump\t// out\n        /* \"#utility.yul\":12109:12652   */\n    tag_91:\n        /* \"#utility.yul\":12210:12212   */\n      0x1f\n        /* \"#utility.yul\":12205:12208   */\n      dup3\n        /* \"#utility.yul\":12202:12213   */\n      gt\n        /* \"#utility.yul\":12199:12645   */\n      iszero\n      tag_228\n      jumpi\n        /* \"#utility.yul\":12244:12282   */\n      tag_229\n        /* \"#utility.yul\":12276:12281   */\n      dup2\n        /* \"#utility.yul\":12244:12282   */\n      tag_80\n      jump\t// in\n    tag_229:\n        /* \"#utility.yul\":12328:12357   */\n      tag_230\n        /* \"#utility.yul\":12346:12356   */\n      dup5\n        /* \"#utility.yul\":12328:12357   */\n      tag_81\n      jump\t// in\n    tag_230:\n        /* \"#utility.yul\":12318:12326   */\n      dup2\n        /* \"#utility.yul\":12314:12358   */\n      add\n        /* \"#utility.yul\":12511:12513   */\n      0x20\n        /* \"#utility.yul\":12499:12509   */\n      dup6\n        /* \"#utility.yul\":12496:12514   */\n      lt\n        /* \"#utility.yul\":12493:12542   */\n      iszero\n      tag_231\n      jumpi\n        /* \"#utility.yul\":12532:12540   */\n      dup2\n        /* \"#utility.yul\":12517:12540   */\n      swap1\n      pop\n        /* \"#utility.yul\":12493:12542   */\n    tag_231:\n        /* \"#utility.yul\":12555:12635   */\n      tag_232\n        /* \"#utility.yul\":12611:12633   */\n      tag_233\n        /* \"#utility.yul\":12629:12632   */\n      dup6\n        /* \"#utility.yul\":12611:12633   */\n      tag_81\n      jump\t// in\n    tag_233:\n        /* \"#utility.yul\":12601:12609   */\n      dup4\n        /* \"#utility.yul\":12597:12634   */\n      add\n        /* \"#utility.yul\":12584:12595   */\n      dup3\n        /* \"#utility.yul\":12555:12635   */\n      tag_90\n      jump\t// in\n    tag_232:\n        /* \"#utility.yul\":12214:12645   */\n      pop\n      pop\n        /* \"#utility.yul\":12199:12645   */\n    tag_228:\n        /* \"#utility.yul\":12109:12652   */\n      pop\n      pop\n      pop\n      jump\t// out\n        /* \"#utility.yul\":12658:12775   */\n    tag_92:\n        /* \"#utility.yul\":12712:12720   */\n      0x00\n        /* \"#utility.yul\":12762:12767   */\n      dup3\n        /* \"#utility.yul\":12756:12760   */\n      dup3\n        /* \"#utility.yul\":12752:12768   */\n      shr\n        /* \"#utility.yul\":12731:12768   */\n      swap1\n      pop\n        /* \"#utility.yul\":12658:12775   */\n      swap3\n      swap2\n      pop\n      pop\n      jump\t// out\n        /* \"#utility.yul\":12781:12950   */\n    tag_93:\n        /* \"#utility.yul\":12825:12831   */\n      0x00\n        /* \"#utility.yul\":12858:12909   */\n      tag_236\n        /* \"#utility.yul\":12906:12907   */\n      0x00\n        /* \"#utility.yul\":12902:12908   */\n      not\n        /* \"#utility.yul\":12894:12899   */\n      dup5\n        /* \"#utility.yul\":12891:12892   */\n      0x08\n        /* \"#utility.yul\":12887:12900   */\n      mul\n        /* \"#utility.yul\":12858:12909   */\n      tag_92\n      jump\t// in\n    tag_236:\n        /* \"#utility.yul\":12854:12910   */\n      not\n        /* \"#utility.yul\":12939:12943   */\n      dup1\n        /* \"#utility.yul\":12933:12937   */\n      dup4\n        /* \"#utility.yul\":12929:12944   */\n      and\n        /* \"#utility.yul\":12919:12944   */\n      swap2\n      pop\n        /* \"#utility.yul\":12832:12950   */\n      pop\n        /* \"#utility.yul\":12781:12950   */\n      swap3\n      swap2\n      pop\n      pop\n      jump\t// out\n        /* \"#utility.yul\":12955:13250   */\n    tag_94:\n        /* \"#utility.yul\":13031:13035   */\n      0x00\n        /* \"#utility.yul\":13177:13206   */\n      tag_238\n        /* \"#utility.yul\":13202:13205   */\n      dup4\n        /* \"#utility.yul\":13196:13200   */\n      dup4\n        /* \"#utility.yul\":13177:13206   */\n      tag_93\n      jump\t// in\n    tag_238:\n        /* \"#utility.yul\":13169:13206   */\n      swap2\n      pop\n        /* \"#utility.yul\":13239:13242   */\n      dup3\n        /* \"#utility.yul\":13236:13237   */\n      0x02\n        /* \"#utility.yul\":13232:13243   */\n      mul\n        /* \"#utility.yul\":13226:13230   */\n      dup3\n        /* \"#utility.yul\":13223:13244   */\n      or\n        /* \"#utility.yul\":13215:13244   */\n      swap1\n      pop\n        /* \"#utility.yul\":12955:13250   */\n      swap3\n      swap2\n      pop\n      pop\n      jump\t// out\n        /* \"#utility.yul\":13255:14650   */\n    tag_36:\n        /* \"#utility.yul\":13372:13409   */\n      tag_240\n        /* \"#utility.yul\":13405:13408   */\n      dup3\n        /* \"#utility.yul\":13372:13409   */\n      tag_54\n      jump\t// in\n    tag_240:\n        /* \"#utility.yul\":13474:13492   */\n      0xffffffffffffffff\n        /* \"#utility.yul\":13466:13472   */\n      dup2\n        /* \"#utility.yul\":13463:13493   */\n      gt\n        /* \"#utility.yul\":13460:13516   */\n      iszero\n      tag_241\n      jumpi\n        /* \"#utility.yul\":13496:13514   */\n      tag_242\n      tag_68\n      jump\t// in\n    tag_242:\n        /* \"#utility.yul\":13460:13516   */\n    tag_241:\n        /* \"#utility.yul\":13540:13578   */\n      tag_243\n        /* \"#utility.yul\":13572:13576   */\n      dup3\n        /* \"#utility.yul\":13566:13577   */\n      sload\n        /* \"#utility.yul\":13540:13578   */\n      tag_26\n      jump\t// in\n    tag_243:\n        /* \"#utility.yul\":13625:13692   */\n      tag_244\n        /* \"#utility.yul\":13685:13691   */\n      dup3\n        /* \"#utility.yul\":13677:13683   */\n      dup3\n        /* \"#utility.yul\":13671:13675   */\n      dup6\n        /* \"#utility.yul\":13625:13692   */\n      tag_91\n      jump\t// in\n    tag_244:\n        /* \"#utility.yul\":13719:13720   */\n      0x00\n        /* \"#utility.yul\":13743:13747   */\n      0x20\n        /* \"#utility.yul\":13730:13747   */\n      swap1\n      pop\n        /* \"#utility.yul\":13775:13777   */\n      0x1f\n        /* \"#utility.yul\":13767:13773   */\n      dup4\n        /* \"#utility.yul\":13764:13778   */\n      gt\n        /* \"#utility.yul\":13792:13793   */\n      0x01\n        /* \"#utility.yul\":13787:14405   */\n      dup2\n      eq\n      tag_246\n      jumpi\n        /* \"#utility.yul\":14449:14450   */\n      0x00\n        /* \"#utility.yul\":14466:14472   */\n      dup5\n        /* \"#utility.yul\":14463:14540   */\n      iszero\n      tag_247\n      jumpi\n        /* \"#utility.yul\":14515:14524   */\n      dup3\n        /* \"#utility.yul\":14510:14513   */\n      dup8\n        /* \"#utility.yul\":14506:14525   */\n      add\n        /* \"#utility.yul\":14500:14526   */\n      mload\n        /* \"#utility.yul\":14491:14526   */\n      swap1\n      pop\n        /* \"#utility.yul\":14463:14540   */\n    tag_247:\n        /* \"#utility.yul\":14566:14633   */\n      tag_248\n        /* \"#utility.yul\":14626:14632   */\n      dup6\n        /* \"#utility.yul\":14619:14624   */\n      dup3\n        /* \"#utility.yul\":14566:14633   */\n      tag_94\n      jump\t// in\n    tag_248:\n        /* \"#utility.yul\":14560:14564   */\n      dup7\n        /* \"#utility.yul\":14553:14634   */\n      sstore\n        /* \"#utility.yul\":14422:14644   */\n      pop\n        /* \"#utility.yul\":13757:14644   */\n      jump(tag_245)\n        /* \"#utility.yul\":13787:14405   */\n    tag_246:\n        /* \"#utility.yul\":13839:13843   */\n      0x1f\n        /* \"#utility.yul\":13835:13844   */\n      not\n        /* \"#utility.yul\":13827:13833   */\n      dup5\n        /* \"#utility.yul\":13823:13845   */\n      and\n        /* \"#utility.yul\":13873:13910   */\n      tag_249\n        /* \"#utility.yul\":13905:13909   */\n      dup7\n        /* \"#utility.yul\":13873:13910   */\n      tag_80\n      jump\t// in\n    tag_249:\n        /* \"#utility.yul\":13932:13933   */\n      0x00\n        /* \"#utility.yul\":13946:14154   */\n    tag_250:\n        /* \"#utility.yul\":13960:13967   */\n      dup3\n        /* \"#utility.yul\":13957:13958   */\n      dup2\n        /* \"#utility.yul\":13954:13968   */\n      lt\n        /* \"#utility.yul\":13946:14154   */\n      iszero\n      tag_252\n      jumpi\n        /* \"#utility.yul\":14039:14048   */\n      dup5\n        /* \"#utility.yul\":14034:14037   */\n      dup10\n        /* \"#utility.yul\":14030:14049   */\n      add\n        /* \"#utility.yul\":14024:14050   */\n      mload\n        /* \"#utility.yul\":14016:14022   */\n      dup3\n        /* \"#utility.yul\":14009:14051   */\n      sstore\n        /* \"#utility.yul\":14090:14091   */\n      0x01\n        /* \"#utility.yul\":14082:14088   */\n      dup3\n        /* \"#utility.yul\":14078:14092   */\n      add\n        /* \"#utility.yul\":14068:14092   */\n      swap2\n      pop\n        /* \"#utility.yul\":14137:14139   */\n      0x20\n        /* \"#utility.yul\":14126:14135   */\n      dup6\n        /* \"#utility.yul\":14122:14140   */\n      add\n        /* \"#utility.yul\":14109:14140   */\n      swap5\n      pop\n        /* \"#utility.yul\":13983:13987   */\n      0x20\n        /* \"#utility.yul\":13980:13981   */\n      dup2\n        /* \"#utility.yul\":13976:13988   */\n      add\n        /* \"#utility.yul\":13971:13988   */\n      swap1\n      pop\n        /* \"#utility.yul\":13946:14154   */\n      jump(tag_250)\n    tag_252:\n        /* \"#utility.yul\":14182:14188   */\n      dup7\n        /* \"#utility.yul\":14173:14180   */\n      dup4\n        /* \"#utility.yul\":14170:14189   */\n      lt\n        /* \"#utility.yul\":14167:14346   */\n      iszero\n      tag_253\n      jumpi\n        /* \"#utility.yul\":14240:14249   */\n      dup5\n        /* \"#utility.yul\":14235:14238   */\n      dup10\n        /* \"#utility.yul\":14231:14250   */\n      add\n        /* \"#utility.yul\":14225:14251   */\n      mload\n        /* \"#utility.yul\":14283:14331   */\n      tag_254\n        /* \"#utility.yul\":14325:14329   */\n      0x1f\n        /* \"#utility.yul\":14317:14323   */\n      dup10\n        /* \"#utility.yul\":14313:14330   */\n      and\n        /* \"#utility.yul\":14302:14311   */\n      dup3\n        /* \"#utility.yul\":14283:14331   */\n      tag_93\n      jump\t// in\n    tag_254:\n        /* \"#utility.yul\":14275:14281   */\n      dup4\n        /* \"#utility.yul\":14268:14332   */\n      sstore\n        /* \"#utility.yul\":14190:14346   */\n      pop\n        /* \"#utility.yul\":14167:14346   */\n    tag_253:\n        /* \"#utility.yul\":14392:14393   */\n      0x01\n        /* \"#utility.yul\":14388:14389   */\n      0x02\n        /* \"#utility.yul\":14380:14386   */\n      dup9\n        /* \"#utility.yul\":14376:14390   */\n      mul\n        /* \"#utility.yul\":14372:14394   */\n      add\n        /* \"#utility.yul\":14366:14370   */\n      dup9\n        /* \"#utility.yul\":14359:14395   */\n      sstore\n        /* \"#utility.yul\":13794:14405   */\n      pop\n      pop\n      pop\n        /* \"#utility.yul\":13757:14644   */\n    tag_245:\n      pop\n        /* \"#utility.yul\":13347:14650   */\n      pop\n      pop\n      pop\n        /* \"#utility.yul\":13255:14650   */\n      pop\n      pop\n      jump\t// out\n        /* \"#utility.yul\":14656:14976   */\n    tag_38:\n        /* \"#utility.yul\":14771:14775   */\n      0x00\n        /* \"#utility.yul\":14809:14811   */\n      0x40\n        /* \"#utility.yul\":14798:14807   */\n      dup3\n        /* \"#utility.yul\":14794:14812   */\n      add\n        /* \"#utility.yul\":14786:14812   */\n      swap1\n      pop\n        /* \"#utility.yul\":14822:14887   */\n      tag_256\n        /* \"#utility.yul\":14884:14885   */\n      0x00\n        /* \"#utility.yul\":14873:14882   */\n      dup4\n        /* \"#utility.yul\":14869:14886   */\n      add\n        /* \"#utility.yul\":14860:14866   */\n      dup6\n        /* \"#utility.yul\":14822:14887   */\n      tag_51\n      jump\t// in\n    tag_256:\n        /* \"#utility.yul\":14897:14969   */\n      tag_257\n        /* \"#utility.yul\":14965:14967   */\n      0x20\n        /* \"#utility.yul\":14954:14963   */\n      dup4\n        /* \"#utility.yul\":14950:14968   */\n      add\n        /* \"#utility.yul\":14941:14947   */\n      dup5\n        /* \"#utility.yul\":14897:14969   */\n      tag_53\n      jump\t// in\n    tag_257:\n        /* \"#utility.yul\":14656:14976   */\n      swap4\n      swap3\n      pop\n      pop\n      pop\n      jump\t// out\n\n    auxdata: 0xa2646970667358221220452c1d7c8dfb37fac4b0e820989e41312a252aa71ae1c80584d0fae69fe7f56464736f6c634300081f0033\n}\n",
				"bytecode": {
					"linkReferences": {},
					"object": "6080604052348015600e575f5ffd5b50610d578061001c5f395ff3fe608060405234801561000f575f5ffd5b506004361061003f575f3560e01c8063213681cd146100435780635a71a392146100765780637ef5029814610092575b5f5ffd5b61005d6004803603810190610058919061057c565b6100c7565b60405161006d9493929190610688565b60405180910390f35b610090600480360381019061008b9190610852565b61029a565b005b6100ac60048036038101906100a7919061057c565b610443565b6040516100be969594939291906108d2565b60405180910390f35b5f5f60605f5f5f8681526020019081526020015f2060040160149054906101000a900460ff1661012c576040517f08c379a000000000000000000000000000000000000000000000000000000000815260040161012390610982565b60405180910390fd5b5f5f5f8781526020019081526020015f206040518060c00160405290815f82015f9054906101000a900460ff161515151581526020016001820154815260200160028201548152602001600382018054610185906109cd565b80601f01602080910402602001604051908101604052809291908181526020018280546101b1906109cd565b80156101fc5780601f106101d3576101008083540402835291602001916101fc565b820191905f5260205f20905b8154815290600101906020018083116101df57829003601f168201915b50505050508152602001600482015f9054906101000a900473ffffffffffffffffffffffffffffffffffffffff1673ffffffffffffffffffffffffffffffffffffffff1673ffffffffffffffffffffffffffffffffffffffff1681526020016004820160149054906101000a900460ff1615151515815250509050805f01518160200151826060015183608001519450945094509450509193509193565b5f5f8581526020019081526020015f2060040160149054906101000a900460ff16156102fb576040517f08c379a00000000000000000000000000000000000000000000000000000000081526004016102f290610a6d565b60405180910390fd5b6040518060c0016040528084151581526020018381526020014281526020018281526020013373ffffffffffffffffffffffffffffffffffffffff168152602001600115158152505f5f8681526020019081526020015f205f820151815f015f6101000a81548160ff021916908315150217905550602082015181600101556040820151816002015560608201518160030190816103999190610c2b565b506080820151816004015f6101000a81548173ffffffffffffffffffffffffffffffffffffffff021916908373ffffffffffffffffffffffffffffffffffffffff16021790555060a08201518160040160146101000a81548160ff021916908315150217905550905050837fb63a0529d981171d570239b7e2c1577d533c11cebd2cf501818c6de844750fbc8442604051610435929190610cfa565b60405180910390a250505050565b5f602052805f5260405f205f91509050805f015f9054906101000a900460ff169080600101549080600201549080600301805461047f906109cd565b80601f01602080910402602001604051908101604052809291908181526020018280546104ab906109cd565b80156104f65780601f106104cd576101008083540402835291602001916104f6565b820191905f5260205f20905b8154815290600101906020018083116104d957829003601f168201915b505050505090806004015f9054906101000a900473ffffffffffffffffffffffffffffffffffffffff16908060040160149054906101000a900460ff16905086565b5f604051905090565b5f5ffd5b5f5ffd5b5f819050919050565b61055b81610549565b8114610565575f5ffd5b50565b5f8135905061057681610552565b92915050565b5f6020828403121561059157610590610541565b5b5f61059e84828501610568565b91505092915050565b5f8115159050919050565b6105bb816105a7565b82525050565b5f819050919050565b6105d3816105c1565b82525050565b5f81519050919050565b5f82825260208201905092915050565b8281835e5f83830152505050565b5f601f19601f8301169050919050565b5f61061b826105d9565b61062581856105e3565b93506106358185602086016105f3565b61063e81610601565b840191505092915050565b5f73ffffffffffffffffffffffffffffffffffffffff82169050919050565b5f61067282610649565b9050919050565b61068281610668565b82525050565b5f60808201905061069b5f8301876105b2565b6106a860208301866105ca565b81810360408301526106ba8185610611565b90506106c96060830184610679565b95945050505050565b6106db816105a7565b81146106e5575f5ffd5b50565b5f813590506106f6816106d2565b92915050565b610705816105c1565b811461070f575f5ffd5b50565b5f81359050610720816106fc565b92915050565b5f5ffd5b5f5ffd5b7f4e487b71000000000000000000000000000000000000000000000000000000005f52604160045260245ffd5b61076482610601565b810181811067ffffffffffffffff821117156107835761078261072e565b5b80604052505050565b5f610795610538565b90506107a1828261075b565b919050565b5f67ffffffffffffffff8211156107c0576107bf61072e565b5b6107c982610601565b9050602081019050919050565b828183375f83830152505050565b5f6107f66107f1846107a6565b61078c565b9050828152602081018484840111156108125761081161072a565b5b61081d8482856107d6565b509392505050565b5f82601f83011261083957610838610726565b5b81356108498482602086016107e4565b91505092915050565b5f5f5f5f6080858703121561086a57610869610541565b5b5f61087787828801610568565b9450506020610888878288016106e8565b935050604061089987828801610712565b925050606085013567ffffffffffffffff8111156108ba576108b9610545565b5b6108c687828801610825565b91505092959194509250565b5f60c0820190506108e55f8301896105b2565b6108f260208301886105ca565b6108ff60408301876105ca565b81810360608301526109118186610611565b90506109206080830185610679565b61092d60a08301846105b2565b979650505050505050565b7f4e6f207265636f726420666f756e6420666f72207468697320686173680000005f82015250565b5f61096c601d836105e3565b915061097782610938565b602082019050919050565b5f6020820190508181035f83015261099981610960565b9050919050565b7f4e487b71000000000000000000000000000000000000000000000000000000005f52602260045260245ffd5b5f60028204905060018216806109e457607f821691505b6020821081036109f7576109f66109a0565b5b50919050565b7f5265636f726420616c72656164792065786973747320666f72207468697320685f8201527f6173682100000000000000000000000000000000000000000000000000000000602082015250565b5f610a576024836105e3565b9150610a62826109fd565b604082019050919050565b5f6020820190508181035f830152610a8481610a4b565b9050919050565b5f819050815f5260205f209050919050565b5f6020601f8301049050919050565b5f82821b905092915050565b5f60088302610ae77fffffffffffffffffffffffffffffffffffffffffffffffffffffffffffffffff82610aac565b610af18683610aac565b95508019841693508086168417925050509392505050565b5f819050919050565b5f610b2c610b27610b22846105c1565b610b09565b6105c1565b9050919050565b5f819050919050565b610b4583610b12565b610b59610b5182610b33565b848454610ab8565b825550505050565b5f5f905090565b610b70610b61565b610b7b818484610b3c565b505050565b5b81811015610b9e57610b935f82610b68565b600181019050610b81565b5050565b601f821115610be357610bb481610a8b565b610bbd84610a9d565b81016020851015610bcc578190505b610be0610bd885610a9d565b830182610b80565b50505b505050565b5f82821c905092915050565b5f610c035f1984600802610be8565b1980831691505092915050565b5f610c1b8383610bf4565b9150826002028217905092915050565b610c34826105d9565b67ffffffffffffffff811115610c4d57610c4c61072e565b5b610c5782546109cd565b610c62828285610ba2565b5f60209050601f831160018114610c93575f8415610c81578287015190505b610c8b8582610c10565b865550610cf2565b601f198416610ca186610a8b565b5f5b82811015610cc857848901518255600182019150602085019450602081019050610ca3565b86831015610ce55784890151610ce1601f891682610bf4565b8355505b6001600288020188555050505b505050505050565b5f604082019050610d0d5f8301856105b2565b610d1a60208301846105ca565b939250505056fea2646970667358221220452c1d7c8dfb37fac4b0e820989e41312a252aa71ae1c80584d0fae69fe7f56464736f6c634300081f0033",
					"opcodes": "PUSH1 0x80 PUSH1 0x40 MSTORE CALLVALUE DUP1 ISZERO PUSH1 0xE JUMPI PUSH0 PUSH0 REVERT JUMPDEST POP PUSH2 0xD57 DUP1 PUSH2 0x1C PUSH0 CODECOPY PUSH0 RETURN INVALID PUSH1 0x80 PUSH1 0x40 MSTORE CALLVALUE DUP1 ISZERO PUSH2 0xF JUMPI PUSH0 PUSH0 REVERT JUMPDEST POP PUSH1 0x4 CALLDATASIZE LT PUSH2 0x3F JUMPI PUSH0 CALLDATALOAD PUSH1 0xE0 SHR DUP1 PUSH4 0x213681CD EQ PUSH2 0x43 JUMPI DUP1 PUSH4 0x5A71A392 EQ PUSH2 0x76 JUMPI DUP1 PUSH4 0x7EF50298 EQ PUSH2 0x92 JUMPI JUMPDEST PUSH0 PUSH0 REVERT JUMPDEST PUSH2 0x5D PUSH1 0x4 DUP1 CALLDATASIZE SUB DUP2 ADD SWAP1 PUSH2 0x58 SWAP2 SWAP1 PUSH2 0x57C JUMP JUMPDEST PUSH2 0xC7 JUMP JUMPDEST PUSH1 0x40 MLOAD PUSH2 0x6D SWAP5 SWAP4 SWAP3 SWAP2 SWAP1 PUSH2 0x688 JUMP JUMPDEST PUSH1 0x40 MLOAD DUP1 SWAP2 SUB SWAP1 RETURN JUMPDEST PUSH2 0x90 PUSH1 0x4 DUP1 CALLDATASIZE SUB DUP2 ADD SWAP1 PUSH2 0x8B SWAP2 SWAP1 PUSH2 0x852 JUMP JUMPDEST PUSH2 0x29A JUMP JUMPDEST STOP JUMPDEST PUSH2 0xAC PUSH1 0x4 DUP1 CALLDATASIZE SUB DUP2 ADD SWAP1 PUSH2 0xA7 SWAP2 SWAP1 PUSH2 0x57C JUMP JUMPDEST PUSH2 0x443 JUMP JUMPDEST PUSH1 0x40 MLOAD PUSH2 0xBE SWAP7 SWAP6 SWAP5 SWAP4 SWAP3 SWAP2 SWAP1 PUSH2 0x8D2 JUMP JUMPDEST PUSH1 0x40 MLOAD DUP1 SWAP2 SUB SWAP1 RETURN JUMPDEST PUSH0 PUSH0 PUSH1 0x60 PUSH0 PUSH0 PUSH0 DUP7 DUP2 MSTORE PUSH1 0x20 ADD SWAP1 DUP2 MSTORE PUSH1 0x20 ADD PUSH0 KECCAK256 PUSH1 0x4 ADD PUSH1 0x14 SWAP1 SLOAD SWAP1 PUSH2 0x100 EXP SWAP1 DIV PUSH1 0xFF AND PUSH2 0x12C JUMPI PUSH1 0x40 MLOAD PUSH32 0x8C379A000000000000000000000000000000000000000000000000000000000 DUP2 MSTORE PUSH1 0x4 ADD PUSH2 0x123 SWAP1 PUSH2 0x982 JUMP JUMPDEST PUSH1 0x40 MLOAD DUP1 SWAP2 SUB SWAP1 REVERT JUMPDEST PUSH0 PUSH0 PUSH0 DUP8 DUP2 MSTORE PUSH1 0x20 ADD SWAP1 DUP2 MSTORE PUSH1 0x20 ADD PUSH0 KECCAK256 PUSH1 0x40 MLOAD DUP1 PUSH1 0xC0 ADD PUSH1 0x40 MSTORE SWAP1 DUP2 PUSH0 DUP3 ADD PUSH0 SWAP1 SLOAD SWAP1 PUSH2 0x100 EXP SWAP1 DIV PUSH1 0xFF AND ISZERO ISZERO ISZERO ISZERO DUP2 MSTORE PUSH1 0x20 ADD PUSH1 0x1 DUP3 ADD SLOAD DUP2 MSTORE PUSH1 0x20 ADD PUSH1 0x2 DUP3 ADD SLOAD DUP2 MSTORE PUSH1 0x20 ADD PUSH1 0x3 DUP3 ADD DUP1 SLOAD PUSH2 0x185 SWAP1 PUSH2 0x9CD JUMP JUMPDEST DUP1 PUSH1 0x1F ADD PUSH1 0x20 DUP1 SWAP2 DIV MUL PUSH1 0x20 ADD PUSH1 0x40 MLOAD SWAP1 DUP2 ADD PUSH1 0x40 MSTORE DUP1 SWAP3 SWAP2 SWAP1 DUP2 DUP2 MSTORE PUSH1 0x20 ADD DUP3 DUP1 SLOAD PUSH2 0x1B1 SWAP1 PUSH2 0x9CD JUMP JUMPDEST DUP1 ISZERO PUSH2 0x1FC JUMPI DUP1 PUSH1 0x1F LT PUSH2 0x1D3 JUMPI PUSH2 0x100 DUP1 DUP4 SLOAD DIV MUL DUP4 MSTORE SWAP2 PUSH1 0x20 ADD SWAP2 PUSH2 0x1FC JUMP JUMPDEST DUP3 ADD SWAP2 SWAP1 PUSH0 MSTORE PUSH1 0x20 PUSH0 KECCAK256 SWAP1 JUMPDEST DUP2 SLOAD DUP2 MSTORE SWAP1 PUSH1 0x1 ADD SWAP1 PUSH1 0x20 ADD DUP1 DUP4 GT PUSH2 0x1DF JUMPI DUP3 SWAP1 SUB PUSH1 0x1F AND DUP3 ADD SWAP2 JUMPDEST POP POP POP POP POP DUP2 MSTORE PUSH1 0x20 ADD PUSH1 0x4 DUP3 ADD PUSH0 SWAP1 SLOAD SWAP1 PUSH2 0x100 EXP SWAP1 DIV PUSH20 0xFFFFFFFFFFFFFFFFFFFFFFFFFFFFFFFFFFFFFFFF AND PUSH20 0xFFFFFFFFFFFFFFFFFFFFFFFFFFFFFFFFFFFFFFFF AND PUSH20 0xFFFFFFFFFFFFFFFFFFFFFFFFFFFFFFFFFFFFFFFF AND DUP2 MSTORE PUSH1 0x20 ADD PUSH1 0x4 DUP3 ADD PUSH1 0x14 SWAP1 SLOAD SWAP1 PUSH2 0x100 EXP SWAP1 DIV PUSH1 0xFF AND ISZERO ISZERO ISZERO ISZERO DUP2 MSTORE POP POP SWAP1 POP DUP1 PUSH0 ADD MLOAD DUP2 PUSH1 0x20 ADD MLOAD DUP3 PUSH1 0x60 ADD MLOAD DUP4 PUSH1 0x80 ADD MLOAD SWAP5 POP SWAP5 POP SWAP5 POP SWAP5 POP POP SWAP2 SWAP4 POP SWAP2 SWAP4 JUMP JUMPDEST PUSH0 PUSH0 DUP6 DUP2 MSTORE PUSH1 0x20 ADD SWAP1 DUP2 MSTORE PUSH1 0x20 ADD PUSH0 KECCAK256 PUSH1 0x4 ADD PUSH1 0x14 SWAP1 SLOAD SWAP1 PUSH2 0x100 EXP SWAP1 DIV PUSH1 0xFF AND ISZERO PUSH2 0x2FB JUMPI PUSH1 0x40 MLOAD PUSH32 0x8C379A000000000000000000000000000000000000000000000000000000000 DUP2 MSTORE PUSH1 0x4 ADD PUSH2 0x2F2 SWAP1 PUSH2 0xA6D JUMP JUMPDEST PUSH1 0x40 MLOAD DUP1 SWAP2 SUB SWAP1 REVERT JUMPDEST PUSH1 0x40 MLOAD DUP1 PUSH1 0xC0 ADD PUSH1 0x40 MSTORE DUP1 DUP5 ISZERO ISZERO DUP2 MSTORE PUSH1 0x20 ADD DUP4 DUP2 MSTORE PUSH1 0x20 ADD TIMESTAMP DUP2 MSTORE PUSH1 0x20 ADD DUP3 DUP2 MSTORE PUSH1 0x20 ADD CALLER PUSH20 0xFFFFFFFFFFFFFFFFFFFFFFFFFFFFFFFFFFFFFFFF AND DUP2 MSTORE PUSH1 0x20 ADD PUSH1 0x1 ISZERO ISZERO DUP2 MSTORE POP PUSH0 PUSH0 DUP7 DUP2 MSTORE PUSH1 0x20 ADD SWAP1 DUP2 MSTORE PUSH1 0x20 ADD PUSH0 KECCAK256 PUSH0 DUP3 ADD MLOAD DUP2 PUSH0 ADD PUSH0 PUSH2 0x100 EXP DUP2 SLOAD DUP2 PUSH1 0xFF MUL NOT AND SWAP1 DUP4 ISZERO ISZERO MUL OR SWAP1 SSTORE POP PUSH1 0x20 DUP3 ADD MLOAD DUP2 PUSH1 0x1 ADD SSTORE PUSH1 0x40 DUP3 ADD MLOAD DUP2 PUSH1 0x2 ADD SSTORE PUSH1 0x60 DUP3 ADD MLOAD DUP2 PUSH1 0x3 ADD SWAP1 DUP2 PUSH2 0x399 SWAP2 SWAP1 PUSH2 0xC2B JUMP JUMPDEST POP PUSH1 0x80 DUP3 ADD MLOAD DUP2 PUSH1 0x4 ADD PUSH0 PUSH2 0x100 EXP DUP2 SLOAD DUP2 PUSH20 0xFFFFFFFFFFFFFFFFFFFFFFFFFFFFFFFFFFFFFFFF MUL NOT AND SWAP1 DUP4 PUSH20 0xFFFFFFFFFFFFFFFFFFFFFFFFFFFFFFFFFFFFFFFF AND MUL OR SWAP1 SSTORE POP PUSH1 0xA0 DUP3 ADD MLOAD DUP2 PUSH1 0x4 ADD PUSH1 0x14 PUSH2 0x100 EXP DUP2 SLOAD DUP2 PUSH1 0xFF MUL NOT AND SWAP1 DUP4 ISZERO ISZERO MUL OR SWAP1 SSTORE POP SWAP1 POP POP DUP4 PUSH32 0xB63A0529D981171D570239B7E2C1577D533C11CEBD2CF501818C6DE844750FBC DUP5 TIMESTAMP PUSH1 0x40 MLOAD PUSH2 0x435 SWAP3 SWAP2 SWAP1 PUSH2 0xCFA JUMP JUMPDEST PUSH1 0x40 MLOAD DUP1 SWAP2 SUB SWAP1 LOG2 POP POP POP POP JUMP JUMPDEST PUSH0 PUSH1 0x20 MSTORE DUP1 PUSH0 MSTORE PUSH1 0x40 PUSH0 KECCAK256 PUSH0 SWAP2 POP SWAP1 POP DUP1 PUSH0 ADD PUSH0 SWAP1 SLOAD SWAP1 PUSH2 0x100 EXP SWAP1 DIV PUSH1 0xFF AND SWAP1 DUP1 PUSH1 0x1 ADD SLOAD SWAP1 DUP1 PUSH1 0x2 ADD SLOAD SWAP1 DUP1 PUSH1 0x3 ADD DUP1 SLOAD PUSH2 0x47F SWAP1 PUSH2 0x9CD JUMP JUMPDEST DUP1 PUSH1 0x1F ADD PUSH1 0x20 DUP1 SWAP2 DIV MUL PUSH1 0x20 ADD PUSH1 0x40 MLOAD SWAP1 DUP2 ADD PUSH1 0x40 MSTORE DUP1 SWAP3 SWAP2 SWAP1 DUP2 DUP2 MSTORE PUSH1 0x20 ADD DUP3 DUP1 SLOAD PUSH2 0x4AB SWAP1 PUSH2 0x9CD JUMP JUMPDEST DUP1 ISZERO PUSH2 0x4F6 JUMPI DUP1 PUSH1 0x1F LT PUSH2 0x4CD JUMPI PUSH2 0x100 DUP1 DUP4 SLOAD DIV MUL DUP4 MSTORE SWAP2 PUSH1 0x20 ADD SWAP2 PUSH2 0x4F6 JUMP JUMPDEST DUP3 ADD SWAP2 SWAP1 PUSH0 MSTORE PUSH1 0x20 PUSH0 KECCAK256 SWAP1 JUMPDEST DUP2 SLOAD DUP2 MSTORE SWAP1 PUSH1 0x1 ADD SWAP1 PUSH1 0x20 ADD DUP1 DUP4 GT PUSH2 0x4D9 JUMPI DUP3 SWAP1 SUB PUSH1 0x1F AND DUP3 ADD SWAP2 JUMPDEST POP POP POP POP POP SWAP1 DUP1 PUSH1 0x4 ADD PUSH0 SWAP1 SLOAD SWAP1 PUSH2 0x100 EXP SWAP1 DIV PUSH20 0xFFFFFFFFFFFFFFFFFFFFFFFFFFFFFFFFFFFFFFFF AND SWAP1 DUP1 PUSH1 0x4 ADD PUSH1 0x14 SWAP1 SLOAD SWAP1 PUSH2 0x100 EXP SWAP1 DIV PUSH1 0xFF AND SWAP1 POP DUP7 JUMP JUMPDEST PUSH0 PUSH1 0x40 MLOAD SWAP1 POP SWAP1 JUMP JUMPDEST PUSH0 PUSH0 REVERT JUMPDEST PUSH0 PUSH0 REVERT JUMPDEST PUSH0 DUP2 SWAP1 POP SWAP2 SWAP1 POP JUMP JUMPDEST PUSH2 0x55B DUP2 PUSH2 0x549 JUMP JUMPDEST DUP2 EQ PUSH2 0x565 JUMPI PUSH0 PUSH0 REVERT JUMPDEST POP JUMP JUMPDEST PUSH0 DUP2 CALLDATALOAD SWAP1 POP PUSH2 0x576 DUP2 PUSH2 0x552 JUMP JUMPDEST SWAP3 SWAP2 POP POP JUMP JUMPDEST PUSH0 PUSH1 0x20 DUP3 DUP5 SUB SLT ISZERO PUSH2 0x591 JUMPI PUSH2 0x590 PUSH2 0x541 JUMP JUMPDEST JUMPDEST PUSH0 PUSH2 0x59E DUP5 DUP3 DUP6 ADD PUSH2 0x568 JUMP JUMPDEST SWAP2 POP POP SWAP3 SWAP2 POP POP JUMP JUMPDEST PUSH0 DUP2 ISZERO ISZERO SWAP1 POP SWAP2 SWAP1 POP JUMP JUMPDEST PUSH2 0x5BB DUP2 PUSH2 0x5A7 JUMP JUMPDEST DUP3 MSTORE POP POP JUMP JUMPDEST PUSH0 DUP2 SWAP1 POP SWAP2 SWAP1 POP JUMP JUMPDEST PUSH2 0x5D3 DUP2 PUSH2 0x5C1 JUMP JUMPDEST DUP3 MSTORE POP POP JUMP JUMPDEST PUSH0 DUP2 MLOAD SWAP1 POP SWAP2 SWAP1 POP JUMP JUMPDEST PUSH0 DUP3 DUP3 MSTORE PUSH1 0x20 DUP3 ADD SWAP1 POP SWAP3 SWAP2 POP POP JUMP JUMPDEST DUP3 DUP2 DUP4 MCOPY PUSH0 DUP4 DUP4 ADD MSTORE POP POP POP JUMP JUMPDEST PUSH0 PUSH1 0x1F NOT PUSH1 0x1F DUP4 ADD AND SWAP1 POP SWAP2 SWAP1 POP JUMP JUMPDEST PUSH0 PUSH2 0x61B DUP3 PUSH2 0x5D9 JUMP JUMPDEST PUSH2 0x625 DUP2 DUP6 PUSH2 0x5E3 JUMP JUMPDEST SWAP4 POP PUSH2 0x635 DUP2 DUP6 PUSH1 0x20 DUP7 ADD PUSH2 0x5F3 JUMP JUMPDEST PUSH2 0x63E DUP2 PUSH2 0x601 JUMP JUMPDEST DUP5 ADD SWAP2 POP POP SWAP3 SWAP2 POP POP JUMP JUMPDEST PUSH0 PUSH20 0xFFFFFFFFFFFFFFFFFFFFFFFFFFFFFFFFFFFFFFFF DUP3 AND SWAP1 POP SWAP2 SWAP1 POP JUMP JUMPDEST PUSH0 PUSH2 0x672 DUP3 PUSH2 0x649 JUMP JUMPDEST SWAP1 POP SWAP2 SWAP1 POP JUMP JUMPDEST PUSH2 0x682 DUP2 PUSH2 0x668 JUMP JUMPDEST DUP3 MSTORE POP POP JUMP JUMPDEST PUSH0 PUSH1 0x80 DUP3 ADD SWAP1 POP PUSH2 0x69B PUSH0 DUP4 ADD DUP8 PUSH2 0x5B2 JUMP JUMPDEST PUSH2 0x6A8 PUSH1 0x20 DUP4 ADD DUP7 PUSH2 0x5CA JUMP JUMPDEST DUP2 DUP2 SUB PUSH1 0x40 DUP4 ADD MSTORE PUSH2 0x6BA DUP2 DUP6 PUSH2 0x611 JUMP JUMPDEST SWAP1 POP PUSH2 0x6C9 PUSH1 0x60 DUP4 ADD DUP5 PUSH2 0x679 JUMP JUMPDEST SWAP6 SWAP5 POP POP POP POP POP JUMP JUMPDEST PUSH2 0x6DB DUP2 PUSH2 0x5A7 JUMP JUMPDEST DUP2 EQ PUSH2 0x6E5 JUMPI PUSH0 PUSH0 REVERT JUMPDEST POP JUMP JUMPDEST PUSH0 DUP2 CALLDATALOAD SWAP1 POP PUSH2 0x6F6 DUP2 PUSH2 0x6D2 JUMP JUMPDEST SWAP3 SWAP2 POP POP JUMP JUMPDEST PUSH2 0x705 DUP2 PUSH2 0x5C1 JUMP JUMPDEST DUP2 EQ PUSH2 0x70F JUMPI PUSH0 PUSH0 REVERT JUMPDEST POP JUMP JUMPDEST PUSH0 DUP2 CALLDATALOAD SWAP1 POP PUSH2 0x720 DUP2 PUSH2 0x6FC JUMP JUMPDEST SWAP3 SWAP2 POP POP JUMP JUMPDEST PUSH0 PUSH0 REVERT JUMPDEST PUSH0 PUSH0 REVERT JUMPDEST PUSH32 0x4E487B7100000000000000000000000000000000000000000000000000000000 PUSH0 MSTORE PUSH1 0x41 PUSH1 0x4 MSTORE PUSH1 0x24 PUSH0 REVERT JUMPDEST PUSH2 0x764 DUP3 PUSH2 0x601 JUMP JUMPDEST DUP2 ADD DUP2 DUP2 LT PUSH8 0xFFFFFFFFFFFFFFFF DUP3 GT OR ISZERO PUSH2 0x783 JUMPI PUSH2 0x782 PUSH2 0x72E JUMP JUMPDEST JUMPDEST DUP1 PUSH1 0x40 MSTORE POP POP POP JUMP JUMPDEST PUSH0 PUSH2 0x795 PUSH2 0x538 JUMP JUMPDEST SWAP1 POP PUSH2 0x7A1 DUP3 DUP3 PUSH2 0x75B JUMP JUMPDEST SWAP2 SWAP1 POP JUMP JUMPDEST PUSH0 PUSH8 0xFFFFFFFFFFFFFFFF DUP3 GT ISZERO PUSH2 0x7C0 JUMPI PUSH2 0x7BF PUSH2 0x72E JUMP JUMPDEST JUMPDEST PUSH2 0x7C9 DUP3 PUSH2 0x601 JUMP JUMPDEST SWAP1 POP PUSH1 0x20 DUP2 ADD SWAP1 POP SWAP2 SWAP1 POP JUMP JUMPDEST DUP3 DUP2 DUP4 CALLDATACOPY PUSH0 DUP4 DUP4 ADD MSTORE POP POP POP JUMP JUMPDEST PUSH0 PUSH2 0x7F6 PUSH2 0x7F1 DUP5 PUSH2 0x7A6 JUMP JUMPDEST PUSH2 0x78C JUMP JUMPDEST SWAP1 POP DUP3 DUP2 MSTORE PUSH1 0x20 DUP2 ADD DUP5 DUP5 DUP5 ADD GT ISZERO PUSH2 0x812 JUMPI PUSH2 0x811 PUSH2 0x72A JUMP JUMPDEST JUMPDEST PUSH2 0x81D DUP5 DUP3 DUP6 PUSH2 0x7D6 JUMP JUMPDEST POP SWAP4 SWAP3 POP POP POP JUMP JUMPDEST PUSH0 DUP3 PUSH1 0x1F DUP4 ADD SLT PUSH2 0x839 JUMPI PUSH2 0x838 PUSH2 0x726 JUMP JUMPDEST JUMPDEST DUP2 CALLDATALOAD PUSH2 0x849 DUP5 DUP3 PUSH1 0x20 DUP7 ADD PUSH2 0x7E4 JUMP JUMPDEST SWAP2 POP POP SWAP3 SWAP2 POP POP JUMP JUMPDEST PUSH0 PUSH0 PUSH0 PUSH0 PUSH1 0x80 DUP6 DUP8 SUB SLT ISZERO PUSH2 0x86A JUMPI PUSH2 0x869 PUSH2 0x541 JUMP JUMPDEST JUMPDEST PUSH0 PUSH2 0x877 DUP8 DUP3 DUP9 ADD PUSH2 0x568 JUMP JUMPDEST SWAP5 POP POP PUSH1 0x20 PUSH2 0x888 DUP8 DUP3 DUP9 ADD PUSH2 0x6E8 JUMP JUMPDEST SWAP4 POP POP PUSH1 0x40 PUSH2 0x899 DUP8 DUP3 DUP9 ADD PUSH2 0x712 JUMP JUMPDEST SWAP3 POP POP PUSH1 0x60 DUP6 ADD CALLDATALOAD PUSH8 0xFFFFFFFFFFFFFFFF DUP2 GT ISZERO PUSH2 0x8BA JUMPI PUSH2 0x8B9 PUSH2 0x545 JUMP JUMPDEST JUMPDEST PUSH2 0x8C6 DUP8 DUP3 DUP9 ADD PUSH2 0x825 JUMP JUMPDEST SWAP2 POP POP SWAP3 SWAP6 SWAP2 SWAP5 POP SWAP3 POP JUMP JUMPDEST PUSH0 PUSH1 0xC0 DUP3 ADD SWAP1 POP PUSH2 0x8E5 PUSH0 DUP4 ADD DUP10 PUSH2 0x5B2 JUMP JUMPDEST PUSH2 0x8F2 PUSH1 0x20 DUP4 ADD DUP9 PUSH2 0x5CA JUMP JUMPDEST PUSH2 0x8FF PUSH1 0x40 DUP4 ADD DUP8 PUSH2 0x5CA JUMP JUMPDEST DUP2 DUP2 SUB PUSH1 0x60 DUP4 ADD MSTORE PUSH2 0x911 DUP2 DUP7 PUSH2 0x611 JUMP JUMPDEST SWAP1 POP PUSH2 0x920 PUSH1 0x80 DUP4 ADD DUP6 PUSH2 0x679 JUMP JUMPDEST PUSH2 0x92D PUSH1 0xA0 DUP4 ADD DUP5 PUSH2 0x5B2 JUMP JUMPDEST SWAP8 SWAP7 POP POP POP POP POP POP POP JUMP JUMPDEST PUSH32 0x4E6F207265636F726420666F756E6420666F7220746869732068617368000000 PUSH0 DUP3 ADD MSTORE POP JUMP JUMPDEST PUSH0 PUSH2 0x96C PUSH1 0x1D DUP4 PUSH2 0x5E3 JUMP JUMPDEST SWAP2 POP PUSH2 0x977 DUP3 PUSH2 0x938 JUMP JUMPDEST PUSH1 0x20 DUP3 ADD SWAP1 POP SWAP2 SWAP1 POP JUMP JUMPDEST PUSH0 PUSH1 0x20 DUP3 ADD SWAP1 POP DUP2 DUP2 SUB PUSH0 DUP4 ADD MSTORE PUSH2 0x999 DUP2 PUSH2 0x960 JUMP JUMPDEST SWAP1 POP SWAP2 SWAP1 POP JUMP JUMPDEST PUSH32 0x4E487B7100000000000000000000000000000000000000000000000000000000 PUSH0 MSTORE PUSH1 0x22 PUSH1 0x4 MSTORE PUSH1 0x24 PUSH0 REVERT JUMPDEST PUSH0 PUSH1 0x2 DUP3 DIV SWAP1 POP PUSH1 0x1 DUP3 AND DUP1 PUSH2 0x9E4 JUMPI PUSH1 0x7F DUP3 AND SWAP2 POP JUMPDEST PUSH1 0x20 DUP3 LT DUP2 SUB PUSH2 0x9F7 JUMPI PUSH2 0x9F6 PUSH2 0x9A0 JUMP JUMPDEST JUMPDEST POP SWAP2 SWAP1 POP JUMP JUMPDEST PUSH32 0x5265636F726420616C72656164792065786973747320666F7220746869732068 PUSH0 DUP3 ADD MSTORE PUSH32 0x6173682100000000000000000000000000000000000000000000000000000000 PUSH1 0x20 DUP3 ADD MSTORE POP JUMP JUMPDEST PUSH0 PUSH2 0xA57 PUSH1 0x24 DUP4 PUSH2 0x5E3 JUMP JUMPDEST SWAP2 POP PUSH2 0xA62 DUP3 PUSH2 0x9FD JUMP JUMPDEST PUSH1 0x40 DUP3 ADD SWAP1 POP SWAP2 SWAP1 POP JUMP JUMPDEST PUSH0 PUSH1 0x20 DUP3 ADD SWAP1 POP DUP2 DUP2 SUB PUSH0 DUP4 ADD MSTORE PUSH2 0xA84 DUP2 PUSH2 0xA4B JUMP JUMPDEST SWAP1 POP SWAP2 SWAP1 POP JUMP JUMPDEST PUSH0 DUP2 SWAP1 POP DUP2 PUSH0 MSTORE PUSH1 0x20 PUSH0 KECCAK256 SWAP1 POP SWAP2 SWAP1 POP JUMP JUMPDEST PUSH0 PUSH1 0x20 PUSH1 0x1F DUP4 ADD DIV SWAP1 POP SWAP2 SWAP1 POP JUMP JUMPDEST PUSH0 DUP3 DUP3 SHL SWAP1 POP SWAP3 SWAP2 POP POP JUMP JUMPDEST PUSH0 PUSH1 0x8 DUP4 MUL PUSH2 0xAE7 PUSH32 0xFFFFFFFFFFFFFFFFFFFFFFFFFFFFFFFFFFFFFFFFFFFFFFFFFFFFFFFFFFFFFFFF DUP3 PUSH2 0xAAC JUMP JUMPDEST PUSH2 0xAF1 DUP7 DUP4 PUSH2 0xAAC JUMP JUMPDEST SWAP6 POP DUP1 NOT DUP5 AND SWAP4 POP DUP1 DUP7 AND DUP5 OR SWAP3 POP POP POP SWAP4 SWAP3 POP POP POP JUMP JUMPDEST PUSH0 DUP2 SWAP1 POP SWAP2 SWAP1 POP JUMP JUMPDEST PUSH0 PUSH2 0xB2C PUSH2 0xB27 PUSH2 0xB22 DUP5 PUSH2 0x5C1 JUMP JUMPDEST PUSH2 0xB09 JUMP JUMPDEST PUSH2 0x5C1 JUMP JUMPDEST SWAP1 POP SWAP2 SWAP1 POP JUMP JUMPDEST PUSH0 DUP2 SWAP1 POP SWAP2 SWAP1 POP JUMP JUMPDEST PUSH2 0xB45 DUP4 PUSH2 0xB12 JUMP JUMPDEST PUSH2 0xB59 PUSH2 0xB51 DUP3 PUSH2 0xB33 JUMP JUMPDEST DUP5 DUP5 SLOAD PUSH2 0xAB8 JUMP JUMPDEST DUP3 SSTORE POP POP POP POP JUMP JUMPDEST PUSH0 PUSH0 SWAP1 POP SWAP1 JUMP JUMPDEST PUSH2 0xB70 PUSH2 0xB61 JUMP JUMPDEST PUSH2 0xB7B DUP2 DUP5 DUP5 PUSH2 0xB3C JUMP JUMPDEST POP POP POP JUMP JUMPDEST JUMPDEST DUP2 DUP2 LT ISZERO PUSH2 0xB9E JUMPI PUSH2 0xB93 PUSH0 DUP3 PUSH2 0xB68 JUMP JUMPDEST PUSH1 0x1 DUP2 ADD SWAP1 POP PUSH2 0xB81 JUMP JUMPDEST POP POP JUMP JUMPDEST PUSH1 0x1F DUP3 GT ISZERO PUSH2 0xBE3 JUMPI PUSH2 0xBB4 DUP2 PUSH2 0xA8B JUMP JUMPDEST PUSH2 0xBBD DUP5 PUSH2 0xA9D JUMP JUMPDEST DUP2 ADD PUSH1 0x20 DUP6 LT ISZERO PUSH2 0xBCC JUMPI DUP2 SWAP1 POP JUMPDEST PUSH2 0xBE0 PUSH2 0xBD8 DUP6 PUSH2 0xA9D JUMP JUMPDEST DUP4 ADD DUP3 PUSH2 0xB80 JUMP JUMPDEST POP POP JUMPDEST POP POP POP JUMP JUMPDEST PUSH0 DUP3 DUP3 SHR SWAP1 POP SWAP3 SWAP2 POP POP JUMP JUMPDEST PUSH0 PUSH2 0xC03 PUSH0 NOT DUP5 PUSH1 0x8 MUL PUSH2 0xBE8 JUMP JUMPDEST NOT DUP1 DUP4 AND SWAP2 POP POP SWAP3 SWAP2 POP POP JUMP JUMPDEST PUSH0 PUSH2 0xC1B DUP4 DUP4 PUSH2 0xBF4 JUMP JUMPDEST SWAP2 POP DUP3 PUSH1 0x2 MUL DUP3 OR SWAP1 POP SWAP3 SWAP2 POP POP JUMP JUMPDEST PUSH2 0xC34 DUP3 PUSH2 0x5D9 JUMP JUMPDEST PUSH8 0xFFFFFFFFFFFFFFFF DUP2 GT ISZERO PUSH2 0xC4D JUMPI PUSH2 0xC4C PUSH2 0x72E JUMP JUMPDEST JUMPDEST PUSH2 0xC57 DUP3 SLOAD PUSH2 0x9CD JUMP JUMPDEST PUSH2 0xC62 DUP3 DUP3 DUP6 PUSH2 0xBA2 JUMP JUMPDEST PUSH0 PUSH1 0x20 SWAP1 POP PUSH1 0x1F DUP4 GT PUSH1 0x1 DUP2 EQ PUSH2 0xC93 JUMPI PUSH0 DUP5 ISZERO PUSH2 0xC81 JUMPI DUP3 DUP8 ADD MLOAD SWAP1 POP JUMPDEST PUSH2 0xC8B DUP6 DUP3 PUSH2 0xC10 JUMP JUMPDEST DUP7 SSTORE POP PUSH2 0xCF2 JUMP JUMPDEST PUSH1 0x1F NOT DUP5 AND PUSH2 0xCA1 DUP7 PUSH2 0xA8B JUMP JUMPDEST PUSH0 JUMPDEST DUP3 DUP2 LT ISZERO PUSH2 0xCC8 JUMPI DUP5 DUP10 ADD MLOAD DUP3 SSTORE PUSH1 0x1 DUP3 ADD SWAP2 POP PUSH1 0x20 DUP6 ADD SWAP5 POP PUSH1 0x20 DUP2 ADD SWAP1 POP PUSH2 0xCA3 JUMP JUMPDEST DUP7 DUP4 LT ISZERO PUSH2 0xCE5 JUMPI DUP5 DUP10 ADD MLOAD PUSH2 0xCE1 PUSH1 0x1F DUP10 AND DUP3 PUSH2 0xBF4 JUMP JUMPDEST DUP4 SSTORE POP JUMPDEST PUSH1 0x1 PUSH1 0x2 DUP9 MUL ADD DUP9 SSTORE POP POP POP JUMPDEST POP POP POP POP POP POP JUMP JUMPDEST PUSH0 PUSH1 0x40 DUP3 ADD SWAP1 POP PUSH2 0xD0D PUSH0 DUP4 ADD DUP6 PUSH2 0x5B2 JUMP JUMPDEST PUSH2 0xD1A PUSH1 0x20 DUP4 ADD DUP5 PUSH2 0x5CA JUMP JUMPDEST SWAP4 SWAP3 POP POP POP JUMP INVALID LOG2 PUSH5 0x6970667358 0x22 SLT KECCAK256 GASLIMIT 0x2C SAR PUSH29 0x8DFB37FAC4B0E820989E41312A252AA71AE1C80584D0FAE69FE7F56464 PUSH20 0x6F6C634300081F00330000000000000000000000 "
				},
				"gasEstimates": {
					"creation": {
						"codeDepositCost": "683000",
						"executionCost": "713",
						"totalCost": "683713"
					},
					"external": {
						"addRecord(bytes32,bool,uint256,string)": "infinite",
						"getRecord(bytes32)": "infinite",
						"registry(bytes32)": "infinite"
					}
				},
				"methodIdentifiers": {
					"addRecord(bytes32,bool,uint256,string)": "5a71a392",
					"getRecord(bytes32)": "213681cd",
					"registry(bytes32)": "7ef50298"
				}
			},
			"storageLayout": {
				"storage": [
					{
						"astId": 19,
						"contract": "FraudRegistry.sol:FraudRegistry",
						"label": "registry",
						"offset": 0,
						"slot": "0",
						"type": "t_mapping(t_bytes32,t_struct(FraudRecord)14_storage)"
					}
				],
				"types": {
					"t_address": {
						"encoding": "inplace",
						"label": "address",
						"numberOfBytes": "20"
					},
					"t_bool": {
						"encoding": "inplace",
						"label": "bool",
						"numberOfBytes": "1"
					},
					"t_bytes32": {
						"encoding": "inplace",
						"label": "bytes32",
						"numberOfBytes": "32"
					},
					"t_mapping(t_bytes32,t_struct(FraudRecord)14_storage)": {
						"encoding": "mapping",
						"key": "t_bytes32",
						"label": "mapping(bytes32 => struct FraudRegistry.FraudRecord)",
						"numberOfBytes": "32",
						"value": "t_struct(FraudRecord)14_storage"
					},
					"t_string_storage": {
						"encoding": "bytes",
						"label": "string",
						"numberOfBytes": "32"
					},
					"t_struct(FraudRecord)14_storage": {
						"encoding": "inplace",
						"label": "struct FraudRegistry.FraudRecord",
						"members": [
							{
								"astId": 3,
								"contract": "FraudRegistry.sol:FraudRegistry",
								"label": "isFraud",
								"offset": 0,
								"slot": "0",
								"type": "t_bool"
							},
							{
								"astId": 5,
								"contract": "FraudRegistry.sol:FraudRegistry",
								"label": "riskScore",
								"offset": 0,
								"slot": "1",
								"type": "t_uint256"
							},
							{
								"astId": 7,
								"contract": "FraudRegistry.sol:FraudRegistry",
								"label": "timestamp",
								"offset": 0,
								"slot": "2",
								"type": "t_uint256"
							},
							{
								"astId": 9,
								"contract": "FraudRegistry.sol:FraudRegistry",
								"label": "modelUsed",
								"offset": 0,
								"slot": "3",
								"type": "t_string_storage"
							},
							{
								"astId": 11,
								"contract": "FraudRegistry.sol:FraudRegistry",
								"label": "reporter",
								"offset": 0,
								"slot": "4",
								"type": "t_address"
							},
							{
								"astId": 13,
								"contract": "FraudRegistry.sol:FraudRegistry",
								"label": "exists",
								"offset": 20,
								"slot": "4",
								"type": "t_bool"
							}
						],
						"numberOfBytes": "160"
					},
					"t_uint256": {
						"encoding": "inplace",
						"label": "uint256",
						"numberOfBytes": "32"
					}
				}
			},
			"userdoc": {
				"kind": "user",
				"methods": {},
				"version": 1
			}
		}
	}
}