{
	"Week 3 Assignments - Solidity/DigitalNotebook.sol": {
		"DigitalNotebook": {
			"abi": [
				{
					"inputs": [
						{
							"internalType": "string",
							"name": "_message",
							"type": "string"
						}
					],
					"name": "addNote",
					"outputs": [],
					"stateMutability": "nonpayable",
					"type": "function"
				},
				{
					"inputs": [],
					"name": "getNotes",
					"outputs": [
						{
							"components": [
								{
									"internalType": "string",
									"name": "message",
									"type": "string"
								},
								{
									"internalType": "uint256",
									"name": "timestamp",
									"type": "uint256"
								}
							],
							"internalType": "struct DigitalNotebook.Note[]",
							"name": "",
							"type": "tuple[]"
						}
					],
					"stateMutability": "view",
					"type": "function"
				},
				{
					"inputs": [],
					"name": "totalNotes",
					"outputs": [
						{
							"internalType": "uint256",
							"name": "",
							"type": "uint256"
						}
					],
					"stateMutability": "view",
					"type": "function"
				}
			],
			"devdoc": {
				"kind": "dev",
				"methods": {},
				"version": 1
			},
			"evm": {
				"assembly": "    /* \"Week 3 Assignments - Solidity/DigitalNotebook.sol\":60:683  contract DigitalNotebook {... */\n  mstore(0x40, 0x80)\n  callvalue\n  dup1\n  iszero\n  tag_1\n  jumpi\n  revert(0x00, 0x00)\ntag_1:\n  pop\n  dataSize(sub_0)\n  dup1\n  dataOffset(sub_0)\n  0x00\n  codecopy\n  0x00\n  return\nstop\n\nsub_0: assembly {\n        /* \"Week 3 Assignments - Solidity/DigitalNotebook.sol\":60:683  contract DigitalNotebook {... */\n      mstore(0x40, 0x80)\n      callvalue\n      dup1\n      iszero\n      tag_1\n      jumpi\n      revert(0x00, 0x00)\n    tag_1:\n      pop\n      jumpi(tag_2, lt(calldatasize, 0x04))\n      shr(0xe0, calldataload(0x00))\n      dup1\n      0xa4edff47\n      eq\n      tag_3\n      jumpi\n      dup1\n      0xb4af200d\n      eq\n      tag_4\n      jumpi\n      dup1\n      0xc1bbf4c1\n      eq\n      tag_5\n      jumpi\n    tag_2:\n      revert(0x00, 0x00)\n        /* \"Week 3 Assignments - Solidity/DigitalNotebook.sol\":282:562  function addNote(string calldata _message) external {... */\n    tag_3:\n      tag_6\n      0x04\n      dup1\n      calldatasize\n      sub\n      dup2\n      add\n      swap1\n      tag_7\n      swap2\n      swap1\n      tag_8\n      jump\t// in\n    tag_7:\n      tag_9\n      jump\t// in\n    tag_6:\n      stop\n        /* \"Week 3 Assignments - Solidity/DigitalNotebook.sol\":575:680  function getNotes() external view returns (Note[] memory) {... */\n    tag_4:\n      tag_10\n      tag_11\n      jump\t// in\n    tag_10:\n      mload(0x40)\n      tag_12\n      swap2\n      swap1\n      tag_13\n      jump\t// in\n    tag_12:\n      mload(0x40)\n      dup1\n      swap2\n      sub\n      swap1\n      return\n        /* \"Week 3 Assignments - Solidity/DigitalNotebook.sol\":229:251  uint public totalNotes */\n    tag_5:\n      tag_14\n      tag_15\n      jump\t// in\n    tag_14:\n      mload(0x40)\n      tag_16\n      swap2\n      swap1\n      tag_17\n      jump\t// in\n    tag_16:\n      mload(0x40)\n      dup1\n      swap2\n      sub\n      swap1\n      return\n        /* \"Week 3 Assignments - Solidity/DigitalNotebook.sol\":282:562  function addNote(string calldata _message) external {... */\n    tag_9:\n        /* \"Week 3 Assignments - Solidity/DigitalNotebook.sol\":345:364  Note memory newNote */\n      0x00\n        /* \"Week 3 Assignments - Solidity/DigitalNotebook.sol\":367:457  Note({... */\n      mload(0x40)\n      dup1\n      0x40\n      add\n      0x40\n      mstore\n      dup1\n        /* \"Week 3 Assignments - Solidity/DigitalNotebook.sol\":396:404  _message */\n      dup5\n      dup5\n        /* \"Week 3 Assignments - Solidity/DigitalNotebook.sol\":367:457  Note({... */\n      dup1\n      dup1\n      0x1f\n      add\n      0x20\n      dup1\n      swap2\n      div\n      mul\n      0x20\n      add\n      mload(0x40)\n      swap1\n      dup2\n      add\n      0x40\n      mstore\n      dup1\n      swap4\n      swap3\n      swap2\n      swap1\n      dup2\n      dup2\n      mstore\n      0x20\n      add\n      dup4\n      dup4\n      dup1\n      dup3\n      dup5\n      calldatacopy\n      0x00\n      dup2\n      dup5\n      add\n      mstore\n      not(0x1f)\n      0x1f\n      dup3\n      add\n      and\n      swap1\n      pop\n      dup1\n      dup4\n      add\n      swap3\n      pop\n      pop\n      pop\n      pop\n      pop\n      pop\n      pop\n      dup2\n      mstore\n      0x20\n      add\n        /* \"Week 3 Assignments - Solidity/DigitalNotebook.sol\":430:445  block.timestamp */\n      timestamp\n        /* \"Week 3 Assignments - Solidity/DigitalNotebook.sol\":367:457  Note({... */\n      dup2\n      mstore\n      pop\n        /* \"Week 3 Assignments - Solidity/DigitalNotebook.sol\":345:457  Note memory newNote = Note({... */\n      swap1\n      pop\n        /* \"Week 3 Assignments - Solidity/DigitalNotebook.sol\":470:479  userNotes */\n      0x00\n        /* \"Week 3 Assignments - Solidity/DigitalNotebook.sol\":470:491  userNotes[msg.sender] */\n      0x00\n        /* \"Week 3 Assignments - Solidity/DigitalNotebook.sol\":480:490  msg.sender */\n      caller\n        /* \"Week 3 Assignments - Solidity/DigitalNotebook.sol\":470:491  userNotes[msg.sender] */\n      0xffffffffffffffffffffffffffffffffffffffff\n      and\n      0xffffffffffffffffffffffffffffffffffffffff\n      and\n      dup2\n      mstore\n      0x20\n      add\n      swap1\n      dup2\n      mstore\n      0x20\n      add\n      0x00\n      keccak256\n        /* \"Week 3 Assignments - Solidity/DigitalNotebook.sol\":497:504  newNote */\n      dup2\n        /* \"Week 3 Assignments - Solidity/DigitalNotebook.sol\":470:505  userNotes[msg.sender].push(newNote) */\n      swap1\n      dup1\n      0x01\n      dup2\n      sload\n      add\n      dup1\n      dup3\n      sstore\n      dup1\n      swap2\n      pop\n      pop\n      0x01\n      swap1\n      sub\n      swap1\n      0x00\n      mstore\n      keccak256(0x00, 0x20)\n      swap1\n      0x02\n      mul\n      add\n      0x00\n      swap1\n      swap2\n      swap1\n      swap2\n      swap1\n      swap2\n      pop\n      0x00\n      dup3\n      add\n      mload\n      dup2\n      0x00\n      add\n      swap1\n      dup2\n      tag_20\n      swap2\n      swap1\n      tag_21\n      jump\t// in\n    tag_20:\n      pop\n      0x20\n      dup3\n      add\n      mload\n      dup2\n      0x01\n      add\n      sstore\n      pop\n      pop\n        /* \"Week 3 Assignments - Solidity/DigitalNotebook.sol\":518:528  totalNotes */\n      0x01\n      0x00\n        /* \"Week 3 Assignments - Solidity/DigitalNotebook.sol\":518:530  totalNotes++ */\n      dup2\n      sload\n      dup1\n      swap3\n      swap2\n      swap1\n      tag_22\n      swap1\n      tag_23\n      jump\t// in\n    tag_22:\n      swap2\n      swap1\n      pop\n      sstore\n      pop\n        /* \"Week 3 Assignments - Solidity/DigitalNotebook.sol\":334:562  {... */\n      pop\n        /* \"Week 3 Assignments - Solidity/DigitalNotebook.sol\":282:562  function addNote(string calldata _message) external {... */\n      pop\n      pop\n      jump\t// out\n        /* \"Week 3 Assignments - Solidity/DigitalNotebook.sol\":575:680  function getNotes() external view returns (Note[] memory) {... */\n    tag_11:\n        /* \"Week 3 Assignments - Solidity/DigitalNotebook.sol\":618:631  Note[] memory */\n      0x60\n        /* \"Week 3 Assignments - Solidity/DigitalNotebook.sol\":651:660  userNotes */\n      0x00\n        /* \"Week 3 Assignments - Solidity/DigitalNotebook.sol\":651:672  userNotes[msg.sender] */\n      0x00\n        /* \"Week 3 Assignments - Solidity/DigitalNotebook.sol\":661:671  msg.sender */\n      caller\n        /* \"Week 3 Assignments - Solidity/DigitalNotebook.sol\":651:672  userNotes[msg.sender] */\n      0xffffffffffffffffffffffffffffffffffffffff\n      and\n      0xffffffffffffffffffffffffffffffffffffffff\n      and\n      dup2\n      mstore\n      0x20\n      add\n      swap1\n      dup2\n      mstore\n      0x20\n      add\n      0x00\n      keccak256\n        /* \"Week 3 Assignments - Solidity/DigitalNotebook.sol\":644:672  return userNotes[msg.sender] */\n      dup1\n      sload\n      dup1\n      0x20\n      mul\n      0x20\n      add\n      mload(0x40)\n      swap1\n      dup2\n      add\n      0x40\n      mstore\n      dup1\n      swap3\n      swap2\n      swap1\n      dup2\n      dup2\n      mstore\n      0x20\n      add\n      0x00\n      swap1\n    tag_25:\n      dup3\n      dup3\n      lt\n      iszero\n      tag_26\n      jumpi\n      dup4\n      dup3\n      swap1\n      0x00\n      mstore\n      keccak256(0x00, 0x20)\n      swap1\n      0x02\n      mul\n      add\n      mload(0x40)\n      dup1\n      0x40\n      add\n      0x40\n      mstore\n      swap1\n      dup2\n      0x00\n      dup3\n      add\n      dup1\n      sload\n      tag_28\n      swap1\n      tag_29\n      jump\t// in\n    tag_28:\n      dup1\n      0x1f\n      add\n      0x20\n      dup1\n      swap2\n      div\n      mul\n      0x20\n      add\n      mload(0x40)\n      swap1\n      dup2\n      add\n      0x40\n      mstore\n      dup1\n      swap3\n      swap2\n      swap1\n      dup2\n      dup2\n      mstore\n      0x20\n      add\n      dup3\n      dup1\n      sload\n      tag_30\n      swap1\n      tag_29\n      jump\t// in\n    tag_30:\n      dup1\n      iszero\n      tag_31\n      jumpi\n      dup1\n      0x1f\n      lt\n      tag_32\n      jumpi\n      0x0100\n      dup1\n      dup4\n      sload\n      div\n      mul\n      dup4\n      mstore\n      swap2\n      0x20\n      add\n      swap2\n      jump(tag_31)\n    tag_32:\n      dup3\n      add\n      swap2\n      swap1\n      0x00\n      mstore\n      keccak256(0x00, 0x20)\n      swap1\n    tag_33:\n      dup2\n      sload\n      dup2\n      mstore\n      swap1\n      0x01\n      add\n      swap1\n      0x20\n      add\n      dup1\n      dup4\n      gt\n      tag_33\n      jumpi\n      dup3\n      swap1\n      sub\n      0x1f\n      and\n      dup3\n      add\n      swap2\n    tag_31:\n      pop\n      pop\n      pop\n      pop\n      pop\n      dup2\n      mstore\n      0x20\n      add\n      0x01\n      dup3\n      add\n      sload\n      dup2\n      mstore\n      pop\n      pop\n      dup2\n      mstore\n      0x20\n      add\n      swap1\n      0x01\n      add\n      swap1\n      jump(tag_25)\n    tag_26:\n      pop\n      pop\n      pop\n      pop\n      swap1\n      pop\n        /* \"Week 3 Assignments - Solidity/DigitalNotebook.sol\":575:680  function getNotes() external view returns (Note[] memory) {... */\n      swap1\n      jump\t// out\n        /* \"Week 3 Assignments - Solidity/DigitalNotebook.sol\":229:251  uint public totalNotes */\n    tag_15:\n      sload(0x01)\n      dup2\n      jump\t// out\n        /* \"#utility.yul\":88:205   */\n    tag_35:\n        /* \"#utility.yul\":197:198   */\n      0x00\n        /* \"#utility.yul\":194:195   */\n      0x00\n        /* \"#utility.yul\":187:199   */\n      revert\n        /* \"#utility.yul\":211:328   */\n    tag_36:\n        /* \"#utility.yul\":320:321   */\n      0x00\n        /* \"#utility.yul\":317:318   */\n      0x00\n        /* \"#utility.yul\":310:322   */\n      revert\n        /* \"#utility.yul\":334:451   */\n    tag_37:\n        /* \"#utility.yul\":443:444   */\n      0x00\n        /* \"#utility.yul\":440:441   */\n      0x00\n        /* \"#utility.yul\":433:445   */\n      revert\n        /* \"#utility.yul\":457:574   */\n    tag_38:\n        /* \"#utility.yul\":566:567   */\n      0x00\n        /* \"#utility.yul\":563:564   */\n      0x00\n        /* \"#utility.yul\":556:568   */\n      revert\n        /* \"#utility.yul\":580:697   */\n    tag_39:\n        /* \"#utility.yul\":689:690   */\n      0x00\n        /* \"#utility.yul\":686:687   */\n      0x00\n        /* \"#utility.yul\":679:691   */\n      revert\n        /* \"#utility.yul\":717:1270   */\n    tag_40:\n        /* \"#utility.yul\":775:783   */\n      0x00\n        /* \"#utility.yul\":785:791   */\n      0x00\n        /* \"#utility.yul\":835:838   */\n      dup4\n        /* \"#utility.yul\":828:832   */\n      0x1f\n        /* \"#utility.yul\":820:826   */\n      dup5\n        /* \"#utility.yul\":816:833   */\n      add\n        /* \"#utility.yul\":812:839   */\n      slt\n        /* \"#utility.yul\":802:924   */\n      tag_82\n      jumpi\n        /* \"#utility.yul\":843:922   */\n      tag_83\n      tag_37\n      jump\t// in\n    tag_83:\n        /* \"#utility.yul\":802:924   */\n    tag_82:\n        /* \"#utility.yul\":956:962   */\n      dup3\n        /* \"#utility.yul\":943:963   */\n      calldataload\n        /* \"#utility.yul\":933:963   */\n      swap1\n      pop\n        /* \"#utility.yul\":986:1004   */\n      0xffffffffffffffff\n        /* \"#utility.yul\":978:984   */\n      dup2\n        /* \"#utility.yul\":975:1005   */\n      gt\n        /* \"#utility.yul\":972:1089   */\n      iszero\n      tag_84\n      jumpi\n        /* \"#utility.yul\":1008:1087   */\n      tag_85\n      tag_38\n      jump\t// in\n    tag_85:\n        /* \"#utility.yul\":972:1089   */\n    tag_84:\n        /* \"#utility.yul\":1122:1126   */\n      0x20\n        /* \"#utility.yul\":1114:1120   */\n      dup4\n        /* \"#utility.yul\":1110:1127   */\n      add\n        /* \"#utility.yul\":1098:1127   */\n      swap2\n      pop\n        /* \"#utility.yul\":1176:1179   */\n      dup4\n        /* \"#utility.yul\":1168:1172   */\n      0x01\n        /* \"#utility.yul\":1160:1166   */\n      dup3\n        /* \"#utility.yul\":1156:1173   */\n      mul\n        /* \"#utility.yul\":1146:1154   */\n      dup4\n        /* \"#utility.yul\":1142:1174   */\n      add\n        /* \"#utility.yul\":1139:1180   */\n      gt\n        /* \"#utility.yul\":1136:1264   */\n      iszero\n      tag_86\n      jumpi\n        /* \"#utility.yul\":1183:1262   */\n      tag_87\n      tag_39\n      jump\t// in\n    tag_87:\n        /* \"#utility.yul\":1136:1264   */\n    tag_86:\n        /* \"#utility.yul\":717:1270   */\n      swap3\n      pop\n      swap3\n      swap1\n      pop\n      jump\t// out\n        /* \"#utility.yul\":1276:1805   */\n    tag_8:\n        /* \"#utility.yul\":1347:1353   */\n      0x00\n        /* \"#utility.yul\":1355:1361   */\n      0x00\n        /* \"#utility.yul\":1404:1406   */\n      0x20\n        /* \"#utility.yul\":1392:1401   */\n      dup4\n        /* \"#utility.yul\":1383:1390   */\n      dup6\n        /* \"#utility.yul\":1379:1402   */\n      sub\n        /* \"#utility.yul\":1375:1407   */\n      slt\n        /* \"#utility.yul\":1372:1491   */\n      iszero\n      tag_89\n      jumpi\n        /* \"#utility.yul\":1410:1489   */\n      tag_90\n      tag_35\n      jump\t// in\n    tag_90:\n        /* \"#utility.yul\":1372:1491   */\n    tag_89:\n        /* \"#utility.yul\":1558:1559   */\n      0x00\n        /* \"#utility.yul\":1547:1556   */\n      dup4\n        /* \"#utility.yul\":1543:1560   */\n      add\n        /* \"#utility.yul\":1530:1561   */\n      calldataload\n        /* \"#utility.yul\":1588:1606   */\n      0xffffffffffffffff\n        /* \"#utility.yul\":1580:1586   */\n      dup2\n        /* \"#utility.yul\":1577:1607   */\n      gt\n        /* \"#utility.yul\":1574:1691   */\n      iszero\n      tag_91\n      jumpi\n        /* \"#utility.yul\":1610:1689   */\n      tag_92\n      tag_36\n      jump\t// in\n    tag_92:\n        /* \"#utility.yul\":1574:1691   */\n    tag_91:\n        /* \"#utility.yul\":1723:1788   */\n      tag_93\n        /* \"#utility.yul\":1780:1787   */\n      dup6\n        /* \"#utility.yul\":1771:1777   */\n      dup3\n        /* \"#utility.yul\":1760:1769   */\n      dup7\n        /* \"#utility.yul\":1756:1778   */\n      add\n        /* \"#utility.yul\":1723:1788   */\n      tag_40\n      jump\t// in\n    tag_93:\n        /* \"#utility.yul\":1705:1788   */\n      swap3\n      pop\n      swap3\n      pop\n        /* \"#utility.yul\":1501:1798   */\n      pop\n        /* \"#utility.yul\":1276:1805   */\n      swap3\n      pop\n      swap3\n      swap1\n      pop\n      jump\t// out\n        /* \"#utility.yul\":1811:1944   */\n    tag_41:\n        /* \"#utility.yul\":1897:1903   */\n      0x00\n        /* \"#utility.yul\":1931:1936   */\n      dup2\n        /* \"#utility.yul\":1925:1937   */\n      mload\n        /* \"#utility.yul\":1915:1937   */\n      swap1\n      pop\n        /* \"#utility.yul\":1811:1944   */\n      swap2\n      swap1\n      pop\n      jump\t// out\n        /* \"#utility.yul\":1950:2153   */\n    tag_42:\n        /* \"#utility.yul\":2068:2079   */\n      0x00\n        /* \"#utility.yul\":2102:2108   */\n      dup3\n        /* \"#utility.yul\":2097:2100   */\n      dup3\n        /* \"#utility.yul\":2090:2109   */\n      mstore\n        /* \"#utility.yul\":2142:2146   */\n      0x20\n        /* \"#utility.yul\":2137:2140   */\n      dup3\n        /* \"#utility.yul\":2133:2147   */\n      add\n        /* \"#utility.yul\":2118:2147   */\n      swap1\n      pop\n        /* \"#utility.yul\":1950:2153   */\n      swap3\n      swap2\n      pop\n      pop\n      jump\t// out\n        /* \"#utility.yul\":2159:2310   */\n    tag_43:\n        /* \"#utility.yul\":2245:2249   */\n      0x00\n        /* \"#utility.yul\":2268:2271   */\n      dup2\n        /* \"#utility.yul\":2260:2271   */\n      swap1\n      pop\n        /* \"#utility.yul\":2298:2302   */\n      0x20\n        /* \"#utility.yul\":2293:2296   */\n      dup3\n        /* \"#utility.yul\":2289:2303   */\n      add\n        /* \"#utility.yul\":2281:2303   */\n      swap1\n      pop\n        /* \"#utility.yul\":2159:2310   */\n      swap2\n      swap1\n      pop\n      jump\t// out\n        /* \"#utility.yul\":2316:2415   */\n    tag_44:\n        /* \"#utility.yul\":2368:2374   */\n      0x00\n        /* \"#utility.yul\":2402:2407   */\n      dup2\n        /* \"#utility.yul\":2396:2408   */\n      mload\n        /* \"#utility.yul\":2386:2408   */\n      swap1\n      pop\n        /* \"#utility.yul\":2316:2415   */\n      swap2\n      swap1\n      pop\n      jump\t// out\n        /* \"#utility.yul\":2421:2580   */\n    tag_45:\n        /* \"#utility.yul\":2495:2506   */\n      0x00\n        /* \"#utility.yul\":2529:2535   */\n      dup3\n        /* \"#utility.yul\":2524:2527   */\n      dup3\n        /* \"#utility.yul\":2517:2536   */\n      mstore\n        /* \"#utility.yul\":2569:2573   */\n      0x20\n        /* \"#utility.yul\":2564:2567   */\n      dup3\n        /* \"#utility.yul\":2560:2574   */\n      add\n        /* \"#utility.yul\":2545:2574   */\n      swap1\n      pop\n        /* \"#utility.yul\":2421:2580   */\n      swap3\n      swap2\n      pop\n      pop\n      jump\t// out\n        /* \"#utility.yul\":2586:2725   */\n    tag_46:\n        /* \"#utility.yul\":2675:2681   */\n      dup3\n        /* \"#utility.yul\":2670:2673   */\n      dup2\n        /* \"#utility.yul\":2665:2668   */\n      dup4\n        /* \"#utility.yul\":2659:2682   */\n      mcopy\n        /* \"#utility.yul\":2716:2717   */\n      0x00\n        /* \"#utility.yul\":2707:2713   */\n      dup4\n        /* \"#utility.yul\":2702:2705   */\n      dup4\n        /* \"#utility.yul\":2698:2714   */\n      add\n        /* \"#utility.yul\":2691:2718   */\n      mstore\n        /* \"#utility.yul\":2586:2725   */\n      pop\n      pop\n      pop\n      jump\t// out\n        /* \"#utility.yul\":2731:2833   */\n    tag_47:\n        /* \"#utility.yul\":2772:2778   */\n      0x00\n        /* \"#utility.yul\":2823:2825   */\n      0x1f\n        /* \"#utility.yul\":2819:2826   */\n      not\n        /* \"#utility.yul\":2814:2816   */\n      0x1f\n        /* \"#utility.yul\":2807:2812   */\n      dup4\n        /* \"#utility.yul\":2803:2817   */\n      add\n        /* \"#utility.yul\":2799:2827   */\n      and\n        /* \"#utility.yul\":2789:2827   */\n      swap1\n      pop\n        /* \"#utility.yul\":2731:2833   */\n      swap2\n      swap1\n      pop\n      jump\t// out\n        /* \"#utility.yul\":2839:3196   */\n    tag_48:\n        /* \"#utility.yul\":2917:2920   */\n      0x00\n        /* \"#utility.yul\":2945:2984   */\n      tag_102\n        /* \"#utility.yul\":2978:2983   */\n      dup3\n        /* \"#utility.yul\":2945:2984   */\n      tag_44\n      jump\t// in\n    tag_102:\n        /* \"#utility.yul\":3000:3061   */\n      tag_103\n        /* \"#utility.yul\":3054:3060   */\n      dup2\n        /* \"#utility.yul\":3049:3052   */\n      dup6\n        /* \"#utility.yul\":3000:3061   */\n      tag_45\n      jump\t// in\n    tag_103:\n        /* \"#utility.yul\":2993:3061   */\n      swap4\n      pop\n        /* \"#utility.yul\":3070:3135   */\n      tag_104\n        /* \"#utility.yul\":3128:3134   */\n      dup2\n        /* \"#utility.yul\":3123:3126   */\n      dup6\n        /* \"#utility.yul\":3116:3120   */\n      0x20\n        /* \"#utility.yul\":3109:3114   */\n      dup7\n        /* \"#utility.yul\":3105:3121   */\n      add\n        /* \"#utility.yul\":3070:3135   */\n      tag_46\n      jump\t// in\n    tag_104:\n        /* \"#utility.yul\":3160:3189   */\n      tag_105\n        /* \"#utility.yul\":3182:3188   */\n      dup2\n        /* \"#utility.yul\":3160:3189   */\n      tag_47\n      jump\t// in\n    tag_105:\n        /* \"#utility.yul\":3155:3158   */\n      dup5\n        /* \"#utility.yul\":3151:3190   */\n      add\n        /* \"#utility.yul\":3144:3190   */\n      swap2\n      pop\n        /* \"#utility.yul\":2921:3196   */\n      pop\n        /* \"#utility.yul\":2839:3196   */\n      swap3\n      swap2\n      pop\n      pop\n      jump\t// out\n        /* \"#utility.yul\":3202:3279   */\n    tag_49:\n        /* \"#utility.yul\":3239:3246   */\n      0x00\n        /* \"#utility.yul\":3268:3273   */\n      dup2\n        /* \"#utility.yul\":3257:3273   */\n      swap1\n      pop\n        /* \"#utility.yul\":3202:3279   */\n      swap2\n      swap1\n      pop\n      jump\t// out\n        /* \"#utility.yul\":3285:3393   */\n    tag_50:\n        /* \"#utility.yul\":3362:3386   */\n      tag_108\n        /* \"#utility.yul\":3380:3385   */\n      dup2\n        /* \"#utility.yul\":3362:3386   */\n      tag_49\n      jump\t// in\n    tag_108:\n        /* \"#utility.yul\":3357:3360   */\n      dup3\n        /* \"#utility.yul\":3350:3387   */\n      mstore\n        /* \"#utility.yul\":3285:3393   */\n      pop\n      pop\n      jump\t// out\n        /* \"#utility.yul\":3465:4057   */\n    tag_51:\n        /* \"#utility.yul\":3562:3565   */\n      0x00\n        /* \"#utility.yul\":3598:3602   */\n      0x40\n        /* \"#utility.yul\":3593:3596   */\n      dup4\n        /* \"#utility.yul\":3589:3603   */\n      add\n        /* \"#utility.yul\":3688:3692   */\n      0x00\n        /* \"#utility.yul\":3681:3686   */\n      dup4\n        /* \"#utility.yul\":3677:3693   */\n      add\n        /* \"#utility.yul\":3671:3694   */\n      mload\n        /* \"#utility.yul\":3741:3744   */\n      dup5\n        /* \"#utility.yul\":3735:3739   */\n      dup3\n        /* \"#utility.yul\":3731:3745   */\n      sub\n        /* \"#utility.yul\":3724:3728   */\n      0x00\n        /* \"#utility.yul\":3719:3722   */\n      dup7\n        /* \"#utility.yul\":3715:3729   */\n      add\n        /* \"#utility.yul\":3708:3746   */\n      mstore\n        /* \"#utility.yul\":3767:3840   */\n      tag_110\n        /* \"#utility.yul\":3835:3839   */\n      dup3\n        /* \"#utility.yul\":3821:3833   */\n      dup3\n        /* \"#utility.yul\":3767:3840   */\n      tag_48\n      jump\t// in\n    tag_110:\n        /* \"#utility.yul\":3759:3840   */\n      swap2\n      pop\n        /* \"#utility.yul\":3613:3851   */\n      pop\n        /* \"#utility.yul\":3938:3942   */\n      0x20\n        /* \"#utility.yul\":3931:3936   */\n      dup4\n        /* \"#utility.yul\":3927:3943   */\n      add\n        /* \"#utility.yul\":3921:3944   */\n      mload\n        /* \"#utility.yul\":3957:4020   */\n      tag_111\n        /* \"#utility.yul\":4014:4018   */\n      0x20\n        /* \"#utility.yul\":4009:4012   */\n      dup7\n        /* \"#utility.yul\":4005:4019   */\n      add\n        /* \"#utility.yul\":3991:4003   */\n      dup3\n        /* \"#utility.yul\":3957:4020   */\n      tag_50\n      jump\t// in\n    tag_111:\n        /* \"#utility.yul\":3861:4030   */\n      pop\n        /* \"#utility.yul\":4047:4051   */\n      dup1\n        /* \"#utility.yul\":4040:4051   */\n      swap2\n      pop\n        /* \"#utility.yul\":3567:4057   */\n      pop\n        /* \"#utility.yul\":3465:4057   */\n      swap3\n      swap2\n      pop\n      pop\n      jump\t// out\n        /* \"#utility.yul\":4063:4295   */\n    tag_52:\n        /* \"#utility.yul\":4170:4180   */\n      0x00\n        /* \"#utility.yul\":4205:4289   */\n      tag_113\n        /* \"#utility.yul\":4285:4288   */\n      dup4\n        /* \"#utility.yul\":4277:4283   */\n      dup4\n        /* \"#utility.yul\":4205:4289   */\n      tag_51\n      jump\t// in\n    tag_113:\n        /* \"#utility.yul\":4191:4289   */\n      swap1\n      pop\n        /* \"#utility.yul\":4063:4295   */\n      swap3\n      swap2\n      pop\n      pop\n      jump\t// out\n        /* \"#utility.yul\":4301:4433   */\n    tag_53:\n        /* \"#utility.yul\":4390:4394   */\n      0x00\n        /* \"#utility.yul\":4422:4426   */\n      0x20\n        /* \"#utility.yul\":4417:4420   */\n      dup3\n        /* \"#utility.yul\":4413:4427   */\n      add\n        /* \"#utility.yul\":4405:4427   */\n      swap1\n      pop\n        /* \"#utility.yul\":4301:4433   */\n      swap2\n      swap1\n      pop\n      jump\t// out\n        /* \"#utility.yul\":4509:5572   */\n    tag_54:\n        /* \"#utility.yul\":4666:4669   */\n      0x00\n        /* \"#utility.yul\":4695:4768   */\n      tag_116\n        /* \"#utility.yul\":4762:4767   */\n      dup3\n        /* \"#utility.yul\":4695:4768   */\n      tag_41\n      jump\t// in\n    tag_116:\n        /* \"#utility.yul\":4784:4889   */\n      tag_117\n        /* \"#utility.yul\":4882:4888   */\n      dup2\n        /* \"#utility.yul\":4877:4880   */\n      dup6\n        /* \"#utility.yul\":4784:4889   */\n      tag_42\n      jump\t// in\n    tag_117:\n        /* \"#utility.yul\":4777:4889   */\n      swap4\n      pop\n        /* \"#utility.yul\":4915:4918   */\n      dup4\n        /* \"#utility.yul\":4960:4964   */\n      0x20\n        /* \"#utility.yul\":4952:4958   */\n      dup3\n        /* \"#utility.yul\":4948:4965   */\n      mul\n        /* \"#utility.yul\":4943:4946   */\n      dup6\n        /* \"#utility.yul\":4939:4966   */\n      add\n        /* \"#utility.yul\":4990:5065   */\n      tag_118\n        /* \"#utility.yul\":5059:5064   */\n      dup6\n        /* \"#utility.yul\":4990:5065   */\n      tag_43\n      jump\t// in\n    tag_118:\n        /* \"#utility.yul\":5088:5095   */\n      dup1\n        /* \"#utility.yul\":5119:5120   */\n      0x00\n        /* \"#utility.yul\":5104:5527   */\n    tag_119:\n        /* \"#utility.yul\":5129:5135   */\n      dup6\n        /* \"#utility.yul\":5126:5127   */\n      dup2\n        /* \"#utility.yul\":5123:5136   */\n      lt\n        /* \"#utility.yul\":5104:5527   */\n      iszero\n      tag_121\n      jumpi\n        /* \"#utility.yul\":5200:5209   */\n      dup5\n        /* \"#utility.yul\":5194:5198   */\n      dup5\n        /* \"#utility.yul\":5190:5210   */\n      sub\n        /* \"#utility.yul\":5185:5188   */\n      dup10\n        /* \"#utility.yul\":5178:5211   */\n      mstore\n        /* \"#utility.yul\":5251:5257   */\n      dup2\n        /* \"#utility.yul\":5245:5258   */\n      mload\n        /* \"#utility.yul\":5279:5381   */\n      tag_122\n        /* \"#utility.yul\":5376:5380   */\n      dup6\n        /* \"#utility.yul\":5361:5374   */\n      dup3\n        /* \"#utility.yul\":5279:5381   */\n      tag_52\n      jump\t// in\n    tag_122:\n        /* \"#utility.yul\":5271:5381   */\n      swap5\n      pop\n        /* \"#utility.yul\":5404:5483   */\n      tag_123\n        /* \"#utility.yul\":5476:5482   */\n      dup4\n        /* \"#utility.yul\":5404:5483   */\n      tag_53\n      jump\t// in\n    tag_123:\n        /* \"#utility.yul\":5394:5483   */\n      swap3\n      pop\n        /* \"#utility.yul\":5512:5516   */\n      0x20\n        /* \"#utility.yul\":5507:5510   */\n      dup11\n        /* \"#utility.yul\":5503:5517   */\n      add\n        /* \"#utility.yul\":5496:5517   */\n      swap10\n      pop\n        /* \"#utility.yul\":5164:5527   */\n      pop\n        /* \"#utility.yul\":5151:5152   */\n      0x01\n        /* \"#utility.yul\":5148:5149   */\n      dup2\n        /* \"#utility.yul\":5144:5153   */\n      add\n        /* \"#utility.yul\":5139:5153   */\n      swap1\n      pop\n        /* \"#utility.yul\":5104:5527   */\n      jump(tag_119)\n    tag_121:\n        /* \"#utility.yul\":5108:5122   */\n      pop\n        /* \"#utility.yul\":5543:5547   */\n      dup3\n        /* \"#utility.yul\":5536:5547   */\n      swap8\n      pop\n        /* \"#utility.yul\":5563:5566   */\n      dup8\n        /* \"#utility.yul\":5556:5566   */\n      swap6\n      pop\n        /* \"#utility.yul\":4671:5572   */\n      pop\n      pop\n      pop\n      pop\n      pop\n        /* \"#utility.yul\":4509:5572   */\n      swap3\n      swap2\n      pop\n      pop\n      jump\t// out\n        /* \"#utility.yul\":5578:6027   */\n    tag_13:\n        /* \"#utility.yul\":5759:5763   */\n      0x00\n        /* \"#utility.yul\":5797:5799   */\n      0x20\n        /* \"#utility.yul\":5786:5795   */\n      dup3\n        /* \"#utility.yul\":5782:5800   */\n      add\n        /* \"#utility.yul\":5774:5800   */\n      swap1\n      pop\n        /* \"#utility.yul\":5846:5855   */\n      dup2\n        /* \"#utility.yul\":5840:5844   */\n      dup2\n        /* \"#utility.yul\":5836:5856   */\n      sub\n        /* \"#utility.yul\":5832:5833   */\n      0x00\n        /* \"#utility.yul\":5821:5830   */\n      dup4\n        /* \"#utility.yul\":5817:5834   */\n      add\n        /* \"#utility.yul\":5810:5857   */\n      mstore\n        /* \"#utility.yul\":5874:6020   */\n      tag_125\n        /* \"#utility.yul\":6015:6019   */\n      dup2\n        /* \"#utility.yul\":6006:6012   */\n      dup5\n        /* \"#utility.yul\":5874:6020   */\n      tag_54\n      jump\t// in\n    tag_125:\n        /* \"#utility.yul\":5866:6020   */\n      swap1\n      pop\n        /* \"#utility.yul\":5578:6027   */\n      swap3\n      swap2\n      pop\n      pop\n      jump\t// out\n        /* \"#utility.yul\":6033:6151   */\n    tag_55:\n        /* \"#utility.yul\":6120:6144   */\n      tag_127\n        /* \"#utility.yul\":6138:6143   */\n      dup2\n        /* \"#utility.yul\":6120:6144   */\n      tag_49\n      jump\t// in\n    tag_127:\n        /* \"#utility.yul\":6115:6118   */\n      dup3\n        /* \"#utility.yul\":6108:6145   */\n      mstore\n        /* \"#utility.yul\":6033:6151   */\n      pop\n      pop\n      jump\t// out\n        /* \"#utility.yul\":6157:6379   */\n    tag_17:\n        /* \"#utility.yul\":6250:6254   */\n      0x00\n        /* \"#utility.yul\":6288:6290   */\n      0x20\n        /* \"#utility.yul\":6277:6286   */\n      dup3\n        /* \"#utility.yul\":6273:6291   */\n      add\n        /* \"#utility.yul\":6265:6291   */\n      swap1\n      pop\n        /* \"#utility.yul\":6301:6372   */\n      tag_129\n        /* \"#utility.yul\":6369:6370   */\n      0x00\n        /* \"#utility.yul\":6358:6367   */\n      dup4\n        /* \"#utility.yul\":6354:6371   */\n      add\n        /* \"#utility.yul\":6345:6351   */\n      dup5\n        /* \"#utility.yul\":6301:6372   */\n      tag_55\n      jump\t// in\n    tag_129:\n        /* \"#utility.yul\":6157:6379   */\n      swap3\n      swap2\n      pop\n      pop\n      jump\t// out\n        /* \"#utility.yul\":6385:6565   */\n    tag_56:\n        /* \"#utility.yul\":6433:6510   */\n      0x4e487b7100000000000000000000000000000000000000000000000000000000\n        /* \"#utility.yul\":6430:6431   */\n      0x00\n        /* \"#utility.yul\":6423:6511   */\n      mstore\n        /* \"#utility.yul\":6530:6534   */\n      0x41\n        /* \"#utility.yul\":6527:6528   */\n      0x04\n        /* \"#utility.yul\":6520:6535   */\n      mstore\n        /* \"#utility.yul\":6554:6558   */\n      0x24\n        /* \"#utility.yul\":6551:6552   */\n      0x00\n        /* \"#utility.yul\":6544:6559   */\n      revert\n        /* \"#utility.yul\":6571:6751   */\n    tag_57:\n        /* \"#utility.yul\":6619:6696   */\n      0x4e487b7100000000000000000000000000000000000000000000000000000000\n        /* \"#utility.yul\":6616:6617   */\n      0x00\n        /* \"#utility.yul\":6609:6697   */\n      mstore\n        /* \"#utility.yul\":6716:6720   */\n      0x22\n        /* \"#utility.yul\":6713:6714   */\n      0x04\n        /* \"#utility.yul\":6706:6721   */\n      mstore\n        /* \"#utility.yul\":6740:6744   */\n      0x24\n        /* \"#utility.yul\":6737:6738   */\n      0x00\n        /* \"#utility.yul\":6730:6745   */\n      revert\n        /* \"#utility.yul\":6757:7077   */\n    tag_29:\n        /* \"#utility.yul\":6801:6807   */\n      0x00\n        /* \"#utility.yul\":6838:6839   */\n      0x02\n        /* \"#utility.yul\":6832:6836   */\n      dup3\n        /* \"#utility.yul\":6828:6840   */\n      div\n        /* \"#utility.yul\":6818:6840   */\n      swap1\n      pop\n        /* \"#utility.yul\":6885:6886   */\n      0x01\n        /* \"#utility.yul\":6879:6883   */\n      dup3\n        /* \"#utility.yul\":6875:6887   */\n      and\n        /* \"#utility.yul\":6906:6924   */\n      dup1\n        /* \"#utility.yul\":6896:6977   */\n      tag_133\n      jumpi\n        /* \"#utility.yul\":6962:6966   */\n      0x7f\n        /* \"#utility.yul\":6954:6960   */\n      dup3\n        /* \"#utility.yul\":6950:6967   */\n      and\n        /* \"#utility.yul\":6940:6967   */\n      swap2\n      pop\n        /* \"#utility.yul\":6896:6977   */\n    tag_133:\n        /* \"#utility.yul\":7024:7026   */\n      0x20\n        /* \"#utility.yul\":7016:7022   */\n      dup3\n        /* \"#utility.yul\":7013:7027   */\n      lt\n        /* \"#utility.yul\":6993:7011   */\n      dup2\n        /* \"#utility.yul\":6990:7028   */\n      sub\n        /* \"#utility.yul\":6987:7071   */\n      tag_134\n      jumpi\n        /* \"#utility.yul\":7043:7061   */\n      tag_135\n      tag_57\n      jump\t// in\n    tag_135:\n        /* \"#utility.yul\":6987:7071   */\n    tag_134:\n        /* \"#utility.yul\":6808:7077   */\n      pop\n        /* \"#utility.yul\":6757:7077   */\n      swap2\n      swap1\n      pop\n      jump\t// out\n        /* \"#utility.yul\":7083:7224   */\n    tag_58:\n        /* \"#utility.yul\":7132:7136   */\n      0x00\n        /* \"#utility.yul\":7155:7158   */\n      dup2\n        /* \"#utility.yul\":7147:7158   */\n      swap1\n      pop\n        /* \"#utility.yul\":7178:7181   */\n      dup2\n        /* \"#utility.yul\":7175:7176   */\n      0x00\n        /* \"#utility.yul\":7168:7182   */\n      mstore\n        /* \"#utility.yul\":7212:7216   */\n      0x20\n        /* \"#utility.yul\":7209:7210   */\n      0x00\n        /* \"#utility.yul\":7199:7217   */\n      keccak256\n        /* \"#utility.yul\":7191:7217   */\n      swap1\n      pop\n        /* \"#utility.yul\":7083:7224   */\n      swap2\n      swap1\n      pop\n      jump\t// out\n        /* \"#utility.yul\":7230:7323   */\n    tag_59:\n        /* \"#utility.yul\":7267:7273   */\n      0x00\n        /* \"#utility.yul\":7314:7316   */\n      0x20\n        /* \"#utility.yul\":7309:7311   */\n      0x1f\n        /* \"#utility.yul\":7302:7307   */\n      dup4\n        /* \"#utility.yul\":7298:7312   */\n      add\n        /* \"#utility.yul\":7294:7317   */\n      div\n        /* \"#utility.yul\":7284:7317   */\n      swap1\n      pop\n        /* \"#utility.yul\":7230:7323   */\n      swap2\n      swap1\n      pop\n      jump\t// out\n        /* \"#utility.yul\":7329:7436   */\n    tag_60:\n        /* \"#utility.yul\":7373:7381   */\n      0x00\n        /* \"#utility.yul\":7423:7428   */\n      dup3\n        /* \"#utility.yul\":7417:7421   */\n      dup3\n        /* \"#utility.yul\":7413:7429   */\n      shl\n        /* \"#utility.yul\":7392:7429   */\n      swap1\n      pop\n        /* \"#utility.yul\":7329:7436   */\n      swap3\n      swap2\n      pop\n      pop\n      jump\t// out\n        /* \"#utility.yul\":7442:7835   */\n    tag_61:\n        /* \"#utility.yul\":7511:7517   */\n      0x00\n        /* \"#utility.yul\":7561:7562   */\n      0x08\n        /* \"#utility.yul\":7549:7559   */\n      dup4\n        /* \"#utility.yul\":7545:7563   */\n      mul\n        /* \"#utility.yul\":7584:7681   */\n      tag_140\n        /* \"#utility.yul\":7614:7680   */\n      0xffffffffffffffffffffffffffffffffffffffffffffffffffffffffffffffff\n        /* \"#utility.yul\":7603:7612   */\n      dup3\n        /* \"#utility.yul\":7584:7681   */\n      tag_60\n      jump\t// in\n    tag_140:\n        /* \"#utility.yul\":7702:7741   */\n      tag_141\n        /* \"#utility.yul\":7732:7740   */\n      dup7\n        /* \"#utility.yul\":7721:7730   */\n      dup4\n        /* \"#utility.yul\":7702:7741   */\n      tag_60\n      jump\t// in\n    tag_141:\n        /* \"#utility.yul\":7690:7741   */\n      swap6\n      pop\n        /* \"#utility.yul\":7774:7778   */\n      dup1\n        /* \"#utility.yul\":7770:7779   */\n      not\n        /* \"#utility.yul\":7763:7768   */\n      dup5\n        /* \"#utility.yul\":7759:7780   */\n      and\n        /* \"#utility.yul\":7750:7780   */\n      swap4\n      pop\n        /* \"#utility.yul\":7823:7827   */\n      dup1\n        /* \"#utility.yul\":7813:7821   */\n      dup7\n        /* \"#utility.yul\":7809:7828   */\n      and\n        /* \"#utility.yul\":7802:7807   */\n      dup5\n        /* \"#utility.yul\":7799:7829   */\n      or\n        /* \"#utility.yul\":7789:7829   */\n      swap3\n      pop\n        /* \"#utility.yul\":7518:7835   */\n      pop\n      pop\n        /* \"#utility.yul\":7442:7835   */\n      swap4\n      swap3\n      pop\n      pop\n      pop\n      jump\t// out\n        /* \"#utility.yul\":7841:7901   */\n    tag_62:\n        /* \"#utility.yul\":7869:7872   */\n      0x00\n        /* \"#utility.yul\":7890:7895   */\n      dup2\n        /* \"#utility.yul\":7883:7895   */\n      swap1\n      pop\n        /* \"#utility.yul\":7841:7901   */\n      swap2\n      swap1\n      pop\n      jump\t// out\n        /* \"#utility.yul\":7907:8049   */\n    tag_63:\n        /* \"#utility.yul\":7957:7966   */\n      0x00\n        /* \"#utility.yul\":7990:8043   */\n      tag_144\n        /* \"#utility.yul\":8008:8042   */\n      tag_145\n        /* \"#utility.yul\":8017:8041   */\n      tag_146\n        /* \"#utility.yul\":8035:8040   */\n      dup5\n        /* \"#utility.yul\":8017:8041   */\n      tag_49\n      jump\t// in\n    tag_146:\n        /* \"#utility.yul\":8008:8042   */\n      tag_62\n      jump\t// in\n    tag_145:\n        /* \"#utility.yul\":7990:8043   */\n      tag_49\n      jump\t// in\n    tag_144:\n        /* \"#utility.yul\":7977:8043   */\n      swap1\n      pop\n        /* \"#utility.yul\":7907:8049   */\n      swap2\n      swap1\n      pop\n      jump\t// out\n        /* \"#utility.yul\":8055:8130   */\n    tag_64:\n        /* \"#utility.yul\":8098:8101   */\n      0x00\n        /* \"#utility.yul\":8119:8124   */\n      dup2\n        /* \"#utility.yul\":8112:8124   */\n      swap1\n      pop\n        /* \"#utility.yul\":8055:8130   */\n      swap2\n      swap1\n      pop\n      jump\t// out\n        /* \"#utility.yul\":8136:8405   */\n    tag_65:\n        /* \"#utility.yul\":8246:8285   */\n      tag_149\n        /* \"#utility.yul\":8277:8284   */\n      dup4\n        /* \"#utility.yul\":8246:8285   */\n      tag_63\n      jump\t// in\n    tag_149:\n        /* \"#utility.yul\":8307:8398   */\n      tag_150\n        /* \"#utility.yul\":8356:8397   */\n      tag_151\n        /* \"#utility.yul\":8380:8396   */\n      dup3\n        /* \"#utility.yul\":8356:8397   */\n      tag_64\n      jump\t// in\n    tag_151:\n        /* \"#utility.yul\":8348:8354   */\n      dup5\n        /* \"#utility.yul\":8341:8345   */\n      dup5\n        /* \"#utility.yul\":8335:8346   */\n      sload\n        /* \"#utility.yul\":8307:8398   */\n      tag_61\n      jump\t// in\n    tag_150:\n        /* \"#utility.yul\":8301:8305   */\n      dup3\n        /* \"#utility.yul\":8294:8399   */\n      sstore\n        /* \"#utility.yul\":8212:8405   */\n      pop\n        /* \"#utility.yul\":8136:8405   */\n      pop\n      pop\n      pop\n      jump\t// out\n        /* \"#utility.yul\":8411:8484   */\n    tag_66:\n        /* \"#utility.yul\":8456:8459   */\n      0x00\n        /* \"#utility.yul\":8477:8478   */\n      0x00\n        /* \"#utility.yul\":8470:8478   */\n      swap1\n      pop\n        /* \"#utility.yul\":8411:8484   */\n      swap1\n      jump\t// out\n        /* \"#utility.yul\":8490:8679   */\n    tag_67:\n        /* \"#utility.yul\":8567:8599   */\n      tag_154\n      tag_66\n      jump\t// in\n    tag_154:\n        /* \"#utility.yul\":8608:8673   */\n      tag_155\n        /* \"#utility.yul\":8666:8672   */\n      dup2\n        /* \"#utility.yul\":8658:8664   */\n      dup5\n        /* \"#utility.yul\":8652:8656   */\n      dup5\n        /* \"#utility.yul\":8608:8673   */\n      tag_65\n      jump\t// in\n    tag_155:\n        /* \"#utility.yul\":8543:8679   */\n      pop\n        /* \"#utility.yul\":8490:8679   */\n      pop\n      pop\n      jump\t// out\n        /* \"#utility.yul\":8685:8871   */\n    tag_68:\n        /* \"#utility.yul\":8745:8865   */\n    tag_157:\n        /* \"#utility.yul\":8762:8765   */\n      dup2\n        /* \"#utility.yul\":8755:8760   */\n      dup2\n        /* \"#utility.yul\":8752:8766   */\n      lt\n        /* \"#utility.yul\":8745:8865   */\n      iszero\n      tag_159\n      jumpi\n        /* \"#utility.yul\":8816:8855   */\n      tag_160\n        /* \"#utility.yul\":8853:8854   */\n      0x00\n        /* \"#utility.yul\":8846:8851   */\n      dup3\n        /* \"#utility.yul\":8816:8855   */\n      tag_67\n      jump\t// in\n    tag_160:\n        /* \"#utility.yul\":8789:8790   */\n      0x01\n        /* \"#utility.yul\":8782:8787   */\n      dup2\n        /* \"#utility.yul\":8778:8791   */\n      add\n        /* \"#utility.yul\":8769:8791   */\n      swap1\n      pop\n        /* \"#utility.yul\":8745:8865   */\n      jump(tag_157)\n    tag_159:\n        /* \"#utility.yul\":8685:8871   */\n      pop\n      pop\n      jump\t// out\n        /* \"#utility.yul\":8877:9420   */\n    tag_69:\n        /* \"#utility.yul\":8978:8980   */\n      0x1f\n        /* \"#utility.yul\":8973:8976   */\n      dup3\n        /* \"#utility.yul\":8970:8981   */\n      gt\n        /* \"#utility.yul\":8967:9413   */\n      iszero\n      tag_162\n      jumpi\n        /* \"#utility.yul\":9012:9050   */\n      tag_163\n        /* \"#utility.yul\":9044:9049   */\n      dup2\n        /* \"#utility.yul\":9012:9050   */\n      tag_58\n      jump\t// in\n    tag_163:\n        /* \"#utility.yul\":9096:9125   */\n      tag_164\n        /* \"#utility.yul\":9114:9124   */\n      dup5\n        /* \"#utility.yul\":9096:9125   */\n      tag_59\n      jump\t// in\n    tag_164:\n        /* \"#utility.yul\":9086:9094   */\n      dup2\n        /* \"#utility.yul\":9082:9126   */\n      add\n        /* \"#utility.yul\":9279:9281   */\n      0x20\n        /* \"#utility.yul\":9267:9277   */\n      dup6\n        /* \"#utility.yul\":9264:9282   */\n      lt\n        /* \"#utility.yul\":9261:9310   */\n      iszero\n      tag_165\n      jumpi\n        /* \"#utility.yul\":9300:9308   */\n      dup2\n        /* \"#utility.yul\":9285:9308   */\n      swap1\n      pop\n        /* \"#utility.yul\":9261:9310   */\n    tag_165:\n        /* \"#utility.yul\":9323:9403   */\n      tag_166\n        /* \"#utility.yul\":9379:9401   */\n      tag_167\n        /* \"#utility.yul\":9397:9400   */\n      dup6\n        /* \"#utility.yul\":9379:9401   */\n      tag_59\n      jump\t// in\n    tag_167:\n        /* \"#utility.yul\":9369:9377   */\n      dup4\n        /* \"#utility.yul\":9365:9402   */\n      add\n        /* \"#utility.yul\":9352:9363   */\n      dup3\n        /* \"#utility.yul\":9323:9403   */\n      tag_68\n      jump\t// in\n    tag_166:\n        /* \"#utility.yul\":8982:9413   */\n      pop\n      pop\n        /* \"#utility.yul\":8967:9413   */\n    tag_162:\n        /* \"#utility.yul\":8877:9420   */\n      pop\n      pop\n      pop\n      jump\t// out\n        /* \"#utility.yul\":9426:9543   */\n    tag_70:\n        /* \"#utility.yul\":9480:9488   */\n      0x00\n        /* \"#utility.yul\":9530:9535   */\n      dup3\n        /* \"#utility.yul\":9524:9528   */\n      dup3\n        /* \"#utility.yul\":9520:9536   */\n      shr\n        /* \"#utility.yul\":9499:9536   */\n      swap1\n      pop\n        /* \"#utility.yul\":9426:9543   */\n      swap3\n      swap2\n      pop\n      pop\n      jump\t// out\n        /* \"#utility.yul\":9549:9718   */\n    tag_71:\n        /* \"#utility.yul\":9593:9599   */\n      0x00\n        /* \"#utility.yul\":9626:9677   */\n      tag_170\n        /* \"#utility.yul\":9674:9675   */\n      0x00\n        /* \"#utility.yul\":9670:9676   */\n      not\n        /* \"#utility.yul\":9662:9667   */\n      dup5\n        /* \"#utility.yul\":9659:9660   */\n      0x08\n        /* \"#utility.yul\":9655:9668   */\n      mul\n        /* \"#utility.yul\":9626:9677   */\n      tag_70\n      jump\t// in\n    tag_170:\n        /* \"#utility.yul\":9622:9678   */\n      not\n        /* \"#utility.yul\":9707:9711   */\n      dup1\n        /* \"#utility.yul\":9701:9705   */\n      dup4\n        /* \"#utility.yul\":9697:9712   */\n      and\n        /* \"#utility.yul\":9687:9712   */\n      swap2\n      pop\n        /* \"#utility.yul\":9600:9718   */\n      pop\n        /* \"#utility.yul\":9549:9718   */\n      swap3\n      swap2\n      pop\n      pop\n      jump\t// out\n        /* \"#utility.yul\":9723:10018   */\n    tag_72:\n        /* \"#utility.yul\":9799:9803   */\n      0x00\n        /* \"#utility.yul\":9945:9974   */\n      tag_172\n        /* \"#utility.yul\":9970:9973   */\n      dup4\n        /* \"#utility.yul\":9964:9968   */\n      dup4\n        /* \"#utility.yul\":9945:9974   */\n      tag_71\n      jump\t// in\n    tag_172:\n        /* \"#utility.yul\":9937:9974   */\n      swap2\n      pop\n        /* \"#utility.yul\":10007:10010   */\n      dup3\n        /* \"#utility.yul\":10004:10005   */\n      0x02\n        /* \"#utility.yul\":10000:10011   */\n      mul\n        /* \"#utility.yul\":9994:9998   */\n      dup3\n        /* \"#utility.yul\":9991:10012   */\n      or\n        /* \"#utility.yul\":9983:10012   */\n      swap1\n      pop\n        /* \"#utility.yul\":9723:10018   */\n      swap3\n      swap2\n      pop\n      pop\n      jump\t// out\n        /* \"#utility.yul\":10023:11418   */\n    tag_21:\n        /* \"#utility.yul\":10140:10177   */\n      tag_174\n        /* \"#utility.yul\":10173:10176   */\n      dup3\n        /* \"#utility.yul\":10140:10177   */\n      tag_44\n      jump\t// in\n    tag_174:\n        /* \"#utility.yul\":10242:10260   */\n      0xffffffffffffffff\n        /* \"#utility.yul\":10234:10240   */\n      dup2\n        /* \"#utility.yul\":10231:10261   */\n      gt\n        /* \"#utility.yul\":10228:10284   */\n      iszero\n      tag_175\n      jumpi\n        /* \"#utility.yul\":10264:10282   */\n      tag_176\n      tag_56\n      jump\t// in\n    tag_176:\n        /* \"#utility.yul\":10228:10284   */\n    tag_175:\n        /* \"#utility.yul\":10308:10346   */\n      tag_177\n        /* \"#utility.yul\":10340:10344   */\n      dup3\n        /* \"#utility.yul\":10334:10345   */\n      sload\n        /* \"#utility.yul\":10308:10346   */\n      tag_29\n      jump\t// in\n    tag_177:\n        /* \"#utility.yul\":10393:10460   */\n      tag_178\n        /* \"#utility.yul\":10453:10459   */\n      dup3\n        /* \"#utility.yul\":10445:10451   */\n      dup3\n        /* \"#utility.yul\":10439:10443   */\n      dup6\n        /* \"#utility.yul\":10393:10460   */\n      tag_69\n      jump\t// in\n    tag_178:\n        /* \"#utility.yul\":10487:10488   */\n      0x00\n        /* \"#utility.yul\":10511:10515   */\n      0x20\n        /* \"#utility.yul\":10498:10515   */\n      swap1\n      pop\n        /* \"#utility.yul\":10543:10545   */\n      0x1f\n        /* \"#utility.yul\":10535:10541   */\n      dup4\n        /* \"#utility.yul\":10532:10546   */\n      gt\n        /* \"#utility.yul\":10560:10561   */\n      0x01\n        /* \"#utility.yul\":10555:11173   */\n      dup2\n      eq\n      tag_180\n      jumpi\n        /* \"#utility.yul\":11217:11218   */\n      0x00\n        /* \"#utility.yul\":11234:11240   */\n      dup5\n        /* \"#utility.yul\":11231:11308   */\n      iszero\n      tag_181\n      jumpi\n        /* \"#utility.yul\":11283:11292   */\n      dup3\n        /* \"#utility.yul\":11278:11281   */\n      dup8\n        /* \"#utility.yul\":11274:11293   */\n      add\n        /* \"#utility.yul\":11268:11294   */\n      mload\n        /* \"#utility.yul\":11259:11294   */\n      swap1\n      pop\n        /* \"#utility.yul\":11231:11308   */\n    tag_181:\n        /* \"#utility.yul\":11334:11401   */\n      tag_182\n        /* \"#utility.yul\":11394:11400   */\n      dup6\n        /* \"#utility.yul\":11387:11392   */\n      dup3\n        /* \"#utility.yul\":11334:11401   */\n      tag_72\n      jump\t// in\n    tag_182:\n        /* \"#utility.yul\":11328:11332   */\n      dup7\n        /* \"#utility.yul\":11321:11402   */\n      sstore\n        /* \"#utility.yul\":11190:11412   */\n      pop\n        /* \"#utility.yul\":10525:11412   */\n      jump(tag_179)\n        /* \"#utility.yul\":10555:11173   */\n    tag_180:\n        /* \"#utility.yul\":10607:10611   */\n      0x1f\n        /* \"#utility.yul\":10603:10612   */\n      not\n        /* \"#utility.yul\":10595:10601   */\n      dup5\n        /* \"#utility.yul\":10591:10613   */\n      and\n        /* \"#utility.yul\":10641:10678   */\n      tag_183\n        /* \"#utility.yul\":10673:10677   */\n      dup7\n        /* \"#utility.yul\":10641:10678   */\n      tag_58\n      jump\t// in\n    tag_183:\n        /* \"#utility.yul\":10700:10701   */\n      0x00\n        /* \"#utility.yul\":10714:10922   */\n    tag_184:\n        /* \"#utility.yul\":10728:10735   */\n      dup3\n        /* \"#utility.yul\":10725:10726   */\n      dup2\n        /* \"#utility.yul\":10722:10736   */\n      lt\n        /* \"#utility.yul\":10714:10922   */\n      iszero\n      tag_186\n      jumpi\n        /* \"#utility.yul\":10807:10816   */\n      dup5\n        /* \"#utility.yul\":10802:10805   */\n      dup10\n        /* \"#utility.yul\":10798:10817   */\n      add\n        /* \"#utility.yul\":10792:10818   */\n      mload\n        /* \"#utility.yul\":10784:10790   */\n      dup3\n        /* \"#utility.yul\":10777:10819   */\n      sstore\n        /* \"#utility.yul\":10858:10859   */\n      0x01\n        /* \"#utility.yul\":10850:10856   */\n      dup3\n        /* \"#utility.yul\":10846:10860   */\n      add\n        /* \"#utility.yul\":10836:10860   */\n      swap2\n      pop\n        /* \"#utility.yul\":10905:10907   */\n      0x20\n        /* \"#utility.yul\":10894:10903   */\n      dup6\n        /* \"#utility.yul\":10890:10908   */\n      add\n        /* \"#utility.yul\":10877:10908   */\n      swap5\n      pop\n        /* \"#utility.yul\":10751:10755   */\n      0x20\n        /* \"#utility.yul\":10748:10749   */\n      dup2\n        /* \"#utility.yul\":10744:10756   */\n      add\n        /* \"#utility.yul\":10739:10756   */\n      swap1\n      pop\n        /* \"#utility.yul\":10714:10922   */\n      jump(tag_184)\n    tag_186:\n        /* \"#utility.yul\":10950:10956   */\n      dup7\n        /* \"#utility.yul\":10941:10948   */\n      dup4\n        /* \"#utility.yul\":10938:10957   */\n      lt\n        /* \"#utility.yul\":10935:11114   */\n      iszero\n      tag_187\n      jumpi\n        /* \"#utility.yul\":11008:11017   */\n      dup5\n        /* \"#utility.yul\":11003:11006   */\n      dup10\n        /* \"#utility.yul\":10999:11018   */\n      add\n        /* \"#utility.yul\":10993:11019   */\n      mload\n        /* \"#utility.yul\":11051:11099   */\n      tag_188\n        /* \"#utility.yul\":11093:11097   */\n      0x1f\n        /* \"#utility.yul\":11085:11091   */\n      dup10\n        /* \"#utility.yul\":11081:11098   */\n      and\n        /* \"#utility.yul\":11070:11079   */\n      dup3\n        /* \"#utility.yul\":11051:11099   */\n      tag_71\n      jump\t// in\n    tag_188:\n        /* \"#utility.yul\":11043:11049   */\n      dup4\n        /* \"#utility.yul\":11036:11100   */\n      sstore\n        /* \"#utility.yul\":10958:11114   */\n      pop\n        /* \"#utility.yul\":10935:11114   */\n    tag_187:\n        /* \"#utility.yul\":11160:11161   */\n      0x01\n        /* \"#utility.yul\":11156:11157   */\n      0x02\n        /* \"#utility.yul\":11148:11154   */\n      dup9\n        /* \"#utility.yul\":11144:11158   */\n      mul\n        /* \"#utility.yul\":11140:11162   */\n      add\n        /* \"#utility.yul\":11134:11138   */\n      dup9\n        /* \"#utility.yul\":11127:11163   */\n      sstore\n        /* \"#utility.yul\":10562:11173   */\n      pop\n      pop\n      pop\n        /* \"#utility.yul\":10525:11412   */\n    tag_179:\n      pop\n        /* \"#utility.yul\":10115:11418   */\n      pop\n      pop\n      pop\n        /* \"#utility.yul\":10023:11418   */\n      pop\n      pop\n      jump\t// out\n        /* \"#utility.yul\":11424:11604   */\n    tag_73:\n        /* \"#utility.yul\":11472:11549   */\n      0x4e487b7100000000000000000000000000000000000000000000000000000000\n        /* \"#utility.yul\":11469:11470   */\n      0x00\n        /* \"#utility.yul\":11462:11550   */\n      mstore\n        /* \"#utility.yul\":11569:11573   */\n      0x11\n        /* \"#utility.yul\":11566:11567   */\n      0x04\n        /* \"#utility.yul\":11559:11574   */\n      mstore\n        /* \"#utility.yul\":11593:11597   */\n      0x24\n        /* \"#utility.yul\":11590:11591   */\n      0x00\n        /* \"#utility.yul\":11583:11598   */\n      revert\n        /* \"#utility.yul\":11610:11843   */\n    tag_23:\n        /* \"#utility.yul\":11649:11652   */\n      0x00\n        /* \"#utility.yul\":11672:11696   */\n      tag_191\n        /* \"#utility.yul\":11690:11695   */\n      dup3\n        /* \"#utility.yul\":11672:11696   */\n      tag_49\n      jump\t// in\n    tag_191:\n        /* \"#utility.yul\":11663:11696   */\n      swap2\n      pop\n        /* \"#utility.yul\":11718:11784   */\n      0xffffffffffffffffffffffffffffffffffffffffffffffffffffffffffffffff\n        /* \"#utility.yul\":11711:11716   */\n      dup3\n        /* \"#utility.yul\":11708:11785   */\n      sub\n        /* \"#utility.yul\":11705:11808   */\n      tag_192\n      jumpi\n        /* \"#utility.yul\":11788:11806   */\n      tag_193\n      tag_73\n      jump\t// in\n    tag_193:\n        /* \"#utility.yul\":11705:11808   */\n    tag_192:\n        /* \"#utility.yul\":11835:11836   */\n      0x01\n        /* \"#utility.yul\":11828:11833   */\n      dup3\n        /* \"#utility.yul\":11824:11837   */\n      add\n        /* \"#utility.yul\":11817:11837   */\n      swap1\n      pop\n        /* \"#utility.yul\":11610:11843   */\n      swap2\n      swap1\n      pop\n      jump\t// out\n\n    auxdata: 0xa2646970667358221220f64d99bb4f55cd102ec3b8ae268ca6db6863af9c16761e7560edd80711dded5564736f6c634300081f0033\n}\n",
				"bytecode": {
					"linkReferences": {},
					"object": "6080604052348015600e575f5ffd5b506108e68061001c5f395ff3fe608060405234801561000f575f5ffd5b506004361061003f575f3560e01c8063a4edff4714610043578063b4af200d1461005f578063c1bbf4c11461007d575b5f5ffd5b61005d60048036038101906100589190610333565b61009b565b005b610067610195565b60405161007491906104fb565b60405180910390f35b6100856102c4565b604051610092919061052a565b60405180910390f35b5f604051806040016040528084848080601f0160208091040260200160405190810160405280939291908181526020018383808284375f81840152601f19601f8201169050808301925050505050505081526020014281525090505f5f3373ffffffffffffffffffffffffffffffffffffffff1673ffffffffffffffffffffffffffffffffffffffff1681526020019081526020015f2081908060018154018082558091505060019003905f5260205f2090600202015f909190919091505f820151815f01908161016c919061076d565b5060208201518160010155505060015f81548092919061018b90610869565b9190505550505050565b60605f5f3373ffffffffffffffffffffffffffffffffffffffff1673ffffffffffffffffffffffffffffffffffffffff1681526020019081526020015f20805480602002602001604051908101604052809291908181526020015f905b828210156102bb578382905f5260205f2090600202016040518060400160405290815f820180546102229061059d565b80601f016020809104026020016040519081016040528092919081815260200182805461024e9061059d565b80156102995780601f1061027057610100808354040283529160200191610299565b820191905f5260205f20905b81548152906001019060200180831161027c57829003601f168201915b50505050508152602001600182015481525050815260200190600101906101f2565b50505050905090565b60015481565b5f5ffd5b5f5ffd5b5f5ffd5b5f5ffd5b5f5ffd5b5f5f83601f8401126102f3576102f26102d2565b5b8235905067ffffffffffffffff8111156103105761030f6102d6565b5b60208301915083600182028301111561032c5761032b6102da565b5b9250929050565b5f5f60208385031215610349576103486102ca565b5b5f83013567ffffffffffffffff811115610366576103656102ce565b5b610372858286016102de565b92509250509250929050565b5f81519050919050565b5f82825260208201905092915050565b5f819050602082019050919050565b5f81519050919050565b5f82825260208201905092915050565b8281835e5f83830152505050565b5f601f19601f8301169050919050565b5f6103e9826103a7565b6103f381856103b1565b93506104038185602086016103c1565b61040c816103cf565b840191505092915050565b5f819050919050565b61042981610417565b82525050565b5f604083015f8301518482035f86015261044982826103df565b915050602083015161045e6020860182610420565b508091505092915050565b5f610474838361042f565b905092915050565b5f602082019050919050565b5f6104928261037e565b61049c8185610388565b9350836020820285016104ae85610398565b805f5b858110156104e957848403895281516104ca8582610469565b94506104d58361047c565b925060208a019950506001810190506104b1565b50829750879550505050505092915050565b5f6020820190508181035f8301526105138184610488565b905092915050565b61052481610417565b82525050565b5f60208201905061053d5f83018461051b565b92915050565b7f4e487b71000000000000000000000000000000000000000000000000000000005f52604160045260245ffd5b7f4e487b71000000000000000000000000000000000000000000000000000000005f52602260045260245ffd5b5f60028204905060018216806105b457607f821691505b6020821081036105c7576105c6610570565b5b50919050565b5f819050815f5260205f209050919050565b5f6020601f8301049050919050565b5f82821b905092915050565b5f600883026106297fffffffffffffffffffffffffffffffffffffffffffffffffffffffffffffffff826105ee565b61063386836105ee565b95508019841693508086168417925050509392505050565b5f819050919050565b5f61066e61066961066484610417565b61064b565b610417565b9050919050565b5f819050919050565b61068783610654565b61069b61069382610675565b8484546105fa565b825550505050565b5f5f905090565b6106b26106a3565b6106bd81848461067e565b505050565b5b818110156106e0576106d55f826106aa565b6001810190506106c3565b5050565b601f821115610725576106f6816105cd565b6106ff846105df565b8101602085101561070e578190505b61072261071a856105df565b8301826106c2565b50505b505050565b5f82821c905092915050565b5f6107455f198460080261072a565b1980831691505092915050565b5f61075d8383610736565b9150826002028217905092915050565b610776826103a7565b67ffffffffffffffff81111561078f5761078e610543565b5b610799825461059d565b6107a48282856106e4565b5f60209050601f8311600181146107d5575f84156107c3578287015190505b6107cd8582610752565b865550610834565b601f1984166107e3866105cd565b5f5b8281101561080a578489015182556001820191506020850194506020810190506107e5565b868310156108275784890151610823601f891682610736565b8355505b6001600288020188555050505b505050505050565b7f4e487b71000000000000000000000000000000000000000000000000000000005f52601160045260245ffd5b5f61087382610417565b91507fffffffffffffffffffffffffffffffffffffffffffffffffffffffffffffffff82036108a5576108a461083c565b5b60018201905091905056fea2646970667358221220f64d99bb4f55cd102ec3b8ae268ca6db6863af9c16761e7560edd80711dded5564736f6c634300081f0033",
					"opcodes": "PUSH1 0x80 PUSH1 0x40 MSTORE CALLVALUE DUP1 ISZERO PUSH1 0xE JUMPI PUSH0 PUSH0 REVERT JUMPDEST POP PUSH2 0x8E6 DUP1 PUSH2 0x1C PUSH0 CODECOPY PUSH0 RETURN INVALID PUSH1 0x80 PUSH1 0x40 MSTORE CALLVALUE DUP1 ISZERO PUSH2 0xF JUMPI PUSH0 PUSH0 REVERT JUMPDEST POP PUSH1 0x4 CALLDATASIZE LT PUSH2 0x3F JUMPI PUSH0 CALLDATALOAD PUSH1 0xE0 SHR DUP1 PUSH4 0xA4EDFF47 EQ PUSH2 0x43 JUMPI DUP1 PUSH4 0xB4AF200D EQ PUSH2 0x5F JUMPI DUP1 PUSH4 0xC1BBF4C1 EQ PUSH2 0x7D JUMPI JUMPDEST PUSH0 PUSH0 REVERT JUMPDEST PUSH2 0x5D PUSH1 0x4 DUP1 CALLDATASIZE SUB DUP2 ADD SWAP1 PUSH2 0x58 SWAP2 SWAP1 PUSH2 0x333 JUMP JUMPDEST PUSH2 0x9B JUMP JUMPDEST STOP JUMPDEST PUSH2 0x67 PUSH2 0x195 JUMP JUMPDEST PUSH1 0x40 MLOAD PUSH2 0x74 SWAP2 SWAP1 PUSH2 0x4FB JUMP JUMPDEST PUSH1 0x40 MLOAD DUP1 SWAP2 SUB SWAP1 RETURN JUMPDEST PUSH2 0x85 PUSH2 0x2C4 JUMP JUMPDEST PUSH1 0x40 MLOAD PUSH2 0x92 SWAP2 SWAP1 PUSH2 0x52A JUMP JUMPDEST PUSH1 0x40 MLOAD DUP1 SWAP2 SUB SWAP1 RETURN JUMPDEST PUSH0 PUSH1 0x40 MLOAD DUP1 PUSH1 0x40 ADD PUSH1 0x40 MSTORE DUP1 DUP5 DUP5 DUP1 DUP1 PUSH1 0x1F ADD PUSH1 0x20 DUP1 SWAP2 DIV MUL PUSH1 0x20 ADD PUSH1 0x40 MLOAD SWAP1 DUP2 ADD PUSH1 0x40 MSTORE DUP1 SWAP4 SWAP3 SWAP2 SWAP1 DUP2 DUP2 MSTORE PUSH1 0x20 ADD DUP4 DUP4 DUP1 DUP3 DUP5 CALLDATACOPY PUSH0 DUP2 DUP5 ADD MSTORE PUSH1 0x1F NOT PUSH1 0x1F DUP3 ADD AND SWAP1 POP DUP1 DUP4 ADD SWAP3 POP POP POP POP POP POP POP DUP2 MSTORE PUSH1 0x20 ADD TIMESTAMP DUP2 MSTORE POP SWAP1 POP PUSH0 PUSH0 CALLER PUSH20 0xFFFFFFFFFFFFFFFFFFFFFFFFFFFFFFFFFFFFFFFF AND PUSH20 0xFFFFFFFFFFFFFFFFFFFFFFFFFFFFFFFFFFFFFFFF AND DUP2 MSTORE PUSH1 0x20 ADD SWAP1 DUP2 MSTORE PUSH1 0x20 ADD PUSH0 KECCAK256 DUP2 SWAP1 DUP1 PUSH1 0x1 DUP2 SLOAD ADD DUP1 DUP3 SSTORE DUP1 SWAP2 POP POP PUSH1 0x1 SWAP1 SUB SWAP1 PUSH0 MSTORE PUSH1 0x20 PUSH0 KECCAK256 SWAP1 PUSH1 0x2 MUL ADD PUSH0 SWAP1 SWAP2 SWAP1 SWAP2 SWAP1 SWAP2 POP PUSH0 DUP3 ADD MLOAD DUP2 PUSH0 ADD SWAP1 DUP2 PUSH2 0x16C SWAP2 SWAP1 PUSH2 0x76D JUMP JUMPDEST POP PUSH1 0x20 DUP3 ADD MLOAD DUP2 PUSH1 0x1 ADD SSTORE POP POP PUSH1 0x1 PUSH0 DUP2 SLOAD DUP1 SWAP3 SWAP2 SWAP1 PUSH2 0x18B SWAP1 PUSH2 0x869 JUMP JUMPDEST SWAP2 SWAP1 POP SSTORE POP POP POP POP JUMP JUMPDEST PUSH1 0x60 PUSH0 PUSH0 CALLER PUSH20 0xFFFFFFFFFFFFFFFFFFFFFFFFFFFFFFFFFFFFFFFF AND PUSH20 0xFFFFFFFFFFFFFFFFFFFFFFFFFFFFFFFFFFFFFFFF AND DUP2 MSTORE PUSH1 0x20 ADD SWAP1 DUP2 MSTORE PUSH1 0x20 ADD PUSH0 KECCAK256 DUP1 SLOAD DUP1 PUSH1 0x20 MUL PUSH1 0x20 ADD PUSH1 0x40 MLOAD SWAP1 DUP2 ADD PUSH1 0x40 MSTORE DUP1 SWAP3 SWAP2 SWAP1 DUP2 DUP2 MSTORE PUSH1 0x20 ADD PUSH0 SWAP1 JUMPDEST DUP3 DUP3 LT ISZERO PUSH2 0x2BB JUMPI DUP4 DUP3 SWAP1 PUSH0 MSTORE PUSH1 0x20 PUSH0 KECCAK256 SWAP1 PUSH1 0x2 MUL ADD PUSH1 0x40 MLOAD DUP1 PUSH1 0x40 ADD PUSH1 0x40 MSTORE SWAP1 DUP2 PUSH0 DUP3 ADD DUP1 SLOAD PUSH2 0x222 SWAP1 PUSH2 0x59D JUMP JUMPDEST DUP1 PUSH1 0x1F ADD PUSH1 0x20 DUP1 SWAP2 DIV MUL PUSH1 0x20 ADD PUSH1 0x40 MLOAD SWAP1 DUP2 ADD PUSH1 0x40 MSTORE DUP1 SWAP3 SWAP2 SWAP1 DUP2 DUP2 MSTORE PUSH1 0x20 ADD DUP3 DUP1 SLOAD PUSH2 0x24E SWAP1 PUSH2 0x59D JUMP JUMPDEST DUP1 ISZERO PUSH2 0x299 JUMPI DUP1 PUSH1 0x1F LT PUSH2 0x270 JUMPI PUSH2 0x100 DUP1 DUP4 SLOAD DIV MUL DUP4 MSTORE SWAP2 PUSH1 0x20 ADD SWAP2 PUSH2 0x299 JUMP JUMPDEST DUP3 ADD SWAP2 SWAP1 PUSH0 MSTORE PUSH1 0x20 PUSH0 KECCAK256 SWAP1 JUMPDEST DUP2 SLOAD DUP2 MSTORE SWAP1 PUSH1 0x1 ADD SWAP1 PUSH1 0x20 ADD DUP1 DUP4 GT PUSH2 0x27C JUMPI DUP3 SWAP1 SUB PUSH1 0x1F AND DUP3 ADD SWAP2 JUMPDEST POP POP POP POP POP DUP2 MSTORE PUSH1 0x20 ADD PUSH1 0x1 DUP3 ADD SLOAD DUP2 MSTORE POP POP DUP2 MSTORE PUSH1 0x20 ADD SWAP1 PUSH1 0x1 ADD SWAP1 PUSH2 0x1F2 JUMP JUMPDEST POP POP POP POP SWAP1 POP SWAP1 JUMP JUMPDEST PUSH1 0x1 SLOAD DUP2 JUMP JUMPDEST PUSH0 PUSH0 REVERT JUMPDEST PUSH0 PUSH0 REVERT JUMPDEST PUSH0 PUSH0 REVERT JUMPDEST PUSH0 PUSH0 REVERT JUMPDEST PUSH0 PUSH0 REVERT JUMPDEST PUSH0 PUSH0 DUP4 PUSH1 0x1F DUP5 ADD SLT PUSH2 0x2F3 JUMPI PUSH2 0x2F2 PUSH2 0x2D2 JUMP JUMPDEST JUMPDEST DUP3 CALLDATALOAD SWAP1 POP PUSH8 0xFFFFFFFFFFFFFFFF DUP2 GT ISZERO PUSH2 0x310 JUMPI PUSH2 0x30F PUSH2 0x2D6 JUMP JUMPDEST JUMPDEST PUSH1 0x20 DUP4 ADD SWAP2 POP DUP4 PUSH1 0x1 DUP3 MUL DUP4 ADD GT ISZERO PUSH2 0x32C JUMPI PUSH2 0x32B PUSH2 0x2DA JUMP JUMPDEST JUMPDEST SWAP3 POP SWAP3 SWAP1 POP JUMP JUMPDEST PUSH0 PUSH0 PUSH1 0x20 DUP4 DUP6 SUB SLT ISZERO PUSH2 0x349 JUMPI PUSH2 0x348 PUSH2 0x2CA JUMP JUMPDEST JUMPDEST PUSH0 DUP4 ADD CALLDATALOAD PUSH8 0xFFFFFFFFFFFFFFFF DUP2 GT ISZERO PUSH2 0x366 JUMPI PUSH2 0x365 PUSH2 0x2CE JUMP JUMPDEST JUMPDEST PUSH2 0x372 DUP6 DUP3 DUP7 ADD PUSH2 0x2DE JUMP JUMPDEST SWAP3 POP SWAP3 POP POP SWAP3 POP SWAP3 SWAP1 POP JUMP JUMPDEST PUSH0 DUP2 MLOAD SWAP1 POP SWAP2 SWAP1 POP JUMP JUMPDEST PUSH0 DUP3 DUP3 MSTORE PUSH1 0x20 DUP3 ADD SWAP1 POP SWAP3 SWAP2 POP POP JUMP JUMPDEST PUSH0 DUP2 SWAP1 POP PUSH1 0x20 DUP3 ADD SWAP1 POP SWAP2 SWAP1 POP JUMP JUMPDEST PUSH0 DUP2 MLOAD SWAP1 POP SWAP2 SWAP1 POP JUMP JUMPDEST PUSH0 DUP3 DUP3 MSTORE PUSH1 0x20 DUP3 ADD SWAP1 POP SWAP3 SWAP2 POP POP JUMP JUMPDEST DUP3 DUP2 DUP4 MCOPY PUSH0 DUP4 DUP4 ADD MSTORE POP POP POP JUMP JUMPDEST PUSH0 PUSH1 0x1F NOT PUSH1 0x1F DUP4 ADD AND SWAP1 POP SWAP2 SWAP1 POP JUMP JUMPDEST PUSH0 PUSH2 0x3E9 DUP3 PUSH2 0x3A7 JUMP JUMPDEST PUSH2 0x3F3 DUP2 DUP6 PUSH2 0x3B1 JUMP JUMPDEST SWAP4 POP PUSH2 0x403 DUP2 DUP6 PUSH1 0x20 DUP7 ADD PUSH2 0x3C1 JUMP JUMPDEST PUSH2 0x40C DUP2 PUSH2 0x3CF JUMP JUMPDEST DUP5 ADD SWAP2 POP POP SWAP3 SWAP2 POP POP JUMP JUMPDEST PUSH0 DUP2 SWAP1 POP SWAP2 SWAP1 POP JUMP JUMPDEST PUSH2 0x429 DUP2 PUSH2 0x417 JUMP JUMPDEST DUP3 MSTORE POP POP JUMP JUMPDEST PUSH0 PUSH1 0x40 DUP4 ADD PUSH0 DUP4 ADD MLOAD DUP5 DUP3 SUB PUSH0 DUP7 ADD MSTORE PUSH2 0x449 DUP3 DUP3 PUSH2 0x3DF JUMP JUMPDEST SWAP2 POP POP PUSH1 0x20 DUP4 ADD MLOAD PUSH2 0x45E PUSH1 0x20 DUP7 ADD DUP3 PUSH2 0x420 JUMP JUMPDEST POP DUP1 SWAP2 POP POP SWAP3 SWAP2 POP POP JUMP JUMPDEST PUSH0 PUSH2 0x474 DUP4 DUP4 PUSH2 0x42F JUMP JUMPDEST SWAP1 POP SWAP3 SWAP2 POP POP JUMP JUMPDEST PUSH0 PUSH1 0x20 DUP3 ADD SWAP1 POP SWAP2 SWAP1 POP JUMP JUMPDEST PUSH0 PUSH2 0x492 DUP3 PUSH2 0x37E JUMP JUMPDEST PUSH2 0x49C DUP2 DUP6 PUSH2 0x388 JUMP JUMPDEST SWAP4 POP DUP4 PUSH1 0x20 DUP3 MUL DUP6 ADD PUSH2 0x4AE DUP6 PUSH2 0x398 JUMP JUMPDEST DUP1 PUSH0 JUMPDEST DUP6 DUP2 LT ISZERO PUSH2 0x4E9 JUMPI DUP5 DUP5 SUB DUP10 MSTORE DUP2 MLOAD PUSH2 0x4CA DUP6 DUP3 PUSH2 0x469 JUMP JUMPDEST SWAP5 POP PUSH2 0x4D5 DUP4 PUSH2 0x47C JUMP JUMPDEST SWAP3 POP PUSH1 0x20 DUP11 ADD SWAP10 POP POP PUSH1 0x1 DUP2 ADD SWAP1 POP PUSH2 0x4B1 JUMP JUMPDEST POP DUP3 SWAP8 POP DUP8 SWAP6 POP POP POP POP POP POP SWAP3 SWAP2 POP POP JUMP JUMPDEST PUSH0 PUSH1 0x20 DUP3 ADD SWAP1 POP DUP2 DUP2 SUB PUSH0 DUP4 ADD MSTORE PUSH2 0x513 DUP2 DUP5 PUSH2 0x488 JUMP JUMPDEST SWAP1 POP SWAP3 SWAP2 POP POP JUMP JUMPDEST PUSH2 0x524 DUP2 PUSH2 0x417 JUMP JUMPDEST DUP3 MSTORE POP POP JUMP JUMPDEST PUSH0 PUSH1 0x20 DUP3 ADD SWAP1 POP PUSH2 0x53D PUSH0 DUP4 ADD DUP5 PUSH2 0x51B JUMP JUMPDEST SWAP3 SWAP2 POP POP JUMP JUMPDEST PUSH32 0x4E487B7100000000000000000000000000000000000000000000000000000000 PUSH0 MSTORE PUSH1 0x41 PUSH1 0x4 MSTORE PUSH1 0x24 PUSH0 REVERT JUMPDEST PUSH32 0x4E487B7100000000000000000000000000000000000000000000000000000000 PUSH0 MSTORE PUSH1 0x22 PUSH1 0x4 MSTORE PUSH1 0x24 PUSH0 REVERT JUMPDEST PUSH0 PUSH1 0x2 DUP3 DIV SWAP1 POP PUSH1 0x1 DUP3 AND DUP1 PUSH2 0x5B4 JUMPI PUSH1 0x7F DUP3 AND SWAP2 POP JUMPDEST PUSH1 0x20 DUP3 LT DUP2 SUB PUSH2 0x5C7 JUMPI PUSH2 0x5C6 PUSH2 0x570 JUMP JUMPDEST JUMPDEST POP SWAP2 SWAP1 POP JUMP JUMPDEST PUSH0 DUP2 SWAP1 POP DUP2 PUSH0 MSTORE PUSH1 0x20 PUSH0 KECCAK256 SWAP1 POP SWAP2 SWAP1 POP JUMP JUMPDEST PUSH0 PUSH1 0x20 PUSH1 0x1F DUP4 ADD DIV SWAP1 POP SWAP2 SWAP1 POP JUMP JUMPDEST PUSH0 DUP3 DUP3 SHL SWAP1 POP SWAP3 SWAP2 POP POP JUMP JUMPDEST PUSH0 PUSH1 0x8 DUP4 MUL PUSH2 0x629 PUSH32 0xFFFFFFFFFFFFFFFFFFFFFFFFFFFFFFFFFFFFFFFFFFFFFFFFFFFFFFFFFFFFFFFF DUP3 PUSH2 0x5EE JUMP JUMPDEST PUSH2 0x633 DUP7 DUP4 PUSH2 0x5EE JUMP JUMPDEST SWAP6 POP DUP1 NOT DUP5 AND SWAP4 POP DUP1 DUP7 AND DUP5 OR SWAP3 POP POP POP SWAP4 SWAP3 POP POP POP JUMP JUMPDEST PUSH0 DUP2 SWAP1 POP SWAP2 SWAP1 POP JUMP JUMPDEST PUSH0 PUSH2 0x66E PUSH2 0x669 PUSH2 0x664 DUP5 PUSH2 0x417 JUMP JUMPDEST PUSH2 0x64B JUMP JUMPDEST PUSH2 0x417 JUMP JUMPDEST SWAP1 POP SWAP2 SWAP1 POP JUMP JUMPDEST PUSH0 DUP2 SWAP1 POP SWAP2 SWAP1 POP JUMP JUMPDEST PUSH2 0x687 DUP4 PUSH2 0x654 JUMP JUMPDEST PUSH2 0x69B PUSH2 0x693 DUP3 PUSH2 0x675 JUMP JUMPDEST DUP5 DUP5 SLOAD PUSH2 0x5FA JUMP JUMPDEST DUP3 SSTORE POP POP POP POP JUMP JUMPDEST PUSH0 PUSH0 SWAP1 POP SWAP1 JUMP JUMPDEST PUSH2 0x6B2 PUSH2 0x6A3 JUMP JUMPDEST PUSH2 0x6BD DUP2 DUP5 DUP5 PUSH2 0x67E JUMP JUMPDEST POP POP POP JUMP JUMPDEST JUMPDEST DUP2 DUP2 LT ISZERO PUSH2 0x6E0 JUMPI PUSH2 0x6D5 PUSH0 DUP3 PUSH2 0x6AA JUMP JUMPDEST PUSH1 0x1 DUP2 ADD SWAP1 POP PUSH2 0x6C3 JUMP JUMPDEST POP POP JUMP JUMPDEST PUSH1 0x1F DUP3 GT ISZERO PUSH2 0x725 JUMPI PUSH2 0x6F6 DUP2 PUSH2 0x5CD JUMP JUMPDEST PUSH2 0x6FF DUP5 PUSH2 0x5DF JUMP JUMPDEST DUP2 ADD PUSH1 0x20 DUP6 LT ISZERO PUSH2 0x70E JUMPI DUP2 SWAP1 POP JUMPDEST PUSH2 0x722 PUSH2 0x71A DUP6 PUSH2 0x5DF JUMP JUMPDEST DUP4 ADD DUP3 PUSH2 0x6C2 JUMP JUMPDEST POP POP JUMPDEST POP POP POP JUMP JUMPDEST PUSH0 DUP3 DUP3 SHR SWAP1 POP SWAP3 SWAP2 POP POP JUMP JUMPDEST PUSH0 PUSH2 0x745 PUSH0 NOT DUP5 PUSH1 0x8 MUL PUSH2 0x72A JUMP JUMPDEST NOT DUP1 DUP4 AND SWAP2 POP POP SWAP3 SWAP2 POP POP JUMP JUMPDEST PUSH0 PUSH2 0x75D DUP4 DUP4 PUSH2 0x736 JUMP JUMPDEST SWAP2 POP DUP3 PUSH1 0x2 MUL DUP3 OR SWAP1 POP SWAP3 SWAP2 POP POP JUMP JUMPDEST PUSH2 0x776 DUP3 PUSH2 0x3A7 JUMP JUMPDEST PUSH8 0xFFFFFFFFFFFFFFFF DUP2 GT ISZERO PUSH2 0x78F JUMPI PUSH2 0x78E PUSH2 0x543 JUMP JUMPDEST JUMPDEST PUSH2 0x799 DUP3 SLOAD PUSH2 0x59D JUMP JUMPDEST PUSH2 0x7A4 DUP3 DUP3 DUP6 PUSH2 0x6E4 JUMP JUMPDEST PUSH0 PUSH1 0x20 SWAP1 POP PUSH1 0x1F DUP4 GT PUSH1 0x1 DUP2 EQ PUSH2 0x7D5 JUMPI PUSH0 DUP5 ISZERO PUSH2 0x7C3 JUMPI DUP3 DUP8 ADD MLOAD SWAP1 POP JUMPDEST PUSH2 0x7CD DUP6 DUP3 PUSH2 0x752 JUMP JUMPDEST DUP7 SSTORE POP PUSH2 0x834 JUMP JUMPDEST PUSH1 0x1F NOT DUP5 AND PUSH2 0x7E3 DUP7 PUSH2 0x5CD JUMP JUMPDEST PUSH0 JUMPDEST DUP3 DUP2 LT ISZERO PUSH2 0x80A JUMPI DUP5 DUP10 ADD MLOAD DUP3 SSTORE PUSH1 0x1 DUP3 ADD SWAP2 POP PUSH1 0x20 DUP6 ADD SWAP5 POP PUSH1 0x20 DUP2 ADD SWAP1 POP PUSH2 0x7E5 JUMP JUMPDEST DUP7 DUP4 LT ISZERO PUSH2 0x827 JUMPI DUP5 DUP10 ADD MLOAD PUSH2 0x823 PUSH1 0x1F DUP10 AND DUP3 PUSH2 0x736 JUMP JUMPDEST DUP4 SSTORE POP JUMPDEST PUSH1 0x1 PUSH1 0x2 DUP9 MUL ADD DUP9 SSTORE POP POP POP JUMPDEST POP POP POP POP POP POP JUMP JUMPDEST PUSH32 0x4E487B7100000000000000000000000000000000000000000000000000000000 PUSH0 MSTORE PUSH1 0x11 PUSH1 0x4 MSTORE PUSH1 0x24 PUSH0 REVERT JUMPDEST PUSH0 PUSH2 0x873 DUP3 PUSH2 0x417 JUMP JUMPDEST SWAP2 POP PUSH32 0xFFFFFFFFFFFFFFFFFFFFFFFFFFFFFFFFFFFFFFFFFFFFFFFFFFFFFFFFFFFFFFFF DUP3 SUB PUSH2 0x8A5 JUMPI PUSH2 0x8A4 PUSH2 0x83C JUMP JUMPDEST JUMPDEST PUSH1 0x1 DUP3 ADD SWAP1 POP SWAP2 SWAP1 POP JUMP INVALID LOG2 PUSH5 0x6970667358 0x22 SLT KECCAK256 0xF6 0x4D SWAP10 0xBB 0x4F SSTORE 0xCD LT 0x2E 0xC3 0xB8 0xAE 0x26 DUP13 0xA6 0xDB PUSH9 0x63AF9C16761E7560ED 0xD8 SMOD GT 0xDD 0xED SSTORE PUSH5 0x736F6C6343 STOP ADDMOD 0x1F STOP CALLER "
				},
				"gasEstimates": {
					"creation": {
						"codeDepositCost": "455600",
						"executionCost": "491",
						"totalCost": "456091"
					},
					"external": {
						"addNote(string)": "infinite",
						"getNotes()": "infinite",
						"totalNotes()": "2447"
					}
				},
				"methodIdentifiers": {
					"addNote(string)": "a4edff47",
					"getNotes()": "b4af200d",
					"totalNotes()": "c1bbf4c1"
				}
			},
			"storageLayout": {
				"storage": [
					{
						"astId": 12,
						"contract": "Week 3 Assignments - Solidity/DigitalNotebook.sol:DigitalNotebook",
						"label": "userNotes",
						"offset": 0,
						"slot": "0",
						"type": "t_mapping(t_address,t_array(t_struct(Note)6_storage)dyn_storage)"
					},
					{
						"astId": 14,
						"contract": "Week 3 Assignments - Solidity/DigitalNotebook.sol:DigitalNotebook",
						"label": "totalNotes",
						"offset": 0,
						"slot": "1",
						"type": "t_uint256"
					}
				],
				"types": {
					"t_address": {
						"encoding": "inplace",
						"label": "address",
						"numberOfBytes": "20"
					},
					"t_array(t_struct(Note)6_storage)dyn_storage": {
						"base": "t_struct(Note)6_storage",
						"encoding": "dynamic_array",
						"label": "struct DigitalNotebook.Note[]",
						"numberOfBytes": "32"
					},
					"t_mapping(t_address,t_array(t_struct(Note)6_storage)dyn_storage)": {
						"encoding": "mapping",
						"key": "t_address",
						"label": "mapping(address => struct DigitalNotebook.Note[])",
						"numberOfBytes": "32",
						"value": "t_array(t_struct(Note)6_storage)dyn_storage"
					},
					"t_string_storage": {
						"encoding": "bytes",
						"label": "string",
						"numberOfBytes": "32"
					},
					"t_struct(Note)6_storage": {
						"encoding": "inplace",
						"label": "struct DigitalNotebook.Note",
						"members": [
							{
								"astId": 3,
								"contract": "Week 3 Assignments - Solidity/DigitalNotebook.sol:DigitalNotebook",
								"label": "message",
								"offset": 0,
								"slot": "0",
								"type": "t_string_storage"
							},
							{
								"astId": 5,
								"contract": "Week 3 Assignments - Solidity/DigitalNotebook.sol:DigitalNotebook",
								"label": "timestamp",
								"offset": 0,
								"slot": "1",
								"type": "t_uint256"
							}
						],
						"numberOfBytes": "64"
					},
					"t_uint256": {
						"encoding": "inplace",
						"label": "uint256",
						"numberOfBytes": "32"
					}
				}
			},
			"userdoc": {
				"kind": "user",
				"methods": {},
				"version": 1
			}
		}
	}
}